:020000040800F2
:10000000A0160020350200088D4700086740000850
:1000100065460008752800089D5000080000000093
:10002000000000000000000000000000D14C0008AB
:10003000512C000800000000CF4C00082D4D000896
:100040004F0200084F0200084F0200084F0200084C
:100050004F0200084F0200084F0200084F0200083C
:100060004F0200084F0200084F0200084F0200082C
:100070004F0200084F0200084F0200084F0200081C
:100080004F0200084F0200084F0200084F0200080C
:100090004F0200084F0200084F0200084F020008FC
:1000A0004F020008914D00084F0200084F0200085F
:1000B0004F0200084F0200084F0200084F020008DC
:1000C0004F0200084F0200084F0200084F020008CC
:1000D0004F020008915000084F0200084F0200082C
:1000E0004F0200084F0200084F02000800F002F81B
:1000F00000F090F80AA090E8000C82448344AAF132
:100100000107DA4501D100F085F8AFF2090EBAE82F
:100110000F0013F0010F18BFFB1A43F0010318473B
:10012000A4620000C4620000103A24BF78C878C1FD
:10013000FAD8520724BF30C830C144BF04680C60ED
:10014000704700000023002400250026103A28BF35
:1001500078C1FBD8520728BF30C148BF0B60704739
:100160006E2900F0C781702900F00983662905F027
:10017000EB83652905F0E883672905F0E5836129AC
:1001800005F0E48303681B0A28BF41F08001692958
:1001900000F07481642900F07181752900F06E818E
:1001A0006F2900F09682782900F0D582E92900F0C5
:1001B0003182E42900F02E82F52900F02B82EF290C
:1001C00000F09382F82900F0D4820368DB0928BF8D
:1001D00041F08001632901F09780732901F09C8030
:1001E000E32901F0A780F32901F0AC8000207047DB
:1001F0001FB501F07DF904000020002105F0B4F9DD
:10020000401C60600020002105F098F9E0601FBDEF
:1002100010B510BD01F047F91146FFF7E9FF05F0F1
:10022000CFF801F0A5FC03B4FFF7F2FF03BC01F027
:10023000D3FE00000948804709480047FEE7FEE773
:10024000FEE7FEE7FEE7FEE7FEE7FEE7FEE7FEE786
:1002500004480549054A064B704700008F4D0008C9
:10026000ED000008A0100020A0160020A012002021
:10027000A01200201CB50C46064B7B44694600903A
:10028000204600F050F904460020694600F05EF96F
:1002900020461CBDCF02000070B5064600F07CF879
:1002A0000468054630460A22002100F089FB2C60D4
:1002B00070BD0000014A00F0BBBB00004000002000
:1002C0004FF0000200B5134694469646203922BFEF
:1002D000A0E80C50A0E80C50B1F12001BFF4F7AF3A
:1002E000090728BFA0E80C5048BF0CC05DF804EB1C
:1002F000890028BF40F8042B08BF704748BF20F88A
:10030000022B11F0804F18BF00F8012B704700003E
:100310004FF0013C50F8042B51F8043B9A4221D194
:10032000A2EB0C03934313EACC1317D150F8042B20
:1003300051F8043B9A4215D1A2EB0C03934313EA04
:10034000CC130BD150F8042B51F8043B9A4209D13D
:10035000A2EB0C03934313EACC13DBD04FF0000065
:10036000704700BFD01A01BAB1FA81F101F018014B
:1003700022FA01F0CB40C1F12001DBB2C0B2C01AB9
:100380002CFA01F3D11A914311EAC311E6D1704757
:100390007047704770470000004870473C100020CD
:1003A00010B5FFF7F9FF006810BD10B50446FFF760
:1003B000F3FF046010BD70B5044685690068C1068E
:1003C00001D5302600E02026C00707D070BDD4E953
:1003D000012130469047206A401C20626D1EF6D5F0
:1003E00070BD70B5044685690078C00707D170BD3F
:1003F000D4E9012120209047206A401C20626D1E14
:10040000F6D570BD09684A0501D540B27047C905E7
:10041000FCD500B2704709684A0501D5C0B27047E3
:10042000C905FCD580B2704770B50C460546012A57
:1004300005D02878800600D5EA69002302E0012370
:1004400005E05B1C934202D2E05C0028F9D1A86968
:10045000E618C01AA861286A184428622846FFF7DF
:10046000AAFF04E0D5E9012114F8010B9047B4423A
:10047000F8D32846FFF7B5FF70BD00002DE9F04125
:100480000646002410687529314616A510D0FFF7DE
:10049000B9FF002802DA404213A507E031688A0755
:1004A00001D512A502E0490704D511A5012401E0F8
:1004B000FFF7B1FF00210A2206F1240709E0B0FB93
:1004C000F2FCB0FBF2F302FB1C003030785418460B
:1004D000491C0028F3D123462A463046BDE8F041A6
:1004E00000F022BB000000002D0000002B000000E7
:1004F0002000000011680268006A530501D50870E9
:100500000AE0D30501D5088006E0130603D5C2171B
:10051000C1E9000200E008600120704701694A1C3F
:1005200002610878704700B58FB0CDE90131002134
:10053000059105497944CDE903101146684600F05C
:1005400029F90FB000BD0000E5FFFFFF0A6802F8BF
:10055000010B0A60704700002DE9FF5F15468A46CF
:100560000446DFF8AC80F8440027D8E900103E4686
:10057000CDE9001010E03AF816106A4602A800F023
:1005800054FF411C07D02178890603D5E269391848
:1005900091420DD80744761C2078800602D5E06988
:1005A000B84205DDAE42E6DB3AF816000028E2D19B
:1005B000A069C01BA0612046FFF7FDFED8E900102E
:1005C000CDE90010002017E03AF818106A4602A89A
:1005D00000F02BFFB0F1FF3F81460BD000250DF15D
:1005E000080B05E0D4E901211BF8050090476D1CBC
:1005F0004D45F7D308F10100B0428046E4DB206AA4
:10060000384420622046FFF7ECFEBDE8FF9F000063
:100610005E5D00002DE9F0418046D21D22F0070208
:100620000025D2E90002F52915A614D0011E72F1A9
:10063000000106DA0023D0EB030063EB020211A6EF
:1006400008E0D8F800108B0701D50FA602E0490793
:1006500001D50EA601251146002408F1240704E067
:1006600000F014FA30323A55641C50EA0102F7D116
:100670002B46324621464046BDE8F04100F054BAD0
:10068000000000002D0000002B00000020000000F2
:1006900030B4002100F1240408E002F00705D2087C
:1006A000303542EA4372DB086554491C52EA0305BF
:1006B000F3D10468002310A2250707D5A40600D4AF
:1006C00021B1C46901230DA2641EC46130BC00F0D5
:1006D0002BBA10B5044621461068FFF79CFE02466F
:1006E0002046BDE810400023D2E7D21D22F00701CA
:1006F000D1E90023CCE7000000000000300000003A
:10070000F0B40D460188090502D5214C7C4402E075
:100710001F4C7C440E34002100F1240608E002F056
:100720000F071209E75D42EA03721B097754491C5F
:1007300052EA0307F3D102780023120704D5702D83
:1007400006D009B1022311342246F0BC00F0ECB906
:1007500001231034F8E770B504460D4621461068B1
:10076000FFF759FE024629462046BDE870400023A7
:10077000C6E7D21D22F00703D3E90023C0E70368D0
:10078000126843F0200303600823C3610023B7E726
:10079000C05B00002DE9F05F894604464FF0000A77
:1007A000DFF874B1FB44C0F820A02046E168884718
:1007B000002874D0252806D0D4E901219047206A6A
:1007C000401C2062F1E700265F462046E16888472A
:1007D0002028054607DB312D05D2781910F8200CAA
:1007E00008B10643F1E7B00701D526F00406C4F8C6
:1007F0001CA00027C4F818A02A2D09D0284604F010
:10080000F2FC38B304EB8708303DC8F8185019E003
:1008100059F8041B204604EB87029161E168884780
:10082000012F054618D1E069002820DA26F02006BD
:100830001DE0D8F8180000EB800005EB40003038D0
:10084000C8F818002046E1688847054604F0CBFC4C
:100850000028EED1012F0AD02E2D08D12046E168C4
:1008600088477F1C0546022F46F02006C4DBA0699E
:10087000002803DA404246F00106A061F00701D0EB
:1008800026F010066C2D0BD0682D09D04C2D39D0D8
:100890006A2D35D0742D35D07A2D33D016E038E05E
:1008A000E1682F4620468847B842054609D16C2F9B
:1008B00026D04FF48060E16806432046884705460D
:1008C00004E06C2F1AD04FF4807006430DB3A5F1ED
:1008D0004100192802D8203546F400664A462946C8
:1008E000204626604E46FFF73BFC80B101280BD026
:1008F000F61D26F0070000F1080956E74020E4E75E
:100900008020D8E70020D6E706F104094DE7284605
:1009100052E7206ABDE8F09F505B00000FB400234F
:1009200000B589B00CA900910B99CB60214B7B4499
:100930000693214B7B44079304236FF00042CDE9DB
:1009400001321E4A7A446B4608920246002005F0A6
:100950005FF809B05DF814FB70B506464FF0FF3044
:1009600015460C46324686B00091CDE90101694634
:100970000020049004A8FFF7D1FF02460498211834
:1009800025B108B1084600E02046286004980028F8
:100990000DD0002A02DD0098884208D03246081B9C
:1009A00069460094CDE9010404A8FFF7B7FF06B03B
:1009B00070BD00001B0A0000330A0000CF010000D8
:1009C0002DE9F04791460F4680460446002614F86C
:1009D000015B2DB100F052F80068405DC007F6D110
:1009E0002B2D02D02D2D18D0641E4A4639462046A4
:1009F00000F0CCFC27B13968A14201D1C7F80080D2
:100A00004FF0020471050BD54042002803DDFFF7CB
:100A1000C3FC0460A007BDE8F08746F48066E4E705
:100A20000028F8DAFFF7B8FC04606FF00040F2E746
:100A30002DE9F04115460E46040002D12C6804B998
:100A40000BA4204600F021FD0444207870B1274615
:100A50003146384600F009FD0444207810B10020EA
:100A600004F8010B38462C60BDE8F0810027F9E757
:100A700000000000004870473C10002010B500F056
:100A800037FD001D10BD00BFE14A000030B5B0F1D8
:100A90000A024FEA900E71F100034EEA817EB0EB3C
:100AA0000E0061EB91014FEA101E4EEA017E10EB41
:100AB0000E0041EB11114FEA102E4EEA016E10EBC1
:100AC0000E0041EB11214FEA104E4EEA014E10EBA1
:100AD0000E0041EB1141401841F100014FEAD000F6
:100AE00040EA41704FEAD10110EB80054FEA8104E2
:100AF00044EA907444EB01046D1944EB0404521B66
:100B0000A3414FF0000348BF0A3200D530BD401C5E
:100B100041F1000130BD10B50446FFF7AFFF00689A
:100B2000005D00F0010010BD2DE9F0470D4699462B
:100B30009246044600F124080168880604D5E0695D
:100B400021F01001216000E00120A84201DD471BD7
:100B500000E00027A1697A1902EB0900081AA061D8
:100B60002078C00602D42046FFF725FC002608E0C6
:100B7000D4E901211AF806009047206A401C761C2F
:100B800020624E45F4DB2078C0060AD52046FFF7E8
:100B900012FC06E0D4E9012130209047206A401C75
:100BA0002062381EA7F10107F4DC07E0D4E9012137
:100BB00018F805009047206A401C2062281EA5F105
:100BC0000105F3DC2046FFF70CFC2078000602D577
:100BD0000220BDE8F0870120FBE770472DE9FF4FB9
:100BE0000C461E464FF0FF378BB0D2E90001DDF80E
:100BF00060800A908A46C1F30A5505B93D46002136
:100C000008464FF00000BAF1000F00F4400005DA8A
:100C100000EB80004FF4400101EA50004FEA905988
:100C2000B9F1010F00DDB9460A9850EA4A000ED02A
:100C300044F61050A5F2FF3545432F14B8F1000FCC
:100C40001ED07542291E1EDDC9F100021CE0B8F15C
:100C5000010F4FF0000001D0302103E0F24305E026
:100C60002154401CB042FBDB3046002200212154BD
:100C70000B99C1F80880C1E900200FB0BDE8F08FE2
:100C8000BD1B6D1CDEE74A4600DA694206A800F08B
:100C9000FDFE06AB93E8070003AB83E80700504670
:100CA0000A9901F0B3F98DE80700A0F500501F384C
:100CB00000900398002D0ADD42F21F014A460844C5
:100CC000002303A90390684601F05EFC09E0A0F54B
:100CD00000504A461F38002303A90390684601F0DC
:100CE0007DFC8DE807000004000C03D04FF0FF30BE
:100CF000410800E01046B8F1000F03D00022009236
:100D000015461EE0751E05D4FFF7C0FE3032625551
:100D10006D1EF9D5B3460122084302D000227F1C84
:100D200004E02078302801D100227F1E002A099794
:100D300084D01DE0112D07DAFFF7A8FE303262558E
:100D40006D1C50EA0102F5D1084302D00098C8B1E9
:100D50000EE00021681E05E0235C625C63542254AF
:100D6000401E491C8142F7DBAB46A81B401E099080
:100D7000002004F80B000B98099AC0F80880C0E91D
:100D8000002B7AE711264FF0000857E72DE9F04FC6
:100D900088460446D21D22F0070191B0D1E9000136
:100DA000CDE90A0104F07BF902460B98C00F01D08F
:100DB0002D2007E02068810701D52B2002E02021AB
:100DC00001EAC000032A099001D0072A05DB034687
:100DD0004146204600F090FB0BE12078800601D5CB
:100DE000E06900E00620B8F1650F814606D0B8F151
:100DF000660F18D0B8F1670F70D131E00020B9F15B
:100E0000110F009001DB112301E009F101030AAA8F
:100E100001A90CA8FFF7E2FEDDE90C70002609F13C
:100E20000105834647E001204B4600904FF0004704
:100E30000AAA01A90CA8FFF7D1FEDDE90DB00C99B3
:100E40005D46002610B909F101000D18B9EB050047
:100E500003D4C0F1FF3609F10105A5EB09002BE031
:100E6000B9F1010F01DA4FF001090020B9F1110FBA
:100E70000090484601DD112300E003460AAA01A9BB
:100E80000CA8FFF7ABFEDDE90C704D46002683464B
:100E9000207800070AD4AB4500DA5D4601A8012D91
:100EA00004DD411911F8011C302907D04F4502DA41
:100EB00017F1040F04DA012082460FE06D1EEEE701
:100EC000002F02DCED1B3E4403E0781CA84200DD4D
:100ED0007D1CB81B00F1010A4FF000472078000785
:100EE00003D4AA4501DB4FF0FF3A0021B7F1004FD0
:100EF0000DF143088DF8431024D002202B23002F3E
:100F000001DA7F422D230A21021EA0F1010000DC3C
:100F10005FB197FBF1FC97FBF1F201FB1C7C1746DC
:100F20000CF1300C08F801CDEEE7A8F101000370D8
:100F30002188090501D5452100E06521A0F10108BE
:100F400000F8011C09980FA9A1EB0807FF1D00B1CB
:100F50000120411901EBEA70A1693844081A401ECA
:100F6000A0612078C00602D42046FFF724FA099831
:100F700028B1D4E901219047206A401C20622078E2
:100F8000C00622D52046FFF716FA1EE0002E04DB2D
:100F9000B34502DD01A8805D00E03020D4E90121E5
:100FA0009047206A401C2062761CAAF101005FEA8B
:100FB000000A0AD100F09CFAC0680168405CD4E9DC
:100FC00001219047206A401C2062281EA5F10105DE
:100FD000DCDC07E0D4E9012118F8010B9047206A16
:100FE000401C2062381EA7F10107F3DC2046FFF702
:100FF000F8F9032011B041E62DE9F04F04460D4603
:10100000D21D22F0070089B0D0E900974846394642
:1010100004F045F80246F80F01D02D2307E02068C0
:10102000810701D52B2302E0202101EAC0038DF8BE
:1010300020300BB1012000E00020032A824601D0BD
:10104000072A04DB2946204600F056FA3FE12078C3
:10105000800601D40D2500E0E569C7F30A560D2D81
:1010600049DA00214FEA175B08464FF00000002FD5
:1010700000F4400007DA00EB80004FF4400100EB81
:10108000D07001EA60008115012901DD4FF0FF31C8
:1010900000224FEA850CBCF1180F06D31346ACF1C1
:1010A00018004FF08052C24003E04FF4801323FA3F
:1010B0000CF30CF10C0CBCF1200F04D3ACF1200CA0
:1010C00009FA0CF001E007FA0CF000294FF0004893
:1010D00001DD18B90FE00ED140450CD319EB020920
:1010E0005F4121B9404502D19F4329EA0209BBEB88
:1010F000175F00D0761C2088000502D57B48784415
:1011000002E07A487844193808AA302302F80A30F5
:10111000037C0AF10101002E0AF1020A53546A46C7
:1011200002DC4FF0300101E04FF031014FF00108D7
:101130008DF8001002D0A6F2FF3603E059EA47010D
:1011400000D06B4E002D02DC2178090704D54FF04A
:1011500002082E218DF80110C44600210BE0C7F3D0
:1011600003433F01C35C491C6D1E02F8083005298A
:1011700008F1010801DA002DF1DC00210CE000EBA0
:101180001973491C1B786D1E082902F808304FEAB4
:10119000091908F1010801DA002DF0DC21688B063D
:1011A00002D516E0A8F10108E04505DD02EB0803D1
:1011B00013F8013C302BF5D0B8F1000F09DD02EB3C
:1011C000080313F8013C2E2B03D1090701D4A8F121
:1011D0000108002D05DD3E2102F808106D1E08F102
:1011E0000108407C002E02F8080008F1010804DA2A
:1011F0002D20764202F8080002E02B2002F80800B9
:101200000A214FF47A70864208F101080BDB96FB45
:10121000F0F3303302F8083096FBF0F308F10108E0
:1012200000FB136601E0642E0CDB642096FBF0F3F8
:10123000303302F8083096FBF0F308F1010800FBA8
:10124000136601E00A2E06DB96FBF1F0303002F85F
:10125000080008F1010896FBF1F001FB1060303046
:1012600002F80800A16908F1010808EB050202EB89
:101270000A00081AA0612078C00602D42046FFF7B1
:101280009AF8216A08AE01EB0A00206204E0D4E972
:10129000012116F8010B9047BAF1010AF7D2207824
:1012A000C00602D52046FFF786F86E4609E016F81C
:1012B000010B3E280FD0D4E901219047206A401C41
:1012C0002062B8F10108F2D22046FFF78AF809B08F
:1012D0000320BDE8F08F206A2844206203E0D4E9AF
:1012E0000121302090476D1EEBD3F8E71A52000021
:1012F00002FCFFFF10B5436913B1AFF3008001E0BA
:10130000FFF792F8012010BD127800F124010A7055
:1013100000224A700122EDE711684FF0FF32E9E741
:1013200010B5436913B1AFF3008001E0FFF714F982
:10133000012010BD128800F1240182840022C284A1
:101340000122EDE711684FF0FF32E9E7426842B150
:10135000016811F8013B23B1521EC0E90012184682
:1013600070470121C160881E704742685AB1C36846
:10137000016843B983688B4205D0491E521CC0E9FD
:101380000012002070474FF0FF3070472DE9F05FEA
:10139000824615468B4600270AF10104B9460078BB
:1013A000302801D09DB113E014F8010B01277828F3
:1013B00003D0582801D045B10AE00DB1102D07D156
:1013C000002714F8010B102502E0082500E00A258B
:1013D0000026B0460EE005FB080005FB06F10127DC
:1013E0001FFA80F801EB1046B6F5803F00D3B946EE
:1013F00014F8010B294600F0BFF80028EBDABBF126
:10140000000F05D00FB1641E00E05446CBF8004039
:10141000B9F1000F06D0FEF7BFFF02210160C81E20
:10142000BDE8F09F48EA0640FAE770B516460C465C
:101430000546FFF723FB036893F80101012806D056
:10144000FF2C0FD8185D68B101202C7070BDD3F847
:1014500007013246214603F2071303442846BDE83C
:10146000704018474FF0FF3070BD30B503461D780F
:101470001DB10A4603E0AC4201D1181A30BD12F882
:10148000014B002CF7D15B1CF1E730B503461D780A
:101490003DB10A4612F8014B1CB1AC42FAD15B1CBB
:1014A000F5E7181A30BD7546FFF7E4FAAE460500B9
:1014B0006946534620F00700854618B020B5FEF770
:1014C000C7FEBDE820404FF000064FF000074FF088
:1014D00000084FF0000B21F00701AC46ACE8C00952
:1014E000ACE8C009ACE8C009ACE8C0098D4670475B
:1014F000004870475C1000202DE9F0411F4604466B
:1015000003260168072A01F4006004DB08B116A570
:1015100005E016A503E008B115A500E015A521F02A
:1015200010002060A069C01EA0610FB1401EA06124
:101530002046FEF740FF4FB1D4E9012138469047DD
:10154000206A401C2062C01C206206E0206AFAE784
:10155000D4E9012115F8010B9047761EF8D22046F8
:10156000FEF73FFFBDE8F0814E414E006E616E0018
:10157000494E4600696E66003A2800D2303820F0A5
:101580002002412A01D3A2F13700884201D34FF053
:10159000FF3070472DE9FF4F06468BB00878FF28D3
:1015A00006D0491C2D2805D000244FF0000908E082
:1015B00000200CE00124F8E709EB8903491C00EB4B
:1015C00043090878FF28F7D114B1C9F1000081461A
:1015D000107800252C46AA4629462D2801D02B2814
:1015E00004D1521C2D2813D0002082468B4610783F
:1015F000FF280FD04FF0000C0A21521CA5FB0178E8
:1016000004FB018105FB0C11C5194BEB0104EEE74E
:101610000120EAE7002108464FF00000BAF1000F70
:1016200002D000EB80004008C0F38157012F01DD9C
:101630004FF0FF370E9955EA040009EB01080BD073
:101640004FF0020918F5FA7F16DA4FEACA70002F38
:10165000706008DD012007E04FEACA70C6E900B0FB
:101660000FB0BDE8F08F00203060FEF795FEC0F8A7
:1016700000901821084616E0B8F5FA7F18DD002F13
:1016800002DAF748784401E0F6487844D0E90010DF
:10169000C6E9001040EACA707060FEF77DFEC0F82F
:1016A0000090142108460FB0BDE8F04F04F049B98E
:1016B000002108464FF00000B8F10001099002DA5D
:1016C000C7F1000200E03A4601DAC8F1000106A8BD
:1016D00000F0DCF906AB93E8070003AB83E80700F2
:1016E00044F23E005BEA04010090584604D144F203
:1016F0001E012C465D460091210C0904014306D1D0
:101700000099240444EA15442D041039009104F092
:101710007F41014306D10099240244EA15642D0259
:101720000839009104F07041014306D10099240169
:1017300044EA15742D01091F009104F04041014352
:1017400006D10099A40044EA9574AD00891E009169
:1017500004F00041084304D100986D196441401E13
:1017600000904FF001033A466846B8F1000FCDE90A
:10177000014503A902DD00F046FF01E000F019FF7A
:10178000BAF1000F04460D4601D084F00044002158
:1017900008464FF00000099940F2FF77484010F0EA
:1017A0000C0F07D124F00040284303D0C4F30A50A3
:1017B000B84212D1FEF7F0FDC0F80090C4F30A5011
:1017C000B8420AD1A8487844D0E90010C6E9001010
:1017D00004F000410843706042E7C6E900543FE767
:1017E0002DE9FF4F1F464FF0000A4FF0FF384546E6
:1017F00091B0D7E90146CDF83CA0FFF779FEC0686B
:101800000168405C1090B96912986D1C8847396A6C
:10181000814688470028F6D1B9F1FF3F0AD0002E53
:1018200024F4D06411DDB9F12B0F08D0B9F12D0FDC
:101830000BD102E0404615B013E744F48064B96967
:1018400012986D1C8847761E8146600504A901D553
:101850002D2000E02B20002E01F1010B0DF13008AE
:101860008DF810003FDDB9F1690F08D0B9F1490FCB
:1018700005D0B9F16E0F02D0B9F14E0F1CD13B4625
:1018800001A8009580E85002DDE912126FF0020015
:1018900004F0C2F8C11CCED10EE0B96912986D1CDB
:1018A000884781461398761E44F4007405600F98AB
:1018B000401C002E0F9016DDB9F1300FEDD0B9F1BC
:1018C000780F02D0B9F1580F0DD10F9801280AD125
:1018D0003B46CDE90054DDE91212001F029604F0E8
:1018E00099F8C11CA7D1109989453ED144F08004D4
:1018F00006E01399681CAAF1010A44F40074086018
:10190000B9696D1C1298761E884730288146F0D040
:101910002BE01099894505D1200603D4761E44F0AA
:10192000800418E0484603F05EFC08B3761E0DF113
:1019300023018B4544F4007408D2A9F130000BF860
:10194000010B200607D5AAF1010003E0200602D40E
:101950000AF101008246A00502D51399681C0860AF
:10196000B96912986D1C88478146002ED1DC53E07E
:10197000002E51DDB9F1650F02D0B9F1450F4BD101
:10198000A00549D5B9696D1C1298761E24F44074DF
:101990008847002E81460CDD2B2804D0B9F12D0F8D
:1019A00007D144F48074B96912986D1C8847761E7B
:1019B0008146E00501D52D2100E02B2108F8011B0F
:1019C000CDF8008021E0761E0DF13901884544F400
:1019D00000740CD2A9F1300010F0FF0088F800006C
:1019E00002D10099884509D908F1010806E0E0050F
:1019F00001D51E4801E042F20F708246B969129883
:101A00006D1C8847814613980560002E04DD48460A
:101A100003F0E9FB0028D6D1F96912988847FF2026
:101A200053468BF8000088F8000000200A900B90C5
:101A300004AA0CA90AA8FFF7ADFDA00502D46FF017
:101A40000100F8E614F0240F12D0E0071CD138682A
:101A5000DDE90A12031D3B600068C0E9001213E0D3
:101A6000644D0000564D00001A4C0000F1D8FFFFF5
:101A70000AA9684603F046FBE00705D13868009ADA
:101A8000011D3960006802602846D4E62DE9F04760
:101A9000814616468AB0354878440DC88DE80D0059
:101AA00032487844801C03AC0DC884E80D0041F630
:101AB0009B300844372190FBF1F290FBF1F5A5F142
:101AC000800501FB12041B3C02D56442012000E0AA
:101AD0000020DFF898A080460027FA44AAF1BE0A49
:101AE0000EE0E0070AD03246684607EB47010123C3
:101AF0000AEB810100F072FD8DE8070064107F1C85
:101B0000002CEED1194F7F44AE3F19E0E80715D005
:101B100007EB04100DF1180A90E80E008AE80E0099
:101B2000C068F04201D1981908903246012306A9F5
:101B300003A800F053FD03AB83E807006D10641C9D
:101B4000002DE3D14FF0010332466946B8F1000F92
:101B500003A802D000F018FD01E000F03FFDC9E944
:101B60000001C9F808200AB0BDE8F087104900005C
:101B700010B50446AFF300802046BDE81040FEF7E4
:101B800052BB00002DE9FF4F1F464FF03C0987B0C4
:101B90004FF00042DDE9141001F10108DDF858A012
:101BA00002EA405003900020059083460546044613
:101BB0000490B969461E08988847AAF1010A029064
:101BC000BAF1000F3BDD02982E2815D01021FFF747
:101BD000D3FC00282EDB4FF0010B0599014317D0F1
:101BE000B9F1000F0BDB4A46C11700F0FBF90543C2
:101BF0000C43A9F1040905E0012004900BE008B1B1
:101C000045F0010501200590049820B9361D02E039
:101C1000049800B1361FB969089808F1010888478F
:101C2000BBF1000FAAF1010A0290C9D00999C1F8CD
:101C30000080C5E70298702808D0502806D0F969BE
:101C400008988847BBF1000F14D04FE000200290A5
:101C50000120BBF1000F049009D0B969089808F180
:101C600001088847AAF10109B9F1000F07DCF969F9
:101C7000089888476FF001000BB0BDE8F08F2B2863
:101C800004D02D280CD14FF0FF300490B96908988A
:101C900008F101088847A9F10109B9F1000FE6DD53
:101CA000411CE4D00A21FFF767FC0028DFDB029922
:101CB00008F1010801EB810100EB41000290B969D4
:101CC000089888470A21FFF757FC099AA9F10109EA
:101CD000B9F1000FC2F8008001DD0028E7DAF969E8
:101CE000089888470499029800FB016655EA0400A9
:101CF00004D004F04041090002D006E0039898E0C7
:101D0000A40044EA9574AD00B61E04F0004108003A
:101D100002D16D196441761E159810F0240F03D07E
:101D20004FF00B095C4803E04FF028096FF07D008D
:101D30008246564507DAAAEB06018944B9F1410FFC
:101D400001DD4FF0410901200021A9F1010200F05D
:101D500049F9024628400B462140084301D00121A1
:101D600000E00021501E029143F1FF312840214044
:101D7000084301D0012000E000200299834651EA87
:101D80000B014FD0002108464FF00000039900F4EA
:101D9000400039B100EB80004FF4400100EBD070FF
:101DA00001EA60008015012802DD4FF0FF3000E0FD
:101DB00013D0401C36D0029860B3BBF1000F0CD199
:101DC0004A460120002100F00DF928402140084337
:101DD00001D0012000E00020E0B101204A460021AE
:101DE00000F000F9034640190A4661412D1A8C4162
:101DF00011D3B9F1400F09DD159810F0240F02D06E
:101E0000AAF1340603E0AAF1170600E0761C0025CB
:101E10004FF0004406E05B1E42F1FF3220EA03056A
:101E200021EA0204CAF10100B04206DA1B49039814
:101E300008430190002000900EE0039AC4F3D321E0
:101E4000E80A0A43164940EA44500A433146CDE9BC
:101E50000002684603F0BCF9159810F0240F0BD06F
:101E60001598C00715D13868DDE90012031D3B60E5
:101E70000068C0E900120CE002A8694603F042F9CC
:101E80001598C00705D13868029A011D39600068AD
:101E900002604046F0E6000002FCFFFF0000F07F19
:101EA0000000F03F2DE9FF4F92461D4685B04FF0F0
:101EB0000041DDE9124BDDE914727F1E01EA4B504F
:101EC000414940F0FF4940EA0108002122F020008A
:101ED0004928049102D04E2828D04CE03BA001268E
:101EE00007C88DE80700A9690698641C88477F1E0B
:101EF000014606D41DF8060018B121F020018142E8
:101F00000BD0E96906988847032E34D0082E32D0CA
:101F10006FF0010009B0BDE8F08F761C032E01D0F0
:101F2000082EE0D1601CCAF80000DCE7A969069819
:101F3000641C88477F1E2AD420F02000412826D127
:101F4000A9690698641C88477F1E20D420F02000D1
:101F50004E281CD1A9690698641C88477F1E48F446
:101F6000002849F48009CAF8004001D4282806D086
:101F7000E969069888475FEACB7012D022E0A96928
:101F80000698641C88477F1E01D4002803DAE9699B
:101F900006988847BCE72928F1D1641CCAF800409C
:101FA000E9E71BF0240F07D028680499031D2B6074
:101FB0000068C0E9001805E02868021D2A60006872
:101FC000C0F800902046A5E70000F07F494E464942
:101FD0004E4954590000000001491820ABBEFEE7ED
:101FE00026000200B2F120030AD5C2F1200301FA53
:101FF00002F120FA03F300FA02F041EA030170470C
:1020000000FA03F14FF00000704770475FEA400CA0
:1020100008BF91F0000F4FEA8C234FEAC12243EA38
:1020200051514FEA1C5018BF00F5F0404FEA300004
:1020300018BF41F000415FEA6C5C00F02980BCF100
:10204000FF3F08BF40F080407047130C06BF1204EA
:102050004FF0100C4FF0000C130E04BF12020CF1E5
:10206000080C130F04BF12010CF1040C930F04BFF2
:1020700092000CF1020CD30F04BF52000CF1010CC2
:1020800011464FF00002A0F11F00A0EB0C007047BA
:1020900011F0004F08BF704731F000413FF4D5AF59
:1020A0000B0C06BF09044FF0100C4FF0000C0B0E88
:1020B00004BF09020CF1080C0B0F04BF09010CF15D
:1020C000040C8B0F04BF89000CF1020CCB0F04BF72
:1020D00049000CF1010CCCF12003A0EB0C0022FA1A
:1020E00003F302FA0CF241EA030100F10100704728
:1020F00020F07F4C80EA030023F07F47ACEB07031E
:1021000003F57C5300F0004003F1FF032DE9804903
:102110004FEA154B09B44FEA144325EA0B4E24EA63
:1021200003480FF2042606EB132749083E785FEABE
:10213000320203FB0667C7F5000707FB06F64FEA06
:1021400054374FEAD64606F1020607FB066CCCF17F
:10215000005C4FEA1C472CEA074C07FB06F40CFB1B
:1021600006F504EB15464FEA961634BF00204FF0F3
:1021700000404FEAD13706FB07FC4FEA1C4C0CFB32
:102180000BF7D21B03FB0CF761EB07010CFB0EF7FF
:10219000B0EB074072EB17420CFB08F734BFA2EB21
:1021A0000742B2EB074261EB17414FEA0C444FEA9A
:1021B000910706FB07FC4FEA1C4C0CFB0BF7B0EB3E
:1021C000C74072EB573203FB0CF734BFA2EBC74298
:1021D000B2EBC74261EB57310CFB0EF7B0EBC70017
:1021E00072EB57720CFB08F734BFA2EBC702B2EBDD
:1021F000C70261EB5771039F4FEA816141EA921177
:1022000004EBCC044FEAD1374FEA826206FB07FCAD
:1022100042EA90124FEA80604FEA1C4C0CFB0BF72D
:10222000D21B03FB0CF761EB07010CFB0EF7B0EBC5
:10223000074072EB17420CFB08F734BFA2EB0742D2
:10224000B2EB074261EB17414FEA8C554FEA910719
:1022500004EB9C2406FB07FC4FEA1C4C0CFB0BF721
:10226000B0EBC74072EB573203FB0CF734BFA2EB65
:10227000C742B2EBC74261EB57310CFB0EF7B0EB34
:10228000C70072EB57720CFB08F734BFA2EBC70212
:10229000B2EBC70261EB577115EB4C254FEA816138
:1022A00041EA92114FEA82624FEAD13742EA901234
:1022B00006FB07FC44F100044FEA80604FEA1C4C27
:1022C0000CFB0BF7D21B03FB0CF761EB07010CFBBC
:1022D0000EF7B0EB074072EB17420CFB08F734BF68
:1022E000A2EB0742B2EB074261EB174115EB1C155D
:1022F0004FEA813141EA92414FEA823242EA90420A
:102300004FEA80304FEA0C7644F1000448EA034378
:102310004EEA0B484FF0000EB2EB080C71EB0307CE
:1023200024BF624639464EEB0E0E4FF0000B0018EC
:10233000524149414BEB0B0BB2EB080C71EB03071D
:102340007BF1000B24BF624639464EEB0E0E4FF078
:10235000000B0018524149414BEB0B0BB2EB080C40
:1023600071EB03077BF1000B24BF624639464EEB4D
:102370000E0E51EA020718BF46F0010616EB0E7664
:1023800055F1000254F1000103D5BDE88901BDE813
:102390000088BDE88901BDE80048B619524141EB0B
:1023A0000101A3F10103704780807F7E7D7C7B7AF1
:1023B0007978777676757473727171706F6E6E6DF1
:1023C0006C6C6B6A6A696868676666656464636397
:1023D00062616160605F5F5E5E5D5D5C5C5B5B5A1D
:1023E0005A5959585857575656555555545453538A
:1023F00052525251515050504F4F4F4E4E4D4D4DE5
:102400004C4C4C4B4B4B4A4A4A494949484848472F
:10241000474747464646454545444444444343436D
:10242000434242424241414146EA0646A3F57053C7
:102430004FEA164646EA42564FEAD22242EA415253
:1024400010B54FEAD121A3F1010300F02FF820F0DD
:10245000004000F1020C00F0004701EB0050114673
:10246000BCF5006F40EA070000D210BDBAF1000FC2
:102470000AD01CB503B44FF004004FF004014FF034
:1024800000000FBCBDE810404FF00001BBF1010F90
:10249000B9BF04484FF0FF310348002140EA07006C
:1024A00010BD00BFFFFFEF7F0000F07F002B9C46B8
:1024B00030D477002BD01CB54FEA370703B44FF068
:1024C00010004FF01001BAF1000F06D0BCF1000F60
:1024D000DCBF40F0080040F008014FF000000FBCE6
:1024E000BDE810400BF1010BBBF1010F08BF5FEA23
:1024F000170722BF12F1010211F101014FF0004153
:1025000043F1000300F0004043EA00007047F9D3B4
:102510005708D0E746EA064613F1400F4FEA164641
:102520001FDD13F1200FDFBF16430A4600212033C1
:102530005B42BED0C3F1200746EA064602FA07F71F
:102540004FEA164646EA0706C3F1200722FA03F2CD
:1025500001FA07F721FA03F14FF0000342EA0702FC
:10256000A7E746EA020646EA06464FEA164646EA64
:102570000106BCBF46EA0646360C4FF000034FF09A
:1025800000024FF0000194E72DE9804C9A469346F3
:1025900070B491E8380007C831EA400C48BF34EA0B
:1025A000430C03D5FFF7A4FDFFF780FFF0BCBDE8A7
:1025B000008C2DE9804C9A46934670B491E838001F
:1025C00007C831EA400C48BF34EA430C03D5FFF793
:1025D0008FFDFFF729FFF0BCBDE8008C2DE9804C92
:1025E0009A46934670B491E8380007C810F0804FBF
:1025F00008BF13F0804F03D100F01AF8FFF756FF21
:10260000F0BCBDE8008C2DE9804C9A46934670B42E
:1026100091E8380007C810F0804F08BF13F0804FD2
:1026200003D100F005F8FFF7FFFEF0BCBDE8008C19
:1026300020F07F4780EA030023F07F4C07EB0C0378
:10264000A3F57C5300F00040A3F1FE0392F0000FCD
:1026500000F0B38095F0000F00F077802DE901497C
:102660004FEA11404FEA144621EA004800FB06FCFD
:1026700024EA064708FB06F607FB08F800FB07F705
:1026800018EB06484CEB164C4FEA124B18EB074878
:102690004FEA15464CEB174022EA0B4E0BFB06FCAB
:1026A00025EA06470EFB06F607FB0EFE0BFB07F7B7
:1026B0001EEB064E4CEB164C4FF000061EEB074E81
:1026C0004CEB174B18EB0B0840F1000018EB0E0B0E
:1026D00058EB000840F100008F1A4FF000013CBF9A
:1026E000C943661B14BFB5EB040C00213CBFC943B2
:1026F000F61B4FEA17444EEA8E0E27EA04454FEACE
:102700001C4704FB07622CEA074C05FB07F70CFB90
:1027100005F604FB0CFC16EB074642EB174216EBE2
:102720000C4642EB1C421BEB060658EB02024141F1
:1027300046EA9E0601D5BDE80189B619524141EB32
:102740000101A3F10103BDE801894FEA14454FEAF5
:10275000114724EA054621EA074C05FB07F406FB6E
:1027600007F70CFB06F105FB0CFC11EB074144EBF2
:1027700017444FEA124711EB0C4144EB1C4422EA88
:10278000074C05FB07F206FB07F70CFB06F605FBFB
:102790000CFC16EB074642EB174216EB0C4642EBDD
:1027A0001C456A1854F1000148BF7047B6195241E0
:1027B00041EB0101A3F10103704795F0000F37D001
:1027C0004FEA11424FEA144721EA024624EA074C35
:1027D00002FB07F106FB07F70CFB06F402FB0CFCFF
:1027E00014EB074441EB17414FEA154714EB0C4437
:1027F00041EB1C4125EA074C02FB07F506FB07F7F6
:102800000CFB06F602FB0CFC16EB074645EB1745E6
:1028100016EB0C4645EB1C42121951F1000148BF62
:102820007047B619524141EB0101A3F10103704712
:102830004FEA14454FEA114724EA054621EA074CBE
:1028400005FB07F106FB07F70CFB06F24FF000064D
:1028500005FB0CFC12EB074241EB174112EB0C425B
:1028600051EB1C4148BF7047921841EB0101A3F1A5
:1028700001037047FEE700002DE9F84FDFF80CB2C6
:1028800004469BF80000012872D181A18148FDF720
:1028900011FD064680A1FDF73BFDDFF804A2814D46
:1028A0004FF080474FF081494FF07E5860B17EA1D4
:1028B0003046FDF72DFD002866D07EA17548FDF756
:1028C00027FD00287ED09EE071A10020FDF7F2FCDC
:1028D00000906FA10020FDF7EDFC02F08BFC02F0F0
:1028E00059FE0646C4F8008075A10098FDF710FD5A
:1028F000E0B175A10098FDF70BFD00B374A100983D
:10290000FDF706FD18B374A10098FDF701FD30B383
:1029100073A10098FDF7FCFC00282AD00098FDF771
:10292000BBFC02F0ABFF6060A660A9E03046C4F8D3
:10293000048002F077FF02460B466BA021E0304690
:10294000676002F06FFF02460B466DA019E030464B
:10295000656002F067FF02460B466FA011E030464B
:10296000C4F8049002F05EFF02460B466FA008E038
:1029700089E03046C4F804A002F054FF02460B463A
:102980006FA002F0B1F9CFE741A10020FDF792FC62
:10299000FDF782FC4FFA80F83DA10020FDF78AFC8C
:1029A000FDF77AFC4FFA80F939A10020FDF782FC8F
:1029B000FDF772FC46B236A10020FDF77BFCFDF767
:1029C0006BFC00E019E045B233464A46414662A03E
:1029D000009502F089F94046276002F04FFF6060E1
:1029E000484602F04BFFA060304602F047FFE0602F
:1029F000284602F043FF206142E00020C4E9005075
:102A00005BA002F071F960A12248FDF781FC20B9BA
:102A1000C4E900585EA002F067F962A11D48FDF705
:102A200077FC20B9C4E9005760A002F05DF964A109
:102A30001848FDF76DFC20B9256063A0656002F0C1
:102A400053F966A11348FDF763FC20B9C4E90059A6
:102A500065A002F049F969A10E48FDF759FC20B9BB
:102A6000C4E9005A69A002F03FF96EA10948FDF7D8
:102A70004FFC28B96F48C4E900506FA002F034F948
:102A800000208BF80000BDE8F88F00002200002035
:102A90002C00000010050020736C69646572000052
:102AA0000000A040000040406A6F79737469636B56
:102AB0000000000053746F70416C6C53686F7700B6
:102AC0004C6D506F730000004C6D56656C0000003B
:102AD0004C6D4B70000000004C6D4B64000000001A
:102AE0004C6D546F720000006A6F79737469636B88
:102AF0003A204C6D506F732C25660D0A00000000C3
:102B00006A6F79737469636B3A204C6D56656C2CEF
:102B100025660D0A000000006A6F79737469636BA3
:102B20003A204C6D4B702C25660D0A006A6F797344
:102B30007469636B3A204C6D4B642C25660D0A005A
:102B40006A6F79737469636B3A204C6D546F722CA1
:102B500025660D0A000000006A6F79737469636B63
:102B60002C25642C25642C25642C25640D0A00007A
:102B7000636F6D6D616E643A2053746F70416C6C5D
:102B800053686F770000000053686F77506F7300D1
:102B9000636F6D6D616E643A2053686F77506F7329
:102BA0000000000053686F7756656C00636F6D6DB1
:102BB000616E643A2053686F7756656C00000000C0
:102BC00053686F77546F7200636F6D6D616E643A16
:102BD0002053686F77546F720000000053686F775E
:102BE000416E676C65000000636F6D6D616E643AE5
:102BF0002053686F77416E676C65000053686F778C
:102C0000416E676C6550494400000000636F6D6D54
:102C1000616E643A2053686F77416E676C65504906
:102C20004400000053686F775370656564504944F1
:102C3000000000000000C040636F6D6D616E643A7B
:102C40002053686F775370656564504944000000F5
:102C5000704772B6FEE7F0B590F820500468A4689B
:102C6000012D05D0022D03D0416A41F4802157E0A7
:102C700014F0406F01D1E5004FD5C4F30164012584
:102C8000A5401D608D684FF4C0739DB1CE6835437B
:102C90004E6845EAC605066803EB0417F5514FF484
:102CA000C275076805EB04150E697E51097D01297F
:102CB00005D009E00E88CD6845EA4655EBE7016886
:102CC0004E5946F480764E511179D579567941EABC
:102CD000056195792D0445EA062529434FF4C6760A
:102CE000056806EB0416A9511178D57841EA05610B
:102CF000957852782D0445EA022211434FF4C475A9
:102D0000026805EB04155151006803EB04114258A9
:102D100042F0010242500020F0BD416A41F400112E
:102D200041620120F0BD000010B590F8203002682B
:102D3000012B07D0022B05D0416A41F4802141626A
:102D4000012010BDD2F8000240F00100C2F80002DC
:102D5000087D00F01F0301209840D2F81C32834305
:102D6000C2F81C32CB69B3B9D2F80C328343C2F833
:102D70000C328C894B6864F31F434C6902EBC4042A
:102D8000C4F840320C890B6864F31F434C6902EBB2
:102D9000C404C4F84432CB69012B16D1D2F80C32EA
:102DA0000343C2F80C320C884B6864F31F434C6930
:102DB00002EBC404C4F840320C89CB6864F31F43AF
:102DC0004C6902EBC404C4F844328B69002BD2F87E
:102DD00004320FD053EA0003C2F804320B69002B0F
:102DE000D2F8143208D00343C2F81432096A012918
:102DF00004D008E08343EFE78343F5E7D2F81C12E1
:102E00000143C2F81C12D2F8000220F00100C2F8FF
:102E10000002002010BD70B5040003D094F820001B
:102E200010B104E0012070BD204600F081F8206858
:102E3000016841F00101016000F046FA05460526EF
:102E400004E000F041FA401B0A2811D820684068CD
:102E5000C007F6D02068016821F00201016000F08F
:102E600033FA05460BE000F02FFA401B0A2806D97A
:102E7000606A40F40030606284F82060D2E7206825
:102E800040688007EFD4207E0128206801683DD08B
:102E900021F080010160607E01282068016838D03F
:102EA00021F040010160A07E01282068016833D034
:102EB00021F020010160E07E0128206801682ED009
:102EC00041F010010160207F01282068016829D0AD
:102ED00021F008010160607F01282068016824D08A
:102EE00021F004010160D4E902010843D4E904128D
:102EF000114308436168491E08432168C8610020E6
:102F00006062012084F82000002070BD41F0800143
:102F1000C0E741F04001C5E741F02001CAE721F0D8
:102F20001001CFE741F00801D4E741F00401D9E7EF
:102F300010B586B0002100910191029103910068C3
:102F40001349884222D11348C16941F00071C1611F
:102F5000C16901F000710491816941F0040181614E
:102F600080690D4C00F0040004904FF40060009064
:102F70006946204600F0AEF8A014009002200190AF
:102F8000032003906946204600F0A4F806B010BD67
:102F900000640040001002400008014070B5044683
:102FA00090F82000012804D0606A40F4002060629C
:102FB00018E0022084F820002068016821F0010157
:102FC000016000F081F905460EE000BF00F07CF9D9
:102FD000401B0A2808D9606A40F40030606205206E
:102FE00084F82000012070BD20684068C007EDD142
:102FF000606270BD10B590F821100022022905D042
:103000000421816380F82020012010BD01680B6835
:1030100023F00E030B6001680B6823F001030B60C3
:1030200090F84030C46B012101FA03F3636080F82B
:10303000211080F82020104610BD000010B590F837
:1030400021100024022903D00421816301243DE0E2
:1030500001680A6822F00E020A6001680A6822F01C
:1030600001020A601A4A0168914201D1012121E05E
:10307000174A1432914201D110211BE0144A283220
:10308000914201D1891515E0114A3C32914201D19A
:1030900089140FE00E4A5032914202D14FF4803130
:1030A00008E00B4A6432914202D14FF4801101E0F2
:1030B0004FF08071064A083A5160012180F82110D2
:1030C000002180F82010416B01B18847204610BDD7
:1030D000080002402DE9F84FDFF8B8910024A9F16B
:1030E000040B23460F2709F1040AABF1040EC9E0D3
:1030F0000125A5402A40AA427DD1674ED1F804C0DF
:10310000ACEB0608B44532D014DCBCF1030F3AD066
:1031100009DCBCF1000F2AD0BCF1010F1CD0BCF1BE
:10312000020F31D11DE0BCF1110F17D0BCF1120F0D
:103130002AD119E0B8F5881F19D006DCB8F5803F10
:1031400015D0B8F5801F1FD111E0B8F5001F0ED0C3
:10315000B8F5041F18D10AE0CB6815E0CB681B1D39
:1031600012E0CB6808330FE0CB680C330CE08B68BF
:103170002BB1012B4FF0080303D0456104E0042379
:1031800002E0056100E00023FF2A01D8064601E0C5
:1031900000F104064FEA840501D9A5F12005D6F80F
:1031A000008007FA05FC28EA0C0803FA05F548EA4E
:1031B0000508C6F800804D68ED0062D5374DAE6950
:1031C00046F00106AE61AD6924F0030605F0010585
:1031D0000095334D06EB050CDCF80850A607360FBA
:1031E00007FA06F825EA0805DFF8B880404503D15C
:1031F0004FF0000817E044E0DFF8AC80404502D112
:103200004FF001080FE0DFF8A480404502D14FF0F5
:10321000020808E0DFF89880404502D14FF003082B
:1032200001E04FF0040808FA06F848EA0508CCF86F
:1032300008804D68D9F80060ED024D4601D516436F
:1032400000E096432E604D68DAF80060AD02554606
:1032500001D5164300E096432E604D68DBF8006010
:10326000AD035D4601D5164300E096432E604D68E0
:10327000DEF80060ED03754601D5164300E0964385
:103280002E60641C0D682A46E5407FF431AFBDE82E
:10329000F88F0000080401400000111000100240E7
:1032A0000000014000080140000C014000100140F6
:1032B000001401408068084000D0012070470AB126
:1032C000016170470904FBE701488068704700000E
:1032D0001000002002488168027811448160704724
:1032E00010000020074810B5016841F0100101608E
:1032F000032000F075F80F2000F006F800F024F825
:10330000002010BD0020024070B50D4D04464FF462
:103310007A712878B1FBF0F00A490968B1FBF0F046
:1033200000F0DCFA48B9102C07D200222146501ECA
:1033300000F036F800206C6070BD012070BD000008
:10334000100000201C0000200C4808B5816941F0E5
:1033500001018161816901F001010091C16941F0C0
:103360008051C161C06900F08050009004484168FC
:1033700021F0E06141F00071416008BD00100240A1
:1033800000000140002809DB00F01F0201219140EC
:103390004009800000F1E020C0F8001170470000F3
:1033A000F0B40E4B1B680C46C3F30223C3F10705B0
:1033B000042D00D90425191D072901D2002300E09E
:1033C000DB1E012606FA05F1491E214099409E4068
:1033D000761E16403143F0BC01F075BE0CED00E0E6
:1033E000064900F0070208684FF6FF03184040EA5C
:1033F0000220034A10430860704700000CED00E013
:103400000000FA052DE9F0470F46050061D0434E54
:10341000306800F00700B84209D2306820F0070099
:1034200038433060306800F00700B84251D1286856
:103430003B4C810712D5400703D5606840F4E0603B
:1034400060602878000703D5606840F460506060D1
:103450006068A96820F0F000084360602878C00721
:1034600028D06868012810D02168022810D0890768
:1034700000292EDA616821F0030101436160FFF742
:1034800023FF804641F288390DE021688903EFE788
:103490008901EDE7FFF718FFA0EB0801494502D9C4
:1034A0000320BDE8F0876068696800F00C00B0EBAD
:1034B000810FEFD1306800F00700B8420BD93068B7
:1034C00020F0070038433060306800F00700B84251
:1034D00001D00120E5E72878400705D56068E96854
:1034E00020F4E060084360602878000706D5606833
:1034F000296920F4605040EAC100606000F038F8AB
:103500006168084AC1F30311515CC840064908606C
:1035100006480068FFF7F8FE0020C2E700200240DE
:10352000001002405E5A00081C0000201400002019
:103530000448054900684968044AC1F30221515C06
:10354000C84070471C000020001002406E5A00085E
:103550000448054900684968044AC1F3C221515C26
:10356000C84070471C000020001002406E5A00083E
:103570000E4A51680E4801F00C03042B11D0082BA1
:103580000FD10C48C1F38343C903C05C0AD551680D
:10359000084AC1F34041921E515C054A5043B0FBBA
:1035A000F1F07047044948437047000000100240A2
:1035B00000127A004E5A000800093D002DE9F84F2C
:1035C000040070D02078C04DC00749D06868C0F3AF
:1035D0008100012807D06868C0F38100022809D162
:1035E0006868C00306D52868800339D5606800285C
:1035F000E7D035E06068B0F5803F0BD010B1B0F592
:10360000A02F11D0286820F480302860286820F48A
:10361000802002E0286840F480302860606890B123
:10362000FFF752FE06460AE0286840F48020286032
:10363000F0E700BFFFF748FE801B642873D82868B6
:103640008003F7D50CE0FFF73FFE064605E000BF1C
:10365000FFF73AFE801B6428F0D828688003F7D46F
:1036600020789A4E80074FF001094FF0000839D5B5
:10367000686810F00C0F07D06868C0F3810002285A
:1036800009D16868C00306D42868800714D520696A
:10369000012808D110E02069B0B1C6F80090FFF70A
:1036A00013FE074605E00AE1FFF70EFEC01B0228E5
:1036B000C4D828688007F7D52868616920F0F80029
:1036C00040EAC10028600DE0C6F80080FFF7FCFD6D
:1036D000074604E0FFF7F8FDC01B022823D828683E
:1036E0008007F7D4207800072CD57948A169D9B193
:1036F000C0F80090FFF7E8FD074604E0FFF7E4FD9F
:10370000C01B02280FD8686A8007F7D571484FF4AC
:10371000FA510068B0FBF1F0009000BF0098411E24
:103720000091FAD20EE080E0C0F80080FFF7CCFDF7
:10373000074604E0FFF7C8FDC01B022875D8686A79
:103740008007F7D42078400760D5E8690027C000DB
:1037500008D4E86940F08050E861E869012700F08A
:10376000805000905C480168C90513D40168834605
:1037700041F480710160FFF7A7FD824606E000BFBB
:10378000FFF7A2FDA0EB0A0064284ED8DBF800008A
:10379000C005F5D5E06801280AD008B1052813D086
:1037A000286A20F001002862286A20F0040002E064
:1037B000286A40F001002862E06841F2883B98B135
:1037C000FFF782FD82460BE0286A40F00400286281
:1037D000EEE700BFFFF778FDA0EB0A0159455AD884
:1037E000286A8007F6D50CE0FFF76EFD824605E0FB
:1037F000FFF76AFDA0EB0A0159454CD8286A8007FB
:10380000F6D41FB1E86920F08050E861E06988B320
:103810006968C1F38101022944D00228C6F860809A
:1038200004D0FFF751FD044638E034E0FFF74CFDCB
:10383000074604E0FFF748FDC01B02282BD8286884
:103840008001F7D4206AB0F5803F05D16868A1688F
:1038500020F4003008436860D4E90801084369682F
:1038600021F4741108436860C6F86090FFF72CFDDE
:10387000044606E025E000BFFFF726FD001B0228F6
:1038800009D828688001F7D51BE000BFFFF71CFDB1
:10389000001B022802D90320BDE8F88F28688001A8
:1038A000F4D40EE00128F7D06868226A00F4803171
:1038B000914204D1616A00F47010884201D0012065
:1038C000EAE70020E8E70000001002400000424262
:1038D000800442421C0000200070004010B5401ED1
:1038E000B0F1807F01D3012010BD4FF0E024606172
:1038F0000F21601701F0E7FB0020A0610720206185
:10390000002010BD7047704770B590F83C20012A28
:1039100026D0012480F83C40022280F83D20036834
:103920005A689D6822F070060A6832435A600D4B4F
:1039300002689A4208D0B2F1804F05D00A4B9A42F1
:1039400002D00A4B9A4204D1496825F080031943FA
:10395000916080F83D40002180F83C10084670BD21
:10396000022070BD002C014000040040000800400F
:1039700010B5040003D094F83D0010B107E0012019
:1039800010BD002084F83C00204600F01FF8022003
:1039900084F83D00211D206801F000FA012084F820
:1039A000460084F83E0084F83F0084F8400084F824
:1039B000410084F8420084F8430084F8440084F80D
:1039C000450084F83D00002010BD000008B50068E7
:1039D0000B49884212D10B48816941F40061816131
:1039E0008069002200F40060009001211920FFF797
:1039F000D7FCBDE808401920FFF7C4BC08BD000093
:103A0000002C01400010024090F83D10012901D027
:103A100001207047022180F83D100168CA6842F019
:103A20000102CA6000680B49884208D0B0F1804F9B
:103A300005D00949884202D00849884204D18168EA
:103A400001F00701062903D0016841F0010101607E
:103A500000207047002C0140000400400008004096
:103A600070B5044690F83C000025012817D00126C7
:103A700084F83C60022084F83D002068826822F0CF
:103A8000770222F47F4282600868502838D00DDC2B
:103A900020284FD005DC90B3102811D14AE0022035
:103AA00070BD302846D040280AD13BE060282FD096
:103AB00070280DD0B0F5805F03D0B0F5005F12D054
:103AC000012584F83D60002084F83C00284670BD44
:103AD000CB68D1E90121206801F09CF92068816858
:103AE00041F0770109E0CB68D1E90121206801F0BC
:103AF00091F92068816841F480418160E1E719E033
:103B0000CA684968206801F097F95021206806E0EA
:103B1000CA684968206801F0A0F96021206801F0B6
:103B200083F9CEE7CA684968206801F085F9402129
:103B30002068F4E7226801461046F0E770472DE957
:103B4000F04104460068C66805694FF00007A90700
:103B500013D5B10711D5F91E016101202077206826
:103B600080698007204602D0FFF7E8FF04E000F0FC
:103B70007EF8204600F07CF82777680716D5700796
:103B800014D521686FF004000861022020772068B6
:103B9000806910F4407F204602D0FFF7CFFF04E099
:103BA00000F065F8204600F063F82777280715D560
:103BB000300713D521686FF00800086104202077D2
:103BC0002068C0698007204602D0FFF7B7FF04E0F5
:103BD00000F04DF8204600F04BF82777E80616D5A0
:103BE000F00614D521686FF01000086108202077D6
:103BF0002068C06910F4407F204602D0FFF79EFF86
:103C000004E000F034F8204600F032F82777E807A7
:103C100008D0F00706D021686FF001000861204647
:103C200000F028F8280608D5300606D521686FF080
:103C3000800008612046FFF765FE680608D570061B
:103C400006D521686FF040000861204600F01CF89E
:103C5000A8060AD5B00608D521686FF020000861D3
:103C60002046BDE8F041FFF74EBEBDE8F081704749
:103C70007047000000680349884201D100F0B2BAE1
:103C800070470000002C01407047704770470000EB
:103C9000F8B5016804460868CA684B6910F00F0F50
:103CA0004FF0000559D003F0010602F49077374336
:103CB00065D0C10705D0D10503D5616C41F0010184
:103CC0006164410705D5D90703D0616C41F0020159
:103CD0006164810705D5D90703D0616C41F0040107
:103CE0006164010707D502F02001314303D0616C04
:103CF00041F008016164616C00293AD0800604D566
:103D0000900602D5204601F0E9F820684069616C10
:103D1000C0F38010090700D460B3204601F0B7F863
:103D200020684069400621D52068143050E8001F03
:103D300021F0400140E80012002AF5D1E06BA8B163
:103D40006D494163E06BFFF779F9002811D0E06B12
:103D5000416B01B0BDE8F040084783060FD59306DC
:103D60000DD52046BDE8F84001F0B8B82046FFF771
:103D70008DFFF8BD2046FFF789FF6564F8BD266B0F
:103D80002023012E7CD1C6067AD5D60678D50868C0
:103D90004868009048694FF00206400640D5E16B44
:103DA000086840680004000CE8D0A28D8242E5D982
:103DB000E085886920282DD020680C3050E8001F4D
:103DC00021F4807140E80012002AF5D120681430F7
:103DD00050E8001F21F0010140E80012002AF5D14F
:103DE0002068143050E8001F21F0400140E8001224
:103DF000002AF5D184F84230256320680C3050E861
:103E0000001F21F0100140E80012002AF5D1E06BFC
:103E1000FFF7F0F86663A08DE18D401A81B22AE0C9
:103E2000A08DE18D401A81B2E08D0028A6D0002936
:103E3000A4D022680C3252E8000F20F4907042E8BF
:103E40000007002FF5D12068143050E8002F22F031
:103E5000010240E80027002FF5D184F842302563A5
:103E600020680C3050E8002F22F0100240E80023B8
:103E7000002BF5D166632046FFF707FFF8BDFFE78B
:103E800005062BD5150629D594F841002128F5D132
:103E9000A068B0F5805F01D12069B0B1206A411CF3
:103EA0002162216800784860E08C401E0004000C0C
:103EB000E084E3D12068C16821F08001C1602068FE
:103EC000C16841F04001C160D8E7206A0088C0F3B2
:103ED00008004860206A801C2062E5E74006CDD5D6
:103EE0005006CBD5CA68204622F04002CA6084F84A
:103EF000413000F0B7F8C1E77F4E000870B504000C
:103F000004D094F84100002510B106E0012070BDF6
:103F100084F84050204600F023F8242084F8410023
:103F20002068C16821F40051C160204601F038F8D2
:103F30002068016921F4904101612068416921F004
:103F40002A0141612068C16841F40051C160656483
:103F5000202084F8410084F842006563002070BD91
:103F600030B585B000240094019402940394006855
:103F7000194988422DD11948816941F480418161F4
:103F8000816901F480410491816941F004018161FA
:103F90008069134D00F0040004904FF4007000900D
:103FA000022001900320039069462846FFF792F80B
:103FB0002815CDE900040120029069462846FFF744
:103FC00089F8002202212520FFF7EAF92520FFF7D2
:103FD000D9F905B030BD00000038014000100240A2
:103FE0000008014090F84230202B01D00220704799
:103FF00021B11AB10023036301F02EB801207047EC
:10400000154930B4884224D1144800230124C278D1
:10401000017811B1012907D010E05B2A0ED1817817
:1040200061B90470437009E00C490D4D5D2A49786F
:104030000BD0632902D26A54491C417007490122FE
:1040400030BCC91C0448FFF7CDBF03706B548470AB
:10405000F4E730BC70470000C800002020000020BA
:10406000100500207047FEE710B54FF400610348CB
:10407000FFF720F9012800D0002010BD000C0140FE
:1040800010B5012000F072F8012000F063F8FFF78E
:10409000EBFF0446002000F05DF8204610BD70B52F
:1040A0000025012000F062F800248026012000F0A5
:1040B00051F8FFF7D9FF10B126FA04F005430020AC
:1040C00000F048F8641CE4B2082CEFD3284670BD19
:1040D00010B558B15FF0000000F048F8012000F082
:1040E00039F8BDE81040002000F034B80120F3E7B3
:1040F00070B500240646802525FA04F0304000D033
:10410000012000F033F8012000F024F8002000F036
:1041100021F8641CE4B2082CEED370BD10B5012068
:1041200000F024F8012000F015F8002000F01EF83F
:10413000BDE81040002000F00DB810B5002000F0E0
:1041400015F8012000F006F8BDE81040012000F04D
:104150000DB8000008B1012200E000224FF4806198
:104160000148FFF7ACB80000000C014008B1012283
:1041700000E000224FF400610148FFF7A0B8000002
:10418000000C0140064B10B51A5C0A4205D001290B
:1041900001D08A431A54012010BD002010BD000038
:1041A0003200002010B538B10C4A012808D002288E
:1041B0000DD003280DD008E04FF40041084801E07D
:1041C000082107E0FFF776F830B1002010BD10217C
:1041D00000E020211046F5E7012010BD000C014051
:1041E000000801402DE9F05F4F4C002204F1120558
:1041F0006270607835F8101011B1491E25F8101062
:10420000401CC0B260700428F3D32078401CC0B2B8
:104210002070142872D3444F2270BF1D3E1F924657
:104220001046627006F10C0806F108094FF0640BA5
:10423000C0B2315C3954FFF7B5FF617801284246BE
:10424000705418F8013004D023F00103535458B1CE
:1042500013E043F00103535417F801C0BCF1000F01
:104260000BD143F0020306E017F801C0BCF1010FC7
:1042700003D143F0040308F8013019F8013043B1C9
:10428000012B0ED0022B1DD0032B30D0042B30D0AD
:1042900043E0012841D14FF4FA6025F811000120D4
:1042A00039E018B135F8110028B136E0C82025F8FA
:1042B000110002202FE025F811B018F8013043F06A
:1042C000200325E0012803D035F8110040B124E097
:1042D00018F80130032043F0100308F801301AE009
:1042E00018F8013043F0080308F8013007E030B156
:1042F00013E020B135F8110020B10EE012E009F80A
:1043000001A00AE025F811B018F8013043F040038D
:1043100008F80130042009F80100491CC8B2607097
:10432000042885D3BDE8F09F24000020002202214C
:104330000148FEF7C4BF000000080140012202212D
:104340000148FEF7BCBF0000000801400022012127
:104350000148FEF7B4BF00000008014001221146E9
:104360000148FEF7ACBF00000008014000224FF4F6
:1043700000710148FEF7A3BF000C01400122510269
:104380000148FEF79CBF0000000C01402DE9FF47EB
:104390001546DDE90C890E4607461C460E22694685
:1043A0003B2000F039F8BDF8000040BA3880BDF875
:1043B000020040BA3080BDF8040040BA2880BDF841
:1043C000080040BA2080BDF80A0040BAA8F80000F2
:1043D000BDF80C0040BAA9F80000BDE8FF8710B591
:1043E00000F0A8F901216B2000F044F800216C20B6
:1043F00000F040F80F21192000F03CF800211A20AD
:1044000000F038F818211B2000F034F81821BDE81E
:1044100010401C2000F02EB82DE9F04115460E4644
:104420000446FFF77BFED020FFF762FEFFF728FE71
:104430002046FFF75DFEFFF723FEFFF76FFED1205A
:10444000FFF756FEFFF71CFE00246F1E0CE000BFB6
:10445000FFF725FE3055BC4201DA012000E00020C4
:10446000FFF736FE641CE4B2AC42F1D3BDE8F04184
:10447000FFF763BE70B50D460446FFF74FFED02030
:10448000FFF736FEFFF7FCFD2046FFF731FEFFF792
:10449000F7FD2846FFF72CFEFFF7F2FDBDE8704060
:1044A000FFF74BBE0F4810B50D4901600321416075
:1044B00000214FF4E0228160C0E903124FF40012A2
:1044C0004261017641768176C17601774177FEF7C8
:1044D000A2FC002803D0BDE81040FEF7BABB10BD17
:1044E00000640040580000202DE9F04385B000240E
:1044F00031480094019402940394816941F01001C1
:104500008161816901F010010491816941F020010C
:104510008161816901F020010491816941F0040108
:104520008161816901F004010491816941F0080110
:1045300081618069DFF8848000F008000490002227
:1045400003214046FEF7BBFEDFF8749000224FF4D3
:104550007C614846FEF7B3FE032602270125039738
:104560000096CDE9015469464046FEF7B3FD4FF48D
:104570004C60009001AA112082E85100694648462B
:10458000FEF7A8FDE8038DE8310069464046FEF7D6
:10459000A1FD38208DE8310069464846FEF79AFDB6
:1045A0003002CDE90005CDE9024769464846FEF7ED
:1045B00091FD05B0BDE8F083001002400008014005
:1045C000000C014010B586B00024174800940194F7
:1045D0000294039404941349059401604721C0E9AF
:1045E00001144FF47A71C0E9031444618461FFF748
:1045F000BFF908B1FEF72DFB4FF4805000906946DB
:104600000948FFF72DFA08B1FEF723FB049404A92B
:1046100005480594FFF778F9002801D0FEF719FB4B
:1046200006B010BD002C0140800000200C4810B5E1
:104630000A4901604FF416514160002181600C224B
:10464000C160C0E904128161C161FFF757FC002815
:1046500003D0BDE81040FEF7FCBA10BD00380140A1
:10466000C8000020FEE7000000B58BB02821684696
:10467000FBF726FE00200121CDE9060103900590FD
:104680000090019002900891049069460748FEF757
:104690004BFB08B1FEF7DDFA0448FEF77FFC00286B
:1046A00001D0FEF7D6FA0BB000BD00005800002084
:1046B00010B588B00024CDE900040294CDE903418F
:1046C0008DF8144006AB69461848FEF7C4FA002876
:1046D00012D117481549069AA2B1012A1ED0022A02
:1046E0000AD109688A68D20302D4641C8442F9D9C9
:1046F000886840F48030886008B010BD641C844233
:1047000001D903E009688A68D207F7D0886840F0C9
:104710000100F0E7641C844201D903E009688A685B
:10472000D205F7D5886840F48070E4E7580000208F
:1047300040420F00134810B5816986B041F008016E
:1047400081618069104C00F0080004900020029004
:1047500011200190032003904FF48060009069467F
:104760002046FEF7B7FCE014009069462046FEF7AD
:10477000B1FC0120FFF7EEFC0120FFF7F7FC06B0CB
:1047800010BD000000100240000C0140FEE70000D8
:1047900010B50021074C0A46002004EBC1131A543F
:1047A000401CC0B28028FAD3491CC9B20829F3D3EF
:1047B00010BD000010010020F0B50B4424E00446B9
:1047C00085181DE07F2C19D8002917DB3F2915DC3F
:1047D000CE1701EB56764FEAE60C0D4F26F0070692
:1047E00007EBCC172744A1EB060E97F800C0012673
:1047F00006FA0EF62CEA060C87F800C0641C24B2F8
:10480000A542DFDC491C09B28B42D8DCF0BD0000B8
:104810001001002000B585B000214FF47A7200200D
:10482000401C9042FCD3491C9142F8D30E48816948
:1048300041F0080181618069694600F00800049038
:1048400000200290C02000901120019003200390CE
:104850000648FEF73FFC012000F0FCF9012000F0C3
:1048600003FA05B000BD000000100240000C01403A
:1048700070B500240646802525FA04F0304000D0AB
:10488000012000F0F1F9012000F0E4F9002000F02F
:10489000E1F9641CE4B2082CEED3012000F0DAF94F
:1048A000BDE87040002000F0D5B910B5012000F03F
:1048B000DBF9012000F0CEF9002000F0D5F9BDE8C9
:1048C0001040002000F0C6B910B5002000F0CCF96F
:1048D000012000F0BFF9BDE81040012000F0C4B98C
:1048E00010B5FFF797FFAE2000F0C8F9D52000F013
:1048F000C5F9802000F0C2F9A82000F0BFF93F20E0
:1049000000F0BCF9D32000F0B9F9002000F0B6F9AE
:10491000402000F0B3F9A12000F0B0F9C82000F069
:10492000ADF9DA2000F0AAF9122000F0A7F98120F1
:1049300000F0A4F9CF2000F0A1F9D92000F09EF9F1
:10494000F12000F09BF9DB2000F098F9302000F016
:1049500095F9A42000F092F9A62000F08FF98D209F
:1049600000F08CF9142000F089F9AF2000F086F9EE
:10497000FFF70EFFBDE8104000F058B90FB470B556
:10498000C0B014460D46064648AA68464799FBF74C
:1049900071FC23466A462946304600F091F840B043
:1049A00070BC5DF814FB10B50C4640F0B00000F090
:1049B00065F9102040EA141000F060F904F00F00CF
:1049C000BDE8104000F05AB908B5082B0DD0062BF1
:1049D0000AD10A4B02EB420203EB4202C03A0092B8
:1049E0000823062200F00EF808BD054B03EB021267
:1049F000A2F50072102300920822F3E76660000817
:104A0000765A00082DE9F04F1F4616460D4682469D
:104A10000024FFF7D1FE7F1EF81707EB507001212D
:104A2000DFF898B001EBE00743E000203DE000BF75
:104A30000AEB00037F2B36D8E91705EB5171CA103A
:104A400021F00701691A002D03DA521E083112B253
:104A500009B202EB0409B9F1070F0ED8099A04FB59
:104A600006F802440BEBC91E18F802201EF803C01A
:104A70008A404CEA020C0EF803C009F10102072A31
:104A800011D80BEBC91202EB0308099A04FB06FCD0
:104A9000024498F880301CF80220C1F10801CA4095
:104AA000134388F88030401CC0B2B042C0D3641CAD
:104AB000E4B2A742B9DCBDE8F08F0000100100208D
:104AC0002DE9FF4F002483B09B4690462546A24621
:104AD000DFF850919EE0100610D403988DF8042062
:104AE000641C2844A4B28DF805A000B25B4604996A
:104AF000FFF76AFF05EB0B0085B28BE00620B0EBF9
:104B0000521F0ED1641CA0B28DF8042018F80010BA
:104B1000002974D08DF80510401C84B28DF806A0D1
:104B20003CE00E20B0EB121F16D1641CA0B28DF831
:104B3000042018F80010002971D0401C80B28DF8B4
:104B4000051018F80010002969D08DF80610401CD7
:104B500084B28DF807A021E01E20B0EBD20F1FD148
:104B6000641CA0B28DF8042018F80010002956D05B
:104B7000401C80B28DF8051018F8001000294ED0A6
:104B8000401C80B28DF8061018F80010002946D09D
:104B9000401C8DF8071084B28DF808A0002609E0AB
:104BA000641CA4B236E0384601A9FBF7B1FB68B13A
:104BB000761CB6B206EB860000EB461101EB09004D
:104BC000074619A1FBF7A4FB0028ECD1BBF1080FA5
:104BD00003D0BBF1060F1DD112E006EB860000EBFF
:104BE000461101EB0900401D009003981023284452
:104BF00000B21A460499FFF705FF103509E00EE0F0
:104C000003980623284400B23F220499FFF7DCFEF4
:104C1000AD1DADB218F80420002A7FF45CAF07B0D8
:104C2000BDE8F08FA06200080000000070B5084DDC
:104C3000002400212046FFF7B6FE05EBC4108021BA
:104C400000F02DF8641CE4B2082CF2D370BD000013
:104C50001001002008B1012200E00022402101489B
:104C6000FEF72DBB000C014008B1012200E000223C
:104C700080210148FEF723BB000C014010B504461B
:104C8000FFF713FE7820FFF7F3FD0020FFF7F0FD9C
:104C90002046FFF7EDFDBDE81040FFF715BE70B5EB
:104CA0000D460646FFF701FE7820FFF7E1FD4020A4
:104CB000FFF7DEFD002404E0305DFFF7D9FD641C42
:104CC000E4B2AC42F8D3BDE87040FFF7FDBD7047D9
:104CD00070470000012202490248FFF783B9000033
:104CE00023000020C80000200FB400B599B01BAA13
:104CF00068461A99FBF7BEFA684600F00DF819B03D
:104D00005DF814FB03490A681206FCD50149091D28
:104D1000086070470038014000B5034602E05B1CA4
:104D2000FFF7F0FF18780028F9D100BDFEF7D2BADE
:104D300030B58FB028216846FBF7C2FA14210AA8C3
:104D4000FBF7BEFA01210804CDE90010002402940B
:104D500002250491CDE907504FF4E0100990684610
:104D6000FEF72CFC08B172B6FEE70F20CDE90A056C
:104D70004FF48060CDE90C4002210AA80E94FEF7A2
:104D800041FB002801D072B6FEE70FB030BD70477E
:104D90000148FEF7D4BE000080000020F0B5026894
:104DA000194B1A4C1A4D4FF08047984205D0B84223
:104DB00003D0A04201D0A84203D122F070064A6875
:104DC0003243984205D0B84203D0A04201D0A84255
:104DD00003D122F44074CA6822434C6922F0800255
:104DE000224302608A68C2620A688262984201D1E4
:104DF00009690163012141610169C90703D00169A2
:104E000021F001010161F0BD002C014000040040CF
:104E10000008004010B5846842EA032224F47F446D
:104E20000A432243826010BD826822F070020A4366
:104E300042F007018160704710B5036A046A24F0EC
:104E400001040462846924F0F00444EA021423F0AB
:104E50000A020A438461026210BD10B5036A046A43
:104E600024F010040462846923F0A00324F4704445
:104E700044EA023243EA01118261016210BD10B5B9
:104E8000406A0021C185C184FEF700FF10BD0168A2
:104E90000C3151E8002F22F4907241E80023002BDE
:104EA000F5D10168143151E8002F22F0010241E8E8
:104EB0000023002BF5D1016B012909D101680C31C8
:104EC00051E8002F22F0100241E80023002BF5D119
:104ED000202180F8421000210163704708B590F846
:104EE0004210222901D0022008BD82684FF480536D
:104EF0009A4201D1016921B1816A9A421BD04AB11B
:104F00000AE00268816A5268C2F308020A80816A74
:104F1000891C08E0026972B10268526802F07F02DF
:104F20000A70816A491C8162C18D491E0904090CFD
:104F3000C18503D01BE002685268F1E70168CA68C6
:104F400022F02002CA600168CA6822F48072CA6036
:104F500001684A6922F001024A61202180F842106A
:104F600000214163026B012A03D0FFF749F80020BA
:104F700008BD016301680C3151E8002F22F01002D6
:104F800041E80023002BF5D101680A68D20602D55A
:104F90000A6849680091818DFEF777FEE7E7000017
:104FA00070B5044600680169E26821F4405111437C
:104FB00001612169A0680843616908432168CA68E2
:104FC00041F20C639A430243CA6020684169A269B6
:104FD00021F44071114341611E492068884202D189
:104FE000FEF7B6FA01E0FEF7A3FA00EBC00101EB11
:104FF0000012606864218000B2FBF0F3B3FBF1F3B0
:105000006FF018067343B2FBF0F5B2FBF0F605EB58
:105010008305322303EB0515B5FBF1F5B6FBF1F67D
:1050200005F0F00505EB0615B2FBF0F6B2FBF0F06B
:10503000B0FBF1F06FF01802504306EB800003EB79
:105040000010B0FBF1F0216800F00F0028448860E8
:1050500070BD00000038014081628285C285002158
:105060004164222180F84210016921B10168CA68B7
:1050700042F48072CA6001684A6942F001024A61E2
:105080000068C16841F02001C16000207047000045
:105090000148FEF7FDBD0000C8000020FEE7490002
:1050A00050EAC12018BF04204A0D18BF40F001008B
:1050B00040F2FF72B2EB515F08BF40F002000128DE
:1050C00008BF052070470907090E002804DB00F11E
:1050D000E02080F80014704700F00F0000F1E0209D
:1050E00080F8141D704740F2013200204FF0E0417B
:1050F00000F060BC024A0020110700F05BBC000019
:1051000001FDFFFF10B50446D1E9000100F002F8EF
:10511000206010BDF8B504460D466A4600F0EAF876
:1051200000987E30009000281EDC002213462046A6
:10513000294600F075FA17D0002140F608004FF01C
:10514000000006462046294600F024FA044640F6B0
:10515000080006EA00014FF0000034F0004004BFF0
:105160000220FBF722F929E00098FF2828DB002124
:1051700008464FF0000000F4400600221346204687
:10518000294600F019FB8CBF002501250220FBF702
:105190000CF94FF0FF4446B1002D0CBF4FF4000056
:1051A0004FF48000B04218BF084C042108464FF06D
:1051B0000000002D04BF84F00040F8BD2046F8BD7B
:1051C00020462946BDE8F84000F0E4B9FFFF7F7FA4
:1051D00010B504460A46D4E90003194600F0B6F8B3
:1051E000C4E9000110BD30380A2801D201207047FF
:1051F0000020704730B583B00446FBF7D1F8054670
:105200000020CDE90000024621466846FBF7A4FBDA
:105210002846FBF7CAF8DDE9000103B030BD000005
:105220001CB506A30844D3E90023CDE9002380B2CE
:105230006A460821FFF73CFA1CBD0000FFFFFFFF94
:10524000FFFFFFFD00218165416541648164C16408
:105250000165704710B5044690F84000012806D05B
:10526000022807D003280FD0042808D110E0208896
:10527000002102E020884FF48071FFF7D1FF204623
:10528000BDE81040FFF7DEBF20884FF40071F4E75F
:1052900020884FF44071F0E790F8401001290BD0BE
:1052A00002290CD003290ED0042910D100884FF414
:1052B000407100BF00F00CB800880021FAE70088B8
:1052C0004FF48071F6E700884FF40071F2E7704701
:1052D0001CB506A30844D3E90023CDE9002380B21E
:1052E0006A460821FFF7E4F91CBD0000FFFFFFFF3D
:1052F000FFFFFFFC10B5144600222260114A21F086
:1053000000439342A8BF10BD53EA000208BF10BD7E
:10531000B3F5801FA8BF226807DA362200F04AFBE7
:105320006FF0350221F000432260DFF81CC06FF3FC
:105330001E510CEB23531A4441F0FF5141F0005130
:10534000226010BD0000F07F02FCFFFF2DE9F0415C
:1053500006460C4640F2FF75174635EA14502BD02E
:1053600000221346304600F05BF925D03A4630461D
:10537000214600F01FFB06460C4635EA145010D0BB
:1053800000221346304600F04BF915D10220FBF7FE
:105390000CF8FFF7AFFE0A46214662F31E01BDE896
:1053A000F0810220FBF701F8FFF79DFE0A46214637
:1053B00062F31E01BDE8F08130462146BDE8F08170
:1053C0001CB5FDF78FFF5348416821F0E06141F0C3
:1053D00000714160FFF7ACFCFFF786F8FFF762F859
:1053E000FFF724F9FFF7EEF8FFF77AFAFEF7F7FF79
:1053F000FFF770FCFFF738F94748FEF705FB484C0C
:1054000046480121E060018080F8401000210162DF
:105410004162444D04F10A06B71E81620221002058
:10542000FEF7B0FE28B1FEF789FFE068FFF734FF12
:1054300001E0FEF77BFF02210120FEF7A3FE10B181
:10544000FEF78CFF01E0FEF781FF02210846FEF720
:1054500099FE28B1FEF792FFE068FFF7FBFE01E03E
:10546000FEF784FF2878012802D12F48FDF704FABF
:105470002B4BCDE900769B1D9A1E911E881EFEF7D0
:1054800085FF208900214042723820812088062330
:1054900040422080A08825A24042A0800846FFF715
:1054A0000FFBB4F90000009022A306222021402027
:1054B000FFF764FAB4F9020000901EA30622282127
:1054C0004020FFF75BFAB4F90400009019A306220C
:1054D00030214020FFF752FAB4F90600009015A3DE
:1054E000062220216020FFF749FAB4F90800009055
:1054F00010A3062228216020FFF740FAB4F90A0021
:1055000000900CA3062230216020FFF737FAFFF746
:105510008DFB83E70000014080000020740500201F
:1055200000000020220000204400002048656C6C30
:105530006F000000253035640000000010B5002920
:105540000AD00878002807D005487844FAF7E0FE2A
:10555000002801D0002010BD0248784410BD000092
:10556000AA0E0000A20E000010B500290AD008788B
:10557000002807D005487844FAF7CAFE002801D071
:10558000002010BD0248784410BD00009A0E0000B3
:10559000920E000021F00042A2F16052B2F5801F8D
:1055A00001F0004328BFD2F17F6C0BD95FEA001CE9
:1055B00043EAC20242EB507018BF704728BF20F088
:1055C00001007047B2F5801FBCBF184670474FEA14
:1055D000410C1CF5001F02D2084600F0ADB970B5B1
:1055E00000F096F800000089FFF7F6BF4FF000408A
:1055F000A0F580007047000002494FF0000000F065
:10560000A7B900BF0000F87F491058BFC1F1404161
:105610005B1058BFC3F140438B42EFF300807047EB
:1056200051EA030C17D41CF5801F58BFBCF5801F2E
:1056300000F10680994218BF704708BF904270473A
:1056400007D711F5801F58BF13F5801F19D4994251
:105650007047894270471CF5801F08D5BCF5801F34
:10566000F7D58B4218BF704708BF824270474FF48E
:10567000001C1CEB410F38BF1CEB430F01D28B42C7
:10568000704770B500F044F8922449004FF0005183
:105690004FF08053FFF7B8BF51EA030C17D41CF545
:1056A000801F58BFBCF5801F00F10680994218BFCB
:1056B000704708BF9042704707D711F5801F58BF49
:1056C00013F5801F19D499427047894270471CF521
:1056D000801F08D5BCF5801FF7D58B4218BF7047D7
:1056E00008BF824270474FF4001C1CEB410F38BFCB
:1056F0001CEB430F01D28B42704770B500F008F8E5
:10570000922449004FF000514FF08053FFF77CBFC7
:105710000EF1020E2EF0030E5EF8046B364205D435
:10572000012A43EB030515F5001F12D8012841EBB0
:10573000010C1CF5001F0CD80ED14FEAD17C15F5D9
:10574000001F0CEB4C0C0CF1020C08BF4CEBD37C93
:1057500004E04FF0080C01E04FEAD37C0CEB4C0561
:1057600026FA05F606F00706B6F1040C06D20EEB93
:10577000860CBDE870404CF0010C6047DFE80CF08F
:10578000090B02024FF000414FF00000A1F500218B
:1057900070BD19461046012851EB010418BFD4F51D
:1057A000001484BF002001F0004170BD0808A0F57E
:1057B00000114FEA3101704753EA010C17D41CF570
:1057C000801F58BFBCF5801F00F106808B4218BFB8
:1057D000704708BF8242704707D713F5801F58BF34
:1057E00011F5801F19D48B4270479B4270471CF5FE
:1057F000801F08D5BCF5801FF7D5994218BF7047A8
:1058000008BF904270474FF4001C1CEB430F38BF99
:105810001CEB410F01D2994270470FB40CBC03BC82
:10582000FFF76BBF43004FEAD30C4FEA3C0C4340F9
:105830001FBF40070CF1605113F0FE4F70471CF082
:10584000006F03D100200CF0004170470CF00043C2
:1058500043EA507010B540EACC0000F027F800BFD2
:10586000000000924FEA0001FFF7A0BF4FF0004197
:105870004FF00000A1F500217047000010F000413A
:1058800048BF4042B0FA80F310FA03F2C3F19D031F
:105890000BD051EAC35101EB1220530638BF7047B9
:1058A00000F1010008BF20F0010070470EF1020E68
:1058B0002EF0030E5EF8044B244204D44FEA41025A
:1058C000B2F17F4F11D84FEA4003B3F17F4F0CD8AC
:1058D0000ED14FEAD07CB2F17F4F0CEB4C0C0CF1A7
:1058E000020C08BF4CEBD17C04E04FF0080C01E047
:1058F0004FEAD17C0CEB4C0324FA03F404F00704C8
:10590000B4F1040C06D20EEB840CBDE810404CF050
:10591000010C6047DFE80CF0070802024FF000407E
:10592000A0F5800010BD0846420018BFD2F1807279
:1059300088BF00F0004010BDFF2141EAD050C005F3
:1059400070474FF000007047FBF720BAFBF754BBDD
:105950000CF00F03092B08BF082000F05F800A2B12
:105960000BD0082B18BF704708BF1CF0400F0AD09F
:105970004FF000004FF0000170471CF0400F18BFBF
:105980004FF0004070471CF0100F08D020F070431B
:1059900000F07F4242EAD3014FEA4370704700F0C3
:1059A000604021F07F4242EA000201F07F4040EA7D
:1059B000727070474FF0FF0C4CF4E06C1CEA11530E
:1059C0001CBF9CEA030C9445C2BFDA4201EB0251B2
:1059D0007047002B0DD0BCF1000F0FD0002A01F052
:1059E0000041A4BF41F0E04141F07F614FF0000071
:1059F000704701F000414FF00000704750EA01335A
:105A00004FF09B0C18BF4CF0806C7FF4F5AD7047E5
:105A1000FBF7E6BEFCF7B6B8FCF744BA1CF4801FEF
:105A200011D01CF4E02F03D06FEACC31490070474D
:105A30004FF04050EFF3008222F0704242EA000241
:105A400082F3008870474FF00000704701020203A4
:105A50000405060708090A0B0C0D0E0F10100000B4
:105A6000000000000000010203040607080900000E
:105A7000000001020304000000000000000000001C
:105A8000000000000000000000F80000000000001E
:105A900000333000000000160E00160E000000005B
:105AA00000000000000040C07840C0784000043F83
:105AB00004043F040400007088FC08300000001853
:105AC00020FF211E0000F008F000E0180000002177
:105AD0001C031E211E0000F00888700000001E211B
