:020000040800F2
:1000000040150020050100086D330008472C00084A
:10001000053200085F1000087D3D00080000000068
:10002000000000000000000000000000B3390008DC
:100030003914000800000000B13900080D3A00082A
:100040001F0100081F0100081F0100081F01000810
:100050001F0100081F0100081F0100081F01000800
:100060001F0100081F0100081F0100081F010008F0
:100070001F0100081F0100081F0100081F010008E0
:100080001F0100081F0100081F0100081F010008D0
:100090001F0100081F0100081F0100081F010008C0
:1000A0001F010008713A00081F0100081F01000825
:1000B0001F0100081F0100081F0100081F010008A0
:1000C0001F0100081F0100081F0100081F01000890
:1000D0001F010008713D00081F0100081F010008F2
:1000E0001F0100081F0100081F010008DFF810D0E1
:1000F00000F01AFD00480047A14D0008AFF3008052
:10010000401500200648804706480047FEE7FEE706
:10011000FEE7FEE7FEE7FEE7FEE7FEE7FEE7FEE7B7
:100120006F3A0008ED000008202A04DB203A21FA8B
:1001300002F00021704721FA02F3D040C2F1200200
:100140009140084319467047D2B201E000F8012BF4
:10015000491EFBD270470022F6E710B513460A4647
:1001600004461946FFF7F0FF204610BD10B50022E7
:1001700000E0521C835C8C5CA34201D1002BF8D1BF
:10018000D8B2E1B2401A10BD70B50F4D00B9286861
:10019000002412E00A4602E09E4203D0521C13786B
:1001A000002BF9D1DAB2224305D02BB124B10021C2
:1001B00000F8011B04E00446401C0678002EE9D13B
:1001C0002860204670BD00003801002070B506464A
:1001D00003F01CFE046805460A220021304600F0A8
:1001E000BFFB2C6070BDF0B480EA0102D40F420066
:1001F000B2EB410F02D20246084611464A0042D0F5
:10020000C30DDDB2C1F3C752AD1A202D35DAC1F3EB
:10021000160141F4000204B15242C5F1200602FA6F
:1002200006F12A411044B3EBD05F23D0C4B1012DB5
:10023000A0EBC35009DCF0BC4FF0004202EAC3520D
:10024000DBB200F5000000F0CCBB400000F1807094
:1002500000EBC350A0F1807040EAD170490009E082
:10026000490841EAC071A0EBC35000F50000400806
:1002700000EBC350F0BC00F0ABBB6142012202EBCB
:100280004101001BF6E7F0BC704781F00041AAE78E
:1002900080F00040A7E780EA010210B502F00043B9
:1002A000400022D04A001FD0010E01EB1261C0F3C2
:1002B0005600C2F3560240F4000042F40002A0FBD4
:1002C000022000047F39140400D0401C50EA124080
:1002D00001D44000491EC2B20C0604EBD010401CF1
:1002E0004008802A02D003E0002010BD20F0010069
:1002F000002900DA0020184310BD30B480EA010262
:1003000002F0004530F0004221F0004013D090B1DF
:10031000C30DD40DC2F31601C0F31600E41A41F464
:10032000000140F400027D34914201D3641C00E0DE
:100330004900002C02DA30BC002070474FF4000066
:100340000023914201D3891A034340084FEA410137
:10035000F7D151B1914202D14FF0004105E002D2F4
:100360004FF0010101E06FF0010103EBC45028449C
:1003700030BC00F02DBB420005D0C0F3C752524242
:10038000914201DC0020704700EBC15070472DE91D
:10039000FE4F804681EA0300C00F0C46009021F01A
:1003A000004123F00045B8EB0200A94105D24046C8
:1003B000214690461C460B46024623F0004010435F
:1003C00047D0270DC7F30A00C3F30A510290401A21
:1003D000019040286BDAC3F3130040F4801B0098AF
:1003E000924620B10023D2EB030A63EB0B0B01987A
:1003F0005946C0F14002504600F043FA06460D4609
:1004000050465946019A00F04BFA10EB0800614142
:10041000002487EA115284EAE7731A4340D0009A15
:1004200062B3019A012A4FEA075215DC001B61EB07
:1004300002014FF0004202EA0752CDE90042001CDF
:1004400041F5801132462B4600F008FB03B0BDE8B1
:10045000F08F40462146F9E7001B61EB0201001CCA
:1004600041F5801300185B412018A2F5001747EBF7
:10047000030140EAD570B6196D4111E06D084FEAED
:10048000360645EAC0754FEA0752001B61EB0201D0
:10049000001C41F5801149084FEA30000019514114
:1004A00032462B4603B0BDE8F04F00F0C8BA0098C2
:1004B000012240000023D0EB020263EBE0730098BE
:1004C00021464FEAE074B8EB000061EB0401E9E774
:1004D00083F000435BE781F0004158E72DE9FE4FD0
:1004E00081EA030404F0004421F0004100944FF03D
:1004F000000B23F0004350EA01045ED052EA0304EB
:100500005BD0C3F30A54C1F30A552C44A4F2F3346C
:100510000194A0FB0254C1F3130141F48011C3F311
:10052000130343F4801301FB024400FB034E840ACF
:10053000970A44EA815447EA8357A4FB0768029567
:100540008D0A05FB07854FEA932C04FB0C54270505
:10055000029D4FEA065847EA1637B5EB08056EEBE1
:10056000070C870E920E47EA811742EA8312A7FB17
:100570000201B6EB0B0164EB00042B0D43EA0C33D4
:100580005E1844EB1C50DA465146E7FB0201C5F306
:1005900013044FEA0B3343EA14534FEA0432019C2D
:1005A00043EA0603A4F10C040294009CCDE900B4D4
:1005B00000F054FA03B0BDE8F08F00200146F9E7DF
:1005C0002DE9F04D81EA030404F0004B21F00045D1
:1005D00014464FF0000A23F0004150EA050220D0F3
:1005E00054EA01021DD0C5F30A570246C5F31303AE
:1005F000C1F31300C1F30A5640F4801543F480138D
:10060000A7EB0608101BD64608F2FD3873EB050071
:1006100002D308F1010801E092185B41B8F1000F24
:1006200003DA00200146BDE8F08D00204FF4801170
:10063000064684460EE0171B73EB050705D3121B15
:1006400063EB050306434CEA010C49084FEA30000E
:1006500092185B4150EA0107EDD152EA030012D033
:1006600082EA040083EA0501084305D0101BAB4170
:1006700006D20122002306E000224FF0004302E0F0
:100680006FF0010253101AEB06004CEB085110EB0F
:100690000A0041EB0B01BDE8F04D00F0D0B9C10FED
:1006A00080EAE0700844CA079623002100F099B957
:1006B00096230022114600F094B90EB5C10F80EACE
:1006C000E0700844CA07002140F233438DE80E0071
:1006D0000A460B4600F0C2F903B000BD00F000422C
:1006E00020F00040C10DC0F3160040F400007F2947
:1006F00001DA00207047962903DCC1F19601C84059
:1007000001E096398840002AF4D04042704700F05A
:10071000004230F000400AD0C10D01F56071C0F315
:10072000160042EA0151C2084007114370470020F9
:100730000146704730B5041E71F1000404DB4FF030
:100740000044404264EB0101141E73F1000405DB18
:100750001C464FF00043524263EB04038B4208BF38
:10076000824230BD30B5041E71F1000404DB4FF04D
:100770000044404264EB0101141E73F1000405DBE8
:100780001C464FF00043524263EB0403994208BFFA
:10079000904230BD01F0004330B421F0004150EAF6
:1007A000010206D00A0DA2F56072C1F31301002AFE
:1007B00002DC30BC00207047440F44EAC104C10091
:1007C000E01830BC00EBC25000F002B9002801DB99
:1007D000C0F10040002901DBC1F1004181427047B6
:1007E000002801DBC0F10040002901DBC1F100411C
:1007F0008842704730B50B46014600202022012474
:1008000009E021FA02F59D4205D303FA02F5491BDE
:1008100004FA02F52844151EA2F10102F1DC30BDF4
:100820002DE9F05F0546002092469B468846064625
:10083000814640241BE02846414647462246FFF7B2
:1008400073FC53465A46C01A914110D311461846BC
:10085000224600F016F82D1A67EB01084F46224693
:100860000120002100F00DF817EB00094E41201E79
:10087000A4F10104DFDC484631462A464346BDE880
:10088000F09F202A04DB203A00FA02F10020704792
:100890009140C2F1200320FA03F3194390407047BE
:1008A000202A06DBCB17203A41FA02F043EAE07334
:1008B00006E041FA02F3D040C2F120029140084321
:1008C000194670470FB4002300B589B00CA90091F8
:1008D0000B996FF00042CB601E4B06931E4B0793A3
:1008E0000423CDE901321D4A089202466B460020DE
:1008F00000F0CEF909B05DF814FB70B586B006467D
:100900004FF0FF300091CDE90101002015460C4663
:1009100004903246694604A8FFF7D4FF02460498C3
:10092000211825B108B1084600E020462860049847
:1009300000280DD0002A02DD0098884208D0081B4C
:100940000094CDE901043246694604A8FFF7BAFFD6
:1009500006B070BDC90E0008E70E0008550B000870
:100960002DE9F04791460F4680460446002614F8CC
:10097000015B2DB100F0EAF80068405DC007F6D1D8
:100980002B2D02D02D2D18D0641E4A463946204604
:1009900000F0BAFA27B13968A14201D1C7F8008046
:1009A00071054FF002040BD54042002803DD03F02F
:1009B0002DFA0460A007BDE8F08746F48066E4E7FE
:1009C0000028F8DA03F022FA04606FF00040F2E742
:1009D0000029A8BF7047401C490008BF20F0010053
:1009E000704710B4B0FA80FC00FA0CF050EA010431
:1009F00004BF10BC704749B1CCF1200421FA04F4C3
:100A000011FA0CF118BF012121430843A3EB0C019B
:100A1000CB1D4FEA00614FEA102042BF002010BCFE
:100A2000704700EBC35010440029A4BF10BC7047AE
:100A3000401C490008BF20F0010010BC704710B5F1
:100A4000141E73F1000408DA401C41F100019218F1
:100A50005B411A4301D120F0010010BD2DE9F04D9A
:100A600092469B4611B1B1FA81F202E0B0FA80F2EF
:100A700020329046FFF705FF04460F4640EA0A0081
:100A800041EA0B0153465A46084313D0114653EA34
:100A9000010019D0C8F140025046FFF745FB05465A
:100AA0000E46504659464246FFF7EBFE084305D036
:100AB000012004E020463946BDE8F08D00200543C2
:100AC00046EAE0762C4337430A986305E40AA0EB34
:100AD00008000022FD0A44EA47540A3002D50020EB
:100AE0000146E9E7010510196941DDE908450019EA
:100AF0006941BDE8F04DA2E7C1F30A52C1F3130109
:100B000040F2FF3341F480119A4202DA002001469C
:100B1000704740F233439A42A2F2334202DC52421F
:100B2000FFF702BBFFF7ADBE064C074D06E0E068DD
:100B300040F0010394E8070098471034AC42F6D324
:100B4000FFF7D8FA305D0008505D00080048704794
:100B50002C5D000810B50446FFF7F8FF0068005D43
:100B600000F0010010BD00002DE9FF4F087883B0B0
:100B70009946FF2805D0491C2D2804D000240020C8
:100B800008E000200BE00124F9E700EB800003EB14
:100B90004000491C0B78FF2BF7D104B140420023E1
:100BA0000293147819461D462D2C01D02B2C04D10C
:100BB000521C2D2C13D000240294AA461478FF2C2A
:100BC0000FD00A25A3FB057801FB05814FF0000C2F
:100BD00003FB0C11521CE3194AEB0101EEE701245F
:100BE000EAE7814453EA010002D019F5C87F06DA2A
:100BF00003980021C0E9001107B0BDE8F08F00257F
:100C0000AE4E2F46DFF8B882184600F0F1F9CDE974
:100C10000001B9F1000002DAC9F1000400E0044665
:100C20000023A74A1AEB030B42EB045A12E0E00739
:100C300007D02A46334638464146FFF74FFC074661
:100C400088462A46334610461946FFF747FC0546B4
:100C50000E466410002CEAD1DDE90001B9F1000F65
:100C60005A46534606DAFFF7ABFC3A464346FFF7CF
:100C7000A7FC05E0FFF732FC3A464346FFF72EFC9F
:100C8000029A0AB181F00041039AC2E90001B3E778
:100C90002DE9FF4F1F468DB0D7E901464FF0FF38D1
:100CA0002E2045464FF000090B90B9696D1C0E9837
:100CB0008847396A824688470028F6D1BAF1FF3F53
:100CC0000AD024F4D064002E11DDBAF12B0F08D025
:100CD000BAF12D0F0BD102E0404611B08DE744F47C
:100CE0008064B9696D1C0E9888478246761E6946F5
:100CF000600501D52D2000E02B208DF8000001F1CA
:100D0000010B0DF1200809E0B9696D1C0E988847A8
:100D100082460F9844F40074761E0560002E02DDB2
:100D2000BAF1300FF0D00B998A453ED144F08004DF
:100D300006E00F99681CA9F1010944F400740860E9
:100D4000B9696D1C761E0E98884782463028F0D00F
:100D50002BE00B998A4505D1200603D444F080048A
:100D6000761E18E0504603F095F908B30DF1130113
:100D7000761E44F400748B4508D2AAF130000BF8BB
:100D8000010B200607D5A9F1010003E0200602D4DB
:100D900009F101008146A00502D50F99681C086081
:100DA000B9696D1C0E9888478246002ED1DC53E04D
:100DB000002E51DDBAF1650F02D0BAF1450F4BD1CB
:100DC000A00549D5B9696D1C24F44074761E0E98AF
:100DD00088478246002E0CDD2B2804D0BAF12D0F57
:100DE00007D144F48074B9696D1C0E988847824617
:100DF000761EE00501D52D2100E02B2108F8011B0E
:100E0000CDF82C8021E00DF12901761E44F4007408
:100E100088450CD2AAF1300010F0FF0088F80000DD
:100E200002D10B99884509D908F1010806E0E005CF
:100E300001D5244801E042F20F708146B9696D1C6A
:100E40000E98884782460F980560002E04DD5046B4
:100E500003F020F90028D6D1F9690E988847FF20C1
:100E60008BF8000088F800000020069007904B46A1
:100E70006A4608A906A8FFF777FEA00502D46FF01E
:100E800001002AE714F0240F0AD0E00714D1DDE9AD
:100E900006123868031D3B600068C0E900120BE0D1
:100EA000DDE90601FFF776FC0146E00704D138686A
:100EB000021D3A600068016028460EE700001440F9
:100EC0000000F03FF1D8FFFF426842B1016811F81D
:100ED000013B23B1521EC0E90012184670470121A0
:100EE000C160881E704742685AB1C368016843B93F
:100EF00083688B4205D0491E521CC0E900120020B5
:100F000070474FF0FF3070472DE9F05F8246007860
:100F1000002715468B460AF10104B946302801D056
:100F20009DB113E014F8010B0127782803D058284D
:100F300001D045B10AE00DB1102D07D100271025D1
:100F400014F8010B02E0082500E00A250026B0464F
:100F50000EE005FB080005FB06F1012701EB10463A
:100F60001FFA80F8B6F5803F00D3B94614F8010B9C
:100F7000294600F02FF80028EBDABBF1000F05D06E
:100F80000FB1641E00E05446CBF80040B9F1000FE9
:100F900006D002F03BFF02210160C81EBDE8F09FB1
:100FA00048EA0640FAE770B521F0004303430CD04D
:100FB000C1F30A550024D5EB040564EB0403D617EE
:100FC000AD1AB34102DB0020014670BD201841EB91
:100FD000025170BD3A2800D2303820F02002412A58
:100FE00001D3A2F13700884201D34FF0FF307047A0
:100FF0000EB540F2334202920022CDE900221346A0
:10100000FFF72CFD03B000BD70B58C1810F8015B24
:1010100015F0070301D110F8013B2A1106D110F891
:10102000012B03E010F8016B01F8016B5B1EF9D195
:101030002B0705D40023521E0DD401F8013BFAE71B
:1010400010F8013BCB1A921C03E013F8015B01F886
:10105000015B521EF9D5A142D8D3002070BDFEE736
:101060002DE9F84FDFF80CB204469BF80000012888
:1010700072D181A18148FFF787F8064680A1FFF76A
:1010800075F8DFF804A2814D4FF080474FF0814999
:101090004FF07E5860B17EA13046FFF767F8002818
:1010A00066D07EA17548FFF761F800287ED09EE0EB
:1010B00071A10020FFF768F800906FA10020FFF7F2
:1010C00063F803F055FDFFF765FB0646C4F80080A2
:1010D00075A10098FFF74AF8E0B175A10098FFF7F5
:1010E00045F800B374A10098FFF740F818B374A155
:1010F0000098FFF73BF830B373A10098FFF736F87C
:1011000000282AD00098FFF761F8FFF7C8FA60605E
:10111000A660A9E03046C4F80480FFF7F8FA02465A
:101120000B466BA021E030466760FFF7F0FA0246FD
:101130000B466DA019E030466560FFF7E8FA0246FD
:101140000B466FA011E03046C4F80490FFF7DFFAB9
:1011500002460B466FA008E089E03046C4F804A0C0
:10116000FFF7D5FA02460B466FA002F02DFCCFE741
:1011700041A10020FFF708F8FFF728F84FFA80F8A0
:101180003DA10020FFF700F8FFF720F84FFA80F9A3
:1011900039A10020FEF7F8FFFFF718F846B236A194
:1011A0000020FEF7F1FFFFF711F800E019E045B26B
:1011B00033464A46414662A0009502F005FC40468F
:1011C0002760FFF76CFA60604846FFF768FAA06096
:1011D0003046FFF764FAE0602846FFF760FA2061C6
:1011E00042E00020C4E900505BA002F0EDFB60A1EA
:1011F0002248FEF7BBFF20B9C4E900585EA002F008
:10120000E3FB62A11D48FEF7B1FF20B9C4E9005716
:1012100060A002F0D9FB64A11848FEF7A7FF20B92F
:10122000256063A0656002F0CFFB66A11348FEF75E
:101230009DFF20B9C4E9005965A002F0C5FB69A172
:101240000E48FEF793FF20B9C4E9005A69A002F0E6
:10125000BBFB6EA10948FEF789FF28B96F48C4E9B6
:1012600000506FA002F0B0FB00208BF80000BDE83A
:10127000F88F0000340100202C000000D81000205E
:10128000736C6964657200000000A040000040407B
:101290006A6F79737469636B0000000053746F7038
:1012A000416C6C53686F77004C6D506F7300000099
:1012B0004C6D56656C0000004C6D4B7000000000DA
:1012C0004C6D4B64000000004C6D546F72000000C8
:1012D0006A6F79737469636B3A204C6D506F732C2D
:1012E00025660D0A000000006A6F79737469636BEC
:1012F0003A204C6D56656C2C25660D0A00000000E6
:101300006A6F79737469636B3A204C6D4B702C254E
:10131000660D0A006A6F79737469636B3A204C6DCD
:101320004B642C25660D0A006A6F79737469636BD0
:101330003A204C6D546F722C25660D0A0000000097
:101340006A6F79737469636B2C25642C25642C2572
:10135000642C25640D0A0000636F6D6D616E643A44
:101360002053746F70416C6C53686F7700000000FD
:1013700053686F77506F7300636F6D6D616E643A81
:101380002053686F77506F730000000053686F77C9
:1013900056656C00636F6D6D616E643A2053686FC3
:1013A0007756656C0000000053686F77546F7200C9
:1013B000636F6D6D616E643A2053686F77546F721E
:1013C0000000000053686F77416E676C6500000095
:1013D000636F6D6D616E643A2053686F77416E671D
:1013E0006C65000053686F77416E676C65504944C7
:1013F00000000000636F6D6D616E643A2053686F8A
:1014000077416E676C6550494400000053686F7700
:101410005370656564504944000000000000C040FE
:10142000636F6D6D616E643A2053686F77537065BA
:101430006564504944000000704772B6FEE7F0B59D
:1014400090F820500468A468012D05D0022D03D027
:10145000416A41F4802157E014F0406F01D1E5006A
:101460004FD5C4F301640125A5401D608D684FF47C
:10147000C0739DB1CE6835434E6845EAC60506681F
:1014800003EB0417F5514FF4C275076805EB04151B
:101490000E697E51097D012905D009E00E88CD68CD
:1014A00045EA4655EBE701684E5946F480764E51C1
:1014B0001179D579567941EA056195792D0445EA86
:1014C000062529434FF4C676056806EB0416A95194
:1014D0001178D57841EA0561957852782D0445EA6E
:1014E000022211434FF4C475026805EB04155151F3
:1014F000006803EB0411425842F001024250002000
:10150000F0BD416A41F4001141620120F0BD0000CC
:1015100010B590F820300268012B07D0022B05D0BF
:10152000416A41F480214162012010BDD2F80002DD
:1015300040F00100C2F80002087D00F01F03012006
:101540009840D2F81C328343C2F81C32CB69B3B93D
:10155000D2F80C328343C2F80C328C894B6864F3A6
:101560001F434C6902EBC404C4F840320C890B6879
:1015700064F31F434C6902EBC404C4F84432CB69E2
:10158000012B16D1D2F80C320343C2F80C320C886E
:101590004B6864F31F434C6902EBC404C4F8403247
:1015A0000C89CB6864F31F434C6902EBC404C4F894
:1015B00044328B69002BD2F804320FD053EA000377
:1015C000C2F804320B69002BD2F8143208D003435E
:1015D000C2F81432096A012904D008E08343EFE716
:1015E0008343F5E7D2F81C120143C2F81C12D2F86B
:1015F000000220F00100C2F80002002010BD70B50A
:1016000090F82040012C05D0022C03D0416A41F40F
:10161000802128E0046809B32469A40720D04FF48E
:10162000D874056804EB01142D5915F00405956074
:1016300005682D591AD0ED08556005682C5904F03D
:101640000204D4604FF4DA74056804EB01142E59D7
:1016500006F00F06082E0CD308250DE0E468DCE741
:10166000416A41F400114162012070BD6D0D1560A9
:10167000E3E72D5905F00F05156105682D59C5F3F0
:101680000725956105682C59240C54614FF4DC72D0
:10169000046802EB0112A4581C700468A458240AC0
:1016A0005C700468A458240C9C700468A258120E44
:1016B000DA704FF4DE72046802EB0112A4581C7158
:1016C0000468A458240A5C710468A458240C9C7112
:1016D0000468A258120EDA71006829B1016941F05C
:1016E00020010161002070BDC16841F02001C1608E
:1016F000F8E770B5040003D094F8200010B104E0BE
:10170000012070BD204600F081F82068016841F09A
:101710000101016000F046FA0546052604E000F0EC
:1017200041FA401B0A2811D820684068C007F6D04B
:101730002068016821F00201016000F033FA0546DB
:101740000BE000F02FFA401B0A2806D9606A40F42B
:101750000030606284F82060D2E72068406880072B
:10176000EFD4207E0128206801683DD021F080015F
:101770000160607E01282068016838D021F04001B6
:101780000160A07E01282068016833D021F020018B
:101790000160E07E0128206801682ED041F0100130
:1017A0000160207F01282068016829D021F008010C
:1017B0000160607F01282068016824D021F00401C5
:1017C0000160D4E902010843D4E90412114308433B
:1017D0006168491E08432168C861002060620120D9
:1017E00084F82000002070BD41F08001C0E741F086
:1017F0004001C5E741F02001CAE721F01001CFE721
:1018000041F00801D4E741F00401D9E710B586B0F2
:1018100000210091019102910391006813498842CF
:1018200022D11348C16941F00071C161C16901F061
:1018300000710491816941F00401816180690D4C5E
:1018400000F0040004904FF40060009069462046C8
:1018500000F0AEF8A0140090022001900320039045
:101860006946204600F0A4F806B010BD00640040B0
:10187000001002400008014070B5044690F82000B6
:10188000012804D0606A40F40020606218E0022061
:1018900084F820002068016821F00101016000F057
:1018A00081F905460EE000BF00F07CF9401B0A28D4
:1018B00008D9606A40F400306062052084F8200096
:1018C000012070BD20684068C007EDD1606270BD26
:1018D00010B590F821100022022905D0042181635F
:1018E00080F82020012010BD01680B6823F00E0352
:1018F0000B6001680B6823F001030B6090F8403027
:10190000C46B012101FA03F3636080F8211080F8B1
:101910002020104610BD000010B590F821100024C2
:10192000022903D00421816301243DE001680A6893
:1019300022F00E020A6001680A6822F001020A60C1
:101940001A4A0168914201D1012121E0174A14325B
:10195000914201D110211BE0144A2832914201D159
:10196000891515E0114A3C32914201D189140FE0EA
:101970000E4A5032914202D14FF4803108E00B4AB6
:101980006432914202D14FF4801101E04FF0807136
:10199000064A083A5160012180F82110002180F8A0
:1019A0002010416B01B18847204610BD080002405D
:1019B0002DE9F84FDFF8B8910024A9F1040B234674
:1019C0000F2709F1040AABF1040EC9E00125A54077
:1019D0002A40AA427DD1674ED1F804C0ACEB06087C
:1019E000B44532D014DCBCF1030F3AD009DCBCF1B1
:1019F000000F2AD0BCF1010F1CD0BCF1020F31D175
:101A00001DE0BCF1110F17D0BCF1120F2AD119E063
:101A1000B8F5881F19D006DCB8F5803F15D0B8F5A9
:101A2000801F1FD111E0B8F5001F0ED0B8F5041FBC
:101A300018D10AE0CB6815E0CB681B1D12E0CB681B
:101A400008330FE0CB680C330CE08B682BB1012B13
:101A50004FF0080303D0456104E0042302E0056170
:101A600000E00023FF2A01D8064601E000F1040649
:101A70004FEA840501D9A5F12005D6F8008007FAC0
:101A800005FC28EA0C0803FA05F548EA0508C6F83B
:101A900000804D68ED0062D5374DAE6946F0010615
:101AA000AE61AD6924F0030605F001050095334DE4
:101AB00006EB050CDCF80850A607360F07FA06F807
:101AC00025EA0805DFF8B880404503D14FF000084B
:101AD00017E044E0DFF8AC80404502D14FF0010848
:101AE0000FE0DFF8A480404502D14FF0020808E083
:101AF000DFF89880404502D14FF0030801E04FF035
:101B0000040808FA06F848EA0508CCF808804D6889
:101B1000D9F80060ED024D4601D5164300E096432A
:101B20002E604D68DAF80060AD02554601D51643C7
:101B300000E096432E604D68DBF80060AD035D4623
:101B400001D5164300E096432E604D68DEF8006034
:101B5000ED03754601D5164300E096432E60641CE4
:101B60000D682A46E5407FF431AFBDE8F88F0000EC
:101B70000804014000001110001002400000014064
:101B800000080140000C0140001001400014014019
:101B90008068084000D0012070470AB10161704799
:101BA0000904FBE701488068704700000801002035
:101BB0000248816802781144816070470801002062
:101BC000074810B5016841F010010160032000F0E2
:101BD00075F80F2000F006F800F024F8002010BD82
:101BE0000020024070B50D4D04464FF47A712878FC
:101BF000B1FBF0F00A490968B1FBF0F000F0DCFA43
:101C000048B9102C07D200222146501E00F036F8A9
:101C100000206C6070BD012070BD00000801002034
:101C2000140100200C4808B5816941F0010181616F
:101C3000816901F001010091C16941F08051C161E8
:101C4000C06900F0805000900448416821F0E061D4
:101C500041F00071416008BD0010024000000140E9
:101C6000002809DB00F01F0201219140400980009B
:101C700000F1E020C0F8001170470000F0B40E4BF6
:101C80001B680C46C3F30223C3F10705042D00D9DA
:101C90000425191D072901D2002300E0DB1E0126BF
:101CA00006FA05F1491E214099409E40761E1640D5
:101CB0003143F0BC02F09AB80CED00E0064900F0A8
:101CC000070208684FF6FF03184040EA0220034A63
:101CD00010430860704700000CED00E00000FA05BA
:101CE0002DE9F0470F46050061D0434E306800F003
:101CF0000700B84209D2306820F00700384330604E
:101D0000306800F00700B84251D128683B4C810789
:101D100012D5400703D5606840F4E0606060287821
:101D2000000703D5606840F4605060606068A9688F
:101D300020F0F000084360602878C00728D0686869
:101D4000012810D02168022810D0890700292EDA36
:101D5000616821F0030101436160FFF723FF8046C2
:101D600041F288390DE021688903EFE78901EDE749
:101D7000FFF718FFA0EB0801494502D90320BDE891
:101D8000F0876068696800F00C00B0EB810FEFD15C
:101D9000306800F00700B8420BD9306820F0070027
:101DA00038433060306800F00700B84201D00120AD
:101DB000E5E72878400705D56068E96820F4E06029
:101DC000084360602878000706D56068296920F418
:101DD000605040EAC100606000F038F86168084A6D
:101DE000C1F30311515CC840064908600648006809
:101DF000FFF7F8FE0020C2E700200240001002407A
:101E0000A0530008140100200C01002004480549DB
:101E100000684968044AC1F30221515CC840704718
:101E20001401002000100240B05300080448054986
:101E300000684968044AC1F3C221515CC840704738
:101E40001401002000100240B05300080E4A5168EF
:101E50000E4801F00C03042B11D0082B0FD10C48B5
:101E6000C1F38343C903C05C0AD55168084AC1F372
:101E70004041921E515C054A5043B0FBF1F070475F
:101E800004494843704700000010024000127A00E5
:101E90009053000800093D002DE9F84F040070D070
:101EA0002078C04DC00749D06868C0F38100012880
:101EB00007D06868C0F38100022809D16868C003B0
:101EC00006D52868800339D560680028E7D035E05A
:101ED0006068B0F5803F0BD010B1B0F5A02F11D0E5
:101EE000286820F480302860286820F4802002E0F0
:101EF000286840F480302860606890B1FFF752FE97
:101F000006460AE0286840F480202860F0E700BF19
:101F1000FFF748FE801B642873D828688003F7D534
:101F20000CE0FFF73FFE064605E000BFFFF73AFE74
:101F3000801B6428F0D828688003F7D420789A4E54
:101F400080074FF001094FF0000839D5686810F09C
:101F50000C0F07D06868C0F38100022809D16868B7
:101F6000C00306D42868800714D52069012808D149
:101F700010E02069B0B1C6F80090FFF713FE0746E5
:101F800005E00AE1FFF70EFEC01B0228C4D828684E
:101F90008007F7D52868616920F0F80040EAC100A1
:101FA00028600DE0C6F80080FFF7FCFD074604E05E
:101FB000FFF7F8FDC01B022823D828688007F7D454
:101FC000207800072CD57948A169D9B1C0F80090D4
:101FD000FFF7E8FD074604E0FFF7E4FDC01B022819
:101FE0000FD8686A8007F7D571484FF4FA51006836
:101FF000B0FBF1F0009000BF0098411E0091FAD2B2
:102000000EE080E0C0F80080FFF7CCFD074604E05A
:10201000FFF7C8FDC01B022875D8686A8007F7D48F
:102020002078400760D5E8690027C00008D4E86937
:1020300040F08050E861E869012700F0805000908E
:102040005C480168C90513D40168834641F4807176
:102050000160FFF7A7FD824606E000BFFFF7A2FD83
:10206000A0EB0A0064284ED8DBF80000C005F5D5C7
:10207000E06801280AD008B1052813D0286A20F0AA
:1020800001002862286A20F0040002E0286A40F07B
:1020900001002862E06841F2883B98B1FFF782FDB9
:1020A00082460BE0286A40F004002862EEE700BF99
:1020B000FFF778FDA0EB0A0159455AD8286A800736
:1020C000F6D50CE0FFF76EFD824605E0FFF76AFDEE
:1020D000A0EB0A0159454CD8286A8007F6D41FB1F5
:1020E000E86920F08050E861E06988B36968C1F36D
:1020F0008101022944D00228C6F8608004D0FFF78D
:1021000051FD044638E034E0FFF74CFD074604E09B
:10211000FFF748FDC01B02282BD828688001F7D4A0
:10212000206AB0F5803F05D16868A16820F40030CE
:1021300008436860D4E908010843696821F4741110
:1021400008436860C6F86090FFF72CFD044606E07F
:1021500025E000BFFFF726FD001B022809D82868EC
:102160008001F7D51BE000BFFFF71CFD001B022814
:1021700002D90320BDE8F88F28688001F4D40EE06E
:102180000128F7D06868226A00F48031914204D1B6
:10219000616A00F47010884201D00120EAE7002053
:1021A000E8E7000000100240000042428004424282
:1021B000140100200070004010B5401EB0F1807F77
:1021C00001D3012010BD4FF0E02460610F216017A2
:1021D00001F00CFE0020A06107202061002010BD4E
:1021E0007047704770B590F83C20012A26D0012432
:1021F00080F83C40022280F83D2003685A689D68C0
:1022000022F070060A6832435A600D4B02689A4207
:1022100008D0B2F1804F05D00A4B9A4202D00A4B47
:102220009A4204D1496825F080031943916080F8EF
:102230003D40002180F83C10084670BD022070BD72
:10224000002C0140000400400008004010B50400CC
:1022500003D094F83D0010B107E0012010BD00202C
:1022600084F83C00204600F01FF8022084F83D006E
:10227000211D206801F002FC012084F8460084F84A
:102280003E0084F83F0084F8400084F8410084F860
:10229000420084F8430084F8440084F8450084F840
:1022A0003D00002010BD000008B500680B498842C1
:1022B00012D10B48816941F400618161806900227B
:1022C00000F40060009002211920FFF7D7FCBDE860
:1022D00008401920FFF7C4BC08BD0000002C0140D5
:1022E0000010024090F83D10012901D001207047F4
:1022F000022180F83D100168CA6842F00102CA60FC
:1023000000680B49884208D0B0F1804F05D00949D8
:10231000884202D00849884204D1816801F007014F
:10232000062903D0016841F00101016000207047D7
:10233000002C0140000400400008004070B5044635
:1023400090F83C000025012817D0012684F83C6055
:10235000022084F83D002068826822F0770222F48F
:102360007F4282600868502838D00DDC20284FD08A
:1023700005DC90B3102811D14AE0022070BD30284E
:1023800046D040280AD13BE060282FD070280DD0DD
:10239000B0F5805F03D0B0F5005F12D0012584F85E
:1023A0003D60002084F83C00284670BDCB68D1E930
:1023B0000121206801F09EFB2068816841F07701CF
:1023C00009E0CB68D1E90121206801F093FB206886
:1023D000816841F480418160E1E719E0CA68496899
:1023E000206801F099FB5021206806E0CA6849681E
:1023F000206801F0A2FB6021206801F085FBCEE798
:10240000CA684968206801F087FB40212068F4E72A
:10241000226801461046F0E770472DE9F041044676
:102420000068C66805694FF00007A90713D5B10712
:1024300011D5F91E0161012020772068806980078D
:10244000204602D0FFF7E8FF04E000F07EF82046C7
:1024500000F07CF82777680716D5700714D5216837
:102460006FF004000861022020772068806910F472
:10247000407F204602D0FFF7CFFF04E000F065F870
:10248000204600F063F82777280715D5300713D5C5
:1024900021686FF008000861042020772068C06977
:1024A0008007204602D0FFF7B7FF04E000F04DF8A8
:1024B000204600F04BF82777E80616D5F00614D52D
:1024C00021686FF010000861082020772068C0693B
:1024D00010F4407F204602D0FFF79EFF04E000F09A
:1024E00034F8204600F032F82777E80708D0F007E4
:1024F00006D021686FF001000861204600F028F83E
:10250000280608D5300606D521686FF080000861DE
:102510002046FFF765FE680608D5700606D52168D7
:102520006FF040000861204600F09EF9A8060AD529
:10253000B00608D521686FF0200008612046BDE88C
:10254000F041FFF74EBEBDE8F081704770470000D4
:102550002DE9FE4F0068B04988427DD100F032FC81
:10256000AE4CAF490025E08804F1C80A401C80B297
:10257000E0800978012976D0B0F5FA7F09D3A9481F
:10258000E580056045608560C5600561CAF800505A
:10259000A5656088DFF88492401C80B260804FF0AF
:1025A000FF3B09F188090A287ED3A9F17601881E2C
:1025B0006580CDE90001831E021F811F083800F0ED
:1025C000B5FC208A4042723820822089404207B2FE
:1025D0002781A089404200B2A081FEF76EF806462E
:1025E00088463846FEF769F84346324602F0F2F96B
:1025F00000228D4BFDF7E4FF00228C4BFDF76EFFB0
:10260000FEF7C8F88A49FDF7EEFD07466067B4F9A2
:102610001000FEF744F86FF00E01FDF7ACFE85499F
:10262000FDF739FE8449FDF736FEE16FFDF7DBFD6E
:102630000146A067DFF804828148FDF72CFE0646BC
:1026400039464046FDF727FE3146FDF7CCFD7D4972
:10265000E067884205DC01E0CCE004E07A4988428A
:1026600003D92570C8E0E58093E721780029F9D0E7
:10267000C9F804004E46D9F80810FDF706FE60645C
:102680006648883001F01CF9F068594680F0004730
:102690006765A06DFDF76FFE80463946FDF7A3FD27
:1026A00006462062404600E02CE03946FDF7F0FD8A
:1026B000014660636548664A864201DD206202E0A9
:1026C000964200D92262814201DD606302E09142BC
:1026D00000D9626304F1240007C88DE80700D4E93B
:1026E00007230121E06C02F0CDFD606B80F0004318
:1026F00004F1380007C88DE80700226B0221206D25
:1027000002F0C0FDA088401C80B2A0800A286DD3D2
:10271000A580012002F00AFE404A8032A2F17F012A
:1027200001F16F0000F094FD3C49E06C803102F053
:102730008DFA022002F0FAFD384A8032A2F17F01C0
:1027400001F16F0000F084FD3449206D803102F00A
:102750007DFAE06CDFF8FC80616E466A206D476AA6
:102760004046FDF798FD054631463B48FDF793FD91
:102770002946FDF738FD606605464046A16EFDF727
:102780008AFD064639463448FDF785FD3146FDF79A
:102790002AFD0146A066C4E917512846FDF775FDDC
:1027A0005946FDF7E8FDE0662178F9B1CAF8040062
:1027B0005546DAF80810FDF768FDA0641748C830E0
:1027C00001F07EF8E8684D4680F00041C9F800103D
:1027D0000E46E06EFDF75FFD10F1FF4F06D31F4878
:1027E000864202DC1E48864200D928601D480068E7
:1027F000406AA082BDE8FE8F0095019500230295F6
:102800001A460121E06C02F03DFD00230095019580
:102810001A46029572E70000002C014000000020DB
:102820003401002044010020FA2109400080664064
:10283000333363400000FA440AD7233CA69B443B51
:10284000643B7F3F00007041000070C100002041E8
:10285000000020C16666663FCDCCCC3D0000A040A4
:102860000000A0C080010020704770477047000042
:10287000F8B5016804460868CA684B6910F00F0F84
:102880004FF0000559D003F0010602F4907737436A
:1028900065D0C10705D0D10503D5616C41F00101B8
:1028A0006164410705D5D90703D0616C41F002018D
:1028B0006164810705D5D90703D0616C41F004013B
:1028C0006164010707D502F02001314303D0616C38
:1028D00041F008016164616C00293AD0800604D59A
:1028E000900602D5204601F069F920684069616CC4
:1028F000C0F38010090700D460B3204601F037F917
:1029000020684069400621D52068143050E8001F37
:1029100021F0400140E80012002AF5D1E06BA8B197
:102920006D494163E06BFEF7F7FF002811D0E06BC3
:10293000416B01B0BDE8F040084783060FD5930610
:102940000DD52046BDE8F84001F038B92046FFF724
:102950008DFFF8BD2046FFF789FF6564F8BD266B43
:102960002023012E7CD1C6067AD5D60678D50868F4
:102970004868009048694FF00206400640D5E16B78
:10298000086840680004000CE8D0A28D8242E5D9B6
:10299000E085886920282DD020680C3050E8001F81
:1029A00021F4807140E80012002AF5D1206814302B
:1029B00050E8001F21F0010140E80012002AF5D183
:1029C0002068143050E8001F21F0400140E8001258
:1029D000002AF5D184F84230256320680C3050E895
:1029E000001F21F0100140E80012002AF5D1E06B31
:1029F000FEF76EFF6663A08DE18D401A81B22AE07A
:102A0000A08DE18D401A81B2E08D0028A6D000296A
:102A1000A4D022680C3252E8000F20F4907042E8F3
:102A20000007002FF5D12068143050E8002F22F065
:102A3000010240E80027002FF5D184F842302563D9
:102A400020680C3050E8002F22F0100240E80023EC
:102A5000002BF5D166632046FFF707FFF8BDFFE7BF
:102A600005062BD5150629D594F841002128F5D166
:102A7000A068B0F5805F01D12069B0B1206A411C27
:102A80002162216800784860E08C401E0004000C40
:102A9000E084E3D12068C16821F08001C160206832
:102AA000C16841F04001C160D8E7206A0088C0F3E6
:102AB00008004860206A801C2062E5E74006CDD50A
:102AC0005006CBD5CA68204622F04002CA6084F87E
:102AD000413000F0B7F8C1E75F3B000870B5040073
:102AE00004D094F84100002510B106E0012070BD2B
:102AF00084F84050204600F023F8242084F8410058
:102B00002068C16821F40051C160204601F0B8F886
:102B10002068016921F4904101612068416921F038
:102B20002A0141612068C16841F40051C1606564B7
:102B3000202084F8410084F842006563002070BDC5
:102B400030B585B000240094019402940394006889
:102B5000194988422DD11948816941F48041816128
:102B6000816901F480410491816941F0040181612E
:102B70008069134D00F0040004904FF40070009041
:102B8000022001900320039069462846FEF710FFBB
:102B90002815CDE900040120029069462846FEF779
:102BA00007FF002201212520FFF768F82520FFF705
:102BB00057F805B030BD0000003801400010024059
:102BC0000008014090F84230202B01D002207047CD
:102BD00021B11AB10023036301F0AEB801207047A0
:102BE000154930B4884224D1144800230124C27806
:102BF000017811B1012907D010E05B2A0ED181784C
:102C000061B90470437009E00C490D4D5D2A4978A3
:102C10000BD0632902D26A54491C41700749012232
:102C200030BCC91C0448FFF7CDBF03706B548470DF
:102C3000F4E730BC70470000C801002032010020DA
:102C4000D81000207047FEE710B54FF4006103482C
:102C5000FEF79EFF012800D0002010BD000C0140AF
:102C600010B5012000F072F8012000F063F8FFF7C2
:102C7000EBFF0446002000F05DF8204610BD70B563
:102C80000025012000F062F800248026012000F0D9
:102C900051F8FFF7D9FF10B126FA04F005430020E0
:102CA00000F048F8641CE4B2082CEFD3284670BD4D
:102CB00010B558B15FF0000000F048F8012000F0B6
:102CC00039F8BDE81040002000F034B80120F3E7E7
:102CD00070B500240646802525FA04F0304000D067
:102CE000012000F033F8012000F024F8002000F06B
:102CF00021F8641CE4B2082CEED370BD10B501209D
:102D000000F024F8012000F015F8002000F01EF873
:102D1000BDE81040002000F00DB810B5002000F014
:102D200015F8012000F006F8BDE81040012000F081
:102D30000DB8000008B1012200E000224FF48061CC
:102D40000148FEF72ABF0000000C014008B1012233
:102D500000E000224FF400610148FEF71EBF0000B2
:102D6000000C0140064B10B51A5C0A4205D001293F
:102D700001D08A431A54012010BD002010BD00006C
:102D80002601002010B538B10C4A012808D00228CD
:102D90000DD003280DD008E04FF40041084801E0B1
:102DA000082107E0FEF7F4FE30B1002010BD10212D
:102DB00000E020211046F5E7012010BD000C014085
:102DC000000801402DE9F05F4F4C002204F112058C
:102DD0006270607835F8101011B1491E25F8101096
:102DE000401CC0B260700428F3D32078401CC0B2ED
:102DF0002070142872D3444F2270BF1D3E1F92468C
:102E00001046627006F10C0806F108094FF0640BD9
:102E1000C0B2315C3954FFF7B5FF617801284246F2
:102E2000705418F8013004D023F00103535458B102
:102E300013E043F00103535417F801C0BCF1000F35
:102E40000BD143F0020306E017F801C0BCF1010FFB
:102E500003D143F0040308F8013019F8013043B1FD
:102E6000012B0ED0022B1DD0032B30D0042B30D0E1
:102E700043E0012841D14FF4FA6025F81100012008
:102E800039E018B135F8110028B136E0C82025F82E
:102E9000110002202FE025F811B018F8013043F09E
:102EA000200325E0012803D035F8110040B124E0CB
:102EB00018F80130032043F0100308F801301AE03D
:102EC00018F8013043F0080308F8013007E030B18A
:102ED00013E020B135F8110020B10EE012E009F83E
:102EE00001A00AE025F811B018F8013043F04003C2
:102EF00008F80130042009F80100491CC8B26070CC
:102F0000042885D3BDE8F09F18010020002202218B
:102F10000148FEF742BE00000008014001220221E4
:102F20000148FEF73ABE0000000801402DE9FF47C6
:102F30001546DDE90C890E4607461C460E226946F9
:102F40003B2000F039F8BDF8000040BA3880BDF8E9
:102F5000020040BA3080BDF8040040BA2880BDF8B5
:102F6000080040BA2080BDF80A0040BAA8F8000066
:102F7000BDF80C0040BAA9F80000BDE8FF8710B505
:102F800000F0C8F901216B2000F044F800216C200A
:102F900000F040F80F21192000F03CF800211A2021
:102FA00000F038F818211B2000F034F81821BDE893
:102FB00010401C2000F02EB82DE9F04115460E46B9
:102FC0000446FFF79BFED020FFF782FEFFF748FE86
:102FD0002046FFF77DFEFFF743FEFFF78FFED1206F
:102FE000FFF776FEFFF73CFE00246F1E0CE000BFEB
:102FF000FFF745FE3055BC4201DA012000E0002019
:10300000FFF756FE641CE4B2AC42F1D3BDE8F041D8
:10301000FFF783BE70B50D460446FFF76FFED02064
:10302000FFF756FEFFF71CFE2046FFF751FEFFF7A5
:1030300017FE2846FFF74CFEFFF712FEBDE8704072
:10304000FFF76BBE0F4810B50D49016003214160C9
:1030500000214FF4E0228160C0E903124FF4001216
:103060004261017641768176C17601774177FEF73C
:1030700040FB002803D0BDE81040FEF7DEB910BDCC
:1030800000640040580100202DE9F04385B0002481
:1030900031480094019402940394816941F0100135
:1030A0008161816901F010010491816941F0200181
:1030B0008161816901F020010491816941F004017D
:1030C0008161816901F004010491816941F0080185
:1030D00081618069DFF8848000F00800049000229C
:1030E00003214046FEF759FDDFF8749000224FF4AB
:1030F0007C614846FEF751FD032602270125039710
:103100000096CDE9015469464046FEF751FC4FF464
:103110004C60009001AA112082E85100694648469F
:10312000FEF746FCE8038DE8310069464046FEF7AD
:103130003FFC38208DE8310069464846FEF738FCF0
:103140003002CDE90005CDE9024769464846FEF761
:103150002FFC05B0BDE8F0830010024000080140DC
:10316000000C014010B586B000241748009401946B
:103170000294039404941349059401604721C0E923
:1031800001144FF47A71C0E9031444618461FFF7BC
:103190005DF808B1FEF751F94FF480500090694690
:1031A0000948FFF7CBF808B1FEF747F9049404A9E2
:1031B00005480594FFF716F8002801D0FEF73DF901
:1031C00006B010BD002C0140800100200C4810B555
:1031D0000A4901604FF416514160002181600C22C0
:1031E000C160C0E904128161C161FFF777FC00286A
:1031F00003D0BDE81040FEF720B910BD00380140F3
:10320000C8010020FEE7000000B58BB02821684609
:10321000FCF7A1FF00200121CDE9060103900590F4
:103220000090019002900891049069460748FEF7CB
:103230006FF908B1FEF701F90448FEF71DFB0028FD
:1032400001D0FEF7FAF80BB000BD000058010020D5
:1032500030B587B00C46054613466A4600210B4838
:10326000FEF7CDF901004FF0000001D0286009E021
:10327000029921B101992960039911B102E00099E5
:10328000F9E70498207007B030BD00005801002015
:1032900010B588B00024CDE900040294CDE90341C3
:1032A0008DF8144006AB69461948FEF7C8F80028A7
:1032B00013D11748069A4FF47A71A2B1012A1ED091
:1032C000022A0AD100688268D20302D4641C8C42AC
:1032D000F9D9816841F48031816008B010BD641C67
:1032E0008C4201D903E000688268D207F7D0816878
:1032F00041F00101F0E7641C8C4201D903E0006851
:103300008268D205F7D5816841F48071E4E7000056
:1033100058010020134810B5816986B041F00801BA
:1033200081618069104C00F0080004900020029038
:1033300011200190032003904FF4806000906946B3
:103340002046FEF735FBE014009069462046FEF764
:103350002FFB0120FFF7EEFC0120FFF7F7FC06B082
:1033600010BD000000100240000C0140FEE700000C
:1033700010B50021074C0A46002004EBC1131A5473
:10338000401CC0B28028FAD3491CC9B20829F3D323
:1033900010BD0000D80C0020F0B50B4424E004461A
:1033A00085181DE07F2C19D8002917DB3F2915DC73
:1033B000CE1701EB56764FEAE60C0D4F26F00706C6
:1033C00007EBCC172744A1EB060E97F800C00126A7
:1033D00006FA0EF62CEA060C87F800C0641C24B22C
:1033E000A542DFDC491C09B28B42D8DCF0BD0000ED
:1033F000D80C002000B585B000214FF47A7200206F
:10340000401C9042FCD3491C9142F8D30E4881697C
:1034100041F0080181618069694600F0080004906C
:1034200000200290C0200090112001900320039002
:103430000648FEF7BDFA012000F0FCF9012000F07B
:1034400003FA05B000BD000000100240000C01406E
:1034500070B500240646802525FA04F0304000D0DF
:10346000012000F0F1F9012000F0E4F9002000F063
:10347000E1F9641CE4B2082CEED3012000F0DAF983
:10348000BDE87040002000F0D5B910B5012000F073
:10349000DBF9012000F0CEF9002000F0D5F9BDE8FD
:1034A0001040002000F0C6B910B5002000F0CCF9A3
:1034B000012000F0BFF9BDE81040012000F0C4B9C0
:1034C00010B5FFF797FFAE2000F0C8F9D52000F047
:1034D000C5F9802000F0C2F9A82000F0BFF93F2014
:1034E00000F0BCF9D32000F0B9F9002000F0B6F9E3
:1034F000402000F0B3F9A12000F0B0F9C82000F09E
:10350000ADF9DA2000F0AAF9122000F0A7F9812025
:1035100000F0A4F9CF2000F0A1F9D92000F09EF925
:10352000F12000F09BF9DB2000F098F9302000F04A
:1035300095F9A42000F092F9A62000F08FF98D20D3
:1035400000F08CF9142000F089F9AF2000F086F922
:10355000FFF70EFFBDE8104000F058B90FB470B58A
:10356000C0B014460D46064648AA6846479900F082
:1035700017FC23466A462946304600F091F840B0D1
:1035800070BC5DF814FB10B50C4640F0B00000F0C4
:1035900065F9102040EA141000F060F904F00F0003
:1035A000BDE8104000F05AB908B5082B0DD0062B25
:1035B0000AD10A4B02EB420203EB4202C03A0092EC
:1035C0000823062200F00EF808BD054B03EB02129B
:1035D000A2F50072102300920822F3E7A859000810
:1035E000B85300082DE9F04F1F4616460D46824697
:1035F0000024FFF7D1FE7F1EF81707EB5070012162
:10360000DFF898B001EBE00743E000203DE000BFA9
:103610000AEB00037F2B36D8E91705EB5171CA106E
:1036200021F00701691A002D03DA521E083112B287
:1036300009B202EB0409B9F1070F0ED8099A04FB8D
:1036400006F802440BEBC91E18F802201EF803C04E
:103650008A404CEA020C0EF803C009F10102072A65
:1036600011D80BEBC91202EB0308099A04FB06FC04
:10367000024498F880301CF80220C1F10801CA40C9
:10368000134388F88030401CC0B2B042C0D3641CE1
:10369000E4B2A742B9DCBDE8F08F0000D80C0020EE
:1036A0002DE9FF4F002483B09B4690462546A24655
:1036B000DFF850919EE0100610D403988DF8042096
:1036C000641C2844A4B28DF805A000B25B4604999E
:1036D000FFF76AFF05EB0B0085B28BE00620B0EB2D
:1036E000521F0ED1641CA0B28DF8042018F80010EF
:1036F000002974D08DF80510401C84B28DF806A006
:103700003CE00E20B0EB121F16D1641CA0B28DF865
:10371000042018F80010002971D0401C80B28DF8E8
:10372000051018F80010002969D08DF80610401C0B
:1037300084B28DF807A021E01E20B0EBD20F1FD17C
:10374000641CA0B28DF8042018F80010002956D08F
:10375000401C80B28DF8051018F8001000294ED0DA
:10376000401C80B28DF8061018F80010002946D0D1
:10377000401C8DF8071084B28DF808A0002609E0DF
:10378000641CA4B236E0384601A9FCF7EFFC68B12E
:10379000761CB6B206EB860000EB461101EB090081
:1037A000074619A1FCF7E2FC0028ECD1BBF1080F99
:1037B00003D0BBF1060F1DD112E006EB860000EB33
:1037C000461101EB0900401D009003981023284486
:1037D00000B21A460499FFF705FF103509E00EE024
:1037E00003980623284400B23F220499FFF7DCFE29
:1037F000AD1DADB218F80420002A7FF45CAF07B00D
:10380000BDE8F08FE25B00080000000070B5084DD5
:10381000002400212046FFF7B6FE05EBC4108021EE
:1038200000F02DF8641CE4B2082CF2D370BD000047
:10383000D80C002008B1012200E0002240210148FC
:10384000FEF7ABB9000C014008B1012200E00022F4
:1038500080210148FEF7A1B9000C014010B50446D3
:10386000FFF713FE7820FFF7F3FD0020FFF7F0FDD0
:103870002046FFF7EDFDBDE81040FFF715BE70B51F
:103880000D460646FFF701FE7820FFF7E1FD4020D8
:10389000FFF7DEFD002404E0305DFFF7D9FD641C76
:1038A000E4B2AC42F8D3BDE87040FFF7FDBD0021A3
:1038B000016041608160C160C16101624162704725
:1038C0002DE9F0410446C0692062D4E90001FCF70B
:1038D000DCFC0646E0613146606AFCF784FC054684
:1038E00031466062FCF7D7FC304FB84213D325F065
:1038F00000453146A06AFCF7CEFC20F00040294686
:10390000FCF764FF07D2E169A06AFCF7C4FC616AB6
:10391000FCF769FC6062606910F0FF4F01D1002084
:103920006062E16A606AFCF75BFF01D2E06A606294
:10393000216B606AFCF74AFF01D2206B6062D4E918
:1039400007613046FCF7A1FCA169FCF7A4FC054621
:10395000616A6069FCF79FFC804631462069FCF78C
:103960009AFC4146FCF73FFC2946FCF73CFCE06032
:10397000B0F5000F03DBE16BFCF735FCE060B8420B
:1039800003D3E16BFCF781FCE060616BFCF728FF7F
:1039900001D2606BE060A16BE068FCF717FF01D219
:1039A000A06BE0606068A060BDE8F08100008080EE
:1039B00070477047012202490248FFF703B900002F
:1039C00035010020C80100200FB400B599B01BAA32
:1039D00068461A9900F0E4F9684600F00DF819B04D
:1039E0005DF814FB03490A681206FCD50149091D5C
:1039F000086070470038014000B5034602E05B1CD8
:103A0000FFF7F0FF18780028F9D100BDFEF7D0B815
:103A100030B58FB028216846FCF79DFB14210AA819
:103A2000FCF799FB01210804CDE900100024029461
:103A300002250491CDE907504FF4E0100990684643
:103A4000FEF72AFA08B172B6FEE70F20CDE90A05A3
:103A50004FF48060CDE90C4002210AA80E94FEF7D5
:103A60003FF9002801D072B6FEE70FB030BD7047B5
:103A70000148FEF7D2BC000080010020F0B50268CA
:103A8000194B1A4C1A4D4FF08047984205D0B84256
:103A900003D0A04201D0A84203D122F070064A68A8
:103AA0003243984205D0B84203D0A04201D0A84288
:103AB00003D122F44074CA6822434C6922F0800288
:103AC000224302608A68C2620A688262984201D117
:103AD00009690163012141610169C90703D00169D5
:103AE00021F001010161F0BD002C01400004004003
:103AF0000008004010B5846842EA032224F47F44A1
:103B00000A432243826010BD826822F070020A4399
:103B100042F007018160704710B5036A046A24F01F
:103B200001040462846924F0F00444EA021423F0DE
:103B30000A020A438461026210BD10B5036A046A76
:103B400024F010040462846923F0A00324F4704478
:103B500044EA023243EA01118261016210BD10B5EC
:103B6000406A0021C185C184FEF780FE10BD016856
:103B70000C3151E8002F22F4907241E80023002B11
:103B8000F5D10168143151E8002F22F0010241E81B
:103B90000023002BF5D1016B012909D101680C31FB
:103BA00051E8002F22F0100241E80023002BF5D14C
:103BB000202180F8421000210163704708B590F879
:103BC0004210222901D0022008BD82684FF48053A0
:103BD0009A4201D1016921B1816A9A421BD04AB14E
:103BE0000AE00268816A5268C2F308020A80816AA8
:103BF000891C08E0026972B10268526802F07F0213
:103C00000A70816A491C8162C18D491E0904090C30
:103C1000C18503D01BE002685268F1E70168CA68F9
:103C200022F02002CA600168CA6822F48072CA6069
:103C300001684A6922F001024A61202180F842109D
:103C400000214163026B012A03D0FEF7C9FF002067
:103C500008BD016301680C3151E8002F22F0100209
:103C600041E80023002BF5D101680A68D20602D58D
:103C70000A6849680091818DFEF7F7FDE7E70000CB
:103C800070B5044600680169E26821F440511143AF
:103C900001612169A0680843616908432168CA6815
:103CA00041F20C639A430243CA6020684169A269E9
:103CB00021F44071114341611E492068884202D1BC
:103CC000FEF7B4F801E0FEF7A1F800EBC00101EB4C
:103CD0000012606864218000B2FBF0F3B3FBF1F3E3
:103CE0006FF018067343B2FBF0F5B2FBF0F605EB8C
:103CF0008305322303EB0515B5FBF1F5B6FBF1F6B1
:103D000005F0F00505EB0615B2FBF0F6B2FBF0F09E
:103D1000B0FBF1F06FF01802504306EB800003EBAC
:103D20000010B0FBF1F0216800F00F00284488601B
:103D300070BD00000038014081628285C28500218B
:103D40004164222180F84210016921B10168CA68EA
:103D500042F48072CA6001684A6942F001024A6115
:103D60000068C16841F02001C16000207047000078
:103D70000148FEF77DBD0000C8010020FEE70000FD
:103D80000FB4054B10B503A9044A029800F08AF954
:103D900010BC5DF814FB0000934D00083C010020AE
:103DA00037B514460846064B6A46214600F07AF9B4
:103DB00004466946002000F0F8FC20463EBD0000A5
:103DC000AB470008490050EAC12018BF04204A0D43
:103DD00018BF40F0010040F2FF72B2EB515F08BF24
:103DE00040F00200012808BF052070470907090EAE
:103DF000002804DB00F1E02080F80014704700F098
:103E00000F0000F1E02080F8141D70470048704753
:103E1000400100202DE9F0414F1E00EBC701044690
:103E2000D1E9000115461E4637F006020DD02A469C
:103E30003346FCF753FB7F1E04EBC703D3E9002393
:103E4000FCF7A5FA37F00602F1D1022F25D0042F96
:103E500013D0062F18BFBDE8F0812A463346FCF781
:103E60003DFBD4E90A23FCF792FA2A463346FCF7D5
:103E700035FBD4E90823FCF78AFA2A463346FCF7D7
:103E80002DFBD4E90623FCF782FA2A463346FCF7D9
:103E900025FBD4E90423FCF77AFA2A463346FCF7DB
:103EA0001DFBD4E90223FCF772FA2A463346FCF7DD
:103EB00015FBD4E90023BDE8F041FCF768BA012204
:103EC000FDF771B8FCF763BA024A00201107FDF74D
:103ED0006AB8000001FDFFFF01480068704700005C
:103EE0004001002002E008C8121F08C1002AFAD1D0
:103EF00070477047002001E001C1121F002AFBD16A
:103F00007047000001490860704700004001002030
:103F10002DE9FF5F82B00021DDE90430020DDDF8FC
:103F200040B0034318D044F61050A2F2FF3242438F
:103F30001514119801281FD0A5EB0B00401C5FEA57
:103F4000000A4FF000064E4FDFF83891B046504659
:103F500015D5CAF1000413E0119801244AA30128E1
:103F600001D16FEA0B010298119AC0E90031C0E952
:103F7000024206B0BDE8F09FCBF10000DFE7044647
:103F80000021404A491842EB0450CDE9001012E0EC
:103F9000E00707D032463B4640464946FCF79EFACA
:103FA0008046894632463B4610461946FCF796FA4B
:103FB00006460F466410002CEAD1DDE90401DDE974
:103FC0000023BAF1000F06DAFCF788FA42464B46A6
:103FD000FCF784FA05E0FCF7F3FA42464B46FCF79F
:103FE000EFFA04460E460022284BFCF7BBFB03D831
:103FF0004FF0FF30014607E00022254B20463146B6
:10400000FCF7C5F9FCF778FD102409E0002C0ADB69
:104010000A220023FCF704FC039B30321A55641E6D
:1040200050EA0102F2D1641C039AC4F11103144452
:10403000119A012A03D0012208430DD10AE0084356
:1040400004D000204FF0110B119072E7A3EB0B0589
:104050006D1E0DE05B4504DD4FF0000205F101052A
:1040600004E003DA4FF00002A5F10105002AECD0CC
:1040700002981199C0E90231C0E9004579E70000D2
:10408000000014400000F03F300000000000F0434A
:104090000000E03F30380A2801D20120704700209C
:1040A000704700002DE9FF4F95B09A4688460646B6
:1040B0000025EEE1252877D100242746F94A012181
:1040C000039400E0044316F8013F203B01FA03F09B
:1040D0001042F7D130782A2811D06FF02F033078B2
:1040E000A0F13002092A16D8039A44F0020402EB28
:1040F000820203EB42021044761C0390EFE758F86B
:10410000042B0392002A03DA504244F40054039033
:1041100044F00204761C30782E2816D116F8010FD0
:1041200044F004042A280DD06FF02F023078A0F15B
:104130003003092B09D807EB870302EB4303C718A9
:10414000761CF3E758F8047B761C30786C280FD087
:1041500006DC4C2817D068280DD06A2814D104E05A
:10416000742810D07A280FD10DE044F400140AE02E
:1041700044F4801401E044F440147278824202D185
:1041800004F58014761C761C307866280BD013DC7E
:10419000582877D009DC002875D04528F6D0462865
:1041A000F4D047281AD193E118E0632835D0642869
:1041B00079D0652812D18BE1702873D008DC67288C
:1041C000F1D069286FD06E280DD06F2806D1ACE0F1
:1041D00073282CD0752874D0782853D0524617995C
:1041E00090476D1C54E1C4F30250022809D0032803
:1041F0000DD0D8F8001004280DD00D6008F1040887
:1042000046E1D8F80010EA17C1E90052F6E7D8F8FD
:1042100000100D80F2E70D70F0E718F8041B8DF820
:10422000001000208DF80100EB46012003E058F853
:1042300004BB4FF0FF3061074FF0000102D40DE0E6
:1042400009F101018946B9420FDA8145F8DB1BF813
:1042500009100029F4D108E009F1010189468142E1
:10426000FADB1BF809100029F6D103985346A0EB9E
:10427000090721463846179A00F080FA284400EBD7
:10428000090507E044E008E10DE01BF8010B524688
:1042900017999047B9F10109F7D25346214638469C
:1042A000179AF2E039E00A21C4F302524FF0000BF2
:1042B0000091022A06D058F8040BC117032A09D02E
:1042C0000AE023E008F1070020F00702F2E802010B
:1042D000904605E000B2C117042A01D140B2C117CF
:1042E000002906DA0A460021404261EB02012D2234
:1042F00002E0220504D52B228DF80420012203E0E0
:10430000E20701D02022F7E7914657E00A2100E0BA
:1043100010214FF0000B00910BE010214FF0000B2B
:1043200044F004040827009103E008204FF0000B3C
:104330000090C4F30252022A05D058F8040B002161
:10434000032A08D008E008F1070020F00702F2E88D
:104350000201904603E080B2042A00D1C0B24FF0BF
:10436000000922072AD53278702A07D0DDF800C06C
:104370008CF0100C5CEA0B0C05D00EE040228DF89E
:104380000420012208E050EA010306D030238DF812
:1043900004308DF8052002229146009B83F008032B
:1043A00053EA0B030AD150EA010201D1620705D595
:1043B00030228DF804204FF001097F1E3278582AF0
:1043C00004D039A20C920CAA02920BE03BA2F9E7AE
:1043D0005B46009AFCF724FA0C9B9B5C029A521EE7
:1043E0000292137050EA0102F2D1029804A9081A4D
:1043F00000F1200B600702D524F4803400E001278F
:104400005F4502DDA7EB0B0000E0002000EB0B0195
:10441000009003984944401A0390E00306D45346A1
:104420002146179A039800F0A9F90544002706E0F1
:1044300001A85246C05D179990476D1C7F1C4F45DF
:10444000F6DBE0030CD553462146179A039800F09B
:1044500095F9054404E030205246179990476D1CA9
:104460000099481E00900029F5DC08E002980299A6
:1044700052460078491C0291179990476D1CBBF178
:104480000001ABF1010BF1DC5BE100F065F90544E3
:10449000761C307800287FF40DAE19B02846BDE8B0
:1044A000F08F0000092801003031323334353637BF
:1044B0003839616263646566000000003031323370
:1044C0003435363738394142434445460000000010
:1044D000600700D4062708F1070020F00700F0E885
:1044E0000223804603F0004C5FEA0C0001D097A045
:1044F00009E0200501D596A005E0E00701D095A0D0
:1045000001E0AFF24C001390307823F000436528AF
:104510000CD006DC452809D046281DD047287FD17D
:104520003BE0662818D067287AD136E00021112FA9
:1045300001DB112000E0781CCDE9000104A90CA8E2
:10454000FFF7E6FCDDE90D010C9A4FF0000B07F1D7
:104550000109109200914EE04FF000400097CDE924
:10456000011004A90CA8FFF7D3FCDDE90D020C9B98
:104570000F994FF0000B91461093009211B9791CDE
:1045800000EB0109B7EB090003D4C0F1FF3B07F1D1
:104590000109A9EB0700019042E0012F00DA012791
:1045A0000021112F01DD112000E03846CDE9000186
:1045B00004A90CA8FFF7ACFCDDE90D010C9A0091F1
:1045C0004FF0000BB946109221070FD4009A4A45CC
:1045D00003DA914601E0A9F10109B9F1010F05DD06
:1045E000109AA9F10101515C3029F4D0B84202DAE5
:1045F00010F1040F03DA0121CDE9011010E00028C9
:1046000003DC8344A9EB000102E0411C494500DDC5
:104610008946A0EB0B00401C01904FF00040029037
:10462000200705D40198484502DB4FF0FF30019088
:1046300000208DF84B0002980DF14B07B0F1004FB0
:1046400025D002200C902B200D90029800280CDA27
:10465000404202902D200D9007E00A210298FCF7BD
:10466000C9F83031029007F8011D0C99481E0C90D2
:104670000029F2DC02980028EFD1791E0D9808700D
:10468000307800F0200040F0450007F8020D11A836
:10469000C01BC01D02901398007800B1012000EBF0
:1046A0000901019801EBE071029801440398401A56
:1046B000401E0390E00306D453462146179A039800
:1046C00000F05CF805441398007818B15246179929
:1046D00090476D1CE00323D553462146179A039853
:1046E00000F04CF805441BE0BBF1000F07DB00981D
:1046F000584504DD1098179910F80B0001E0179940
:1047000030205246904701980BF1010B401E05F1F5
:104710000105019004D12E205246179990476D1C37
:10472000B9F10001A9F10109DEDC05E017F8010B80
:104730005246179990476D1C0299481E0290002915
:10474000F4DC53462146179A03989EE62D0000009C
:104750002B000000200000002DE9F0410446002558
:104760001E461746880404D405E039462020B04789
:104770006D1C641EF9D52846BDE8F0812DE9F04195
:10478000044600251E469046C80301D5302700E0A8
:104790002027880404D505E041463846B0476D1C03
:1047A000641EF9D52846BDE8F0810A68531C0B60E9
:1047B000107070472DE9F84F04460D4621F0004077
:1047C00000917349814211DC7249884201DC06D1B3
:1047D0002CB120462946BDE8F84FFFF770BB6E4864
:1047E000002DCCBF6D496E49BDE8F88F6D498142FF
:1047F00011DD6D498142D8BF4FF0FF366DDD204697
:104800002946FFF7DFFA042808BFFFF75DFB2046C3
:104810002946BDE8F88F6549654F25F0004581427E
:1048200033DD6449814219DD002632464FF0804372
:1048300020462946FBF7ABFD80468A4601222046EA
:104840002946FCF7B0FB00223B46FBF741FE4246FF
:104850005346FBF7B5FE04460D463EE00126002216
:10486000BA463B4620462946FBF791FD80460F4657
:104870000022534620462946FBF72AFE42463B4685
:10488000FBF79EFE04460D4627E04B4981421BDDA7
:10489000DFF828A102260022534620462946FBF7CE
:1048A0001DFE00223B46FBF772FD80460F460022AC
:1048B000534620462946FBF70BFE42463B46FBF794
:1048C0007FFE04460D4608E0032622462B460020C4
:1048D0003B49FBF775FE04460D4622462B46104623
:1048E0001946FBF7FBFD8B46824602460B46FBF75B
:1048F000F5FD07460246334888460B4606217844B4
:10490000FFF788FA52465B46FBF7E8FD82462E48E1
:104910008B463A46434605217844FFF77BFA3A46F0
:104920004346FBF7DBFD02460B46002E5046594638
:104930000CDAFBF72CFD22462B46FBF7CFFD01B02E
:1049400022462B46BDE8F04FFBF7C5BDFBF71FFD28
:1049500022462B46FBF7C2FD1C4A7A4402EBC603F3
:10496000D3E90023FBF7B4FD22462B46FBF7B0FD4D
:10497000174A7A4402EBC603D3E90023FBF7ABFDE9
:10498000009A002AB8BF81F00041BDE8F88F00000E
:10499000000010440000F07F182D4454FB21F93F23
:1049A000FB21F9BF0000DC3F0000203E0000F33F88
:1049B0000000F03F0000E63F008003400000F83FA9
:1049C0000000F0BF6E1300002C130000CA1200009C
:1049D000921200002DE9F04D9446CCF1000423F032
:1049E00000464CEA0404594F46EAD4749A46884675
:1049F00021F00042BC4206D8454240EA050442EAA2
:104A0000D474BC4204D9BDE8F04D6246FFF75ABAEF
:104A1000AAF14055A5F17F6555EA0C040BD002249C
:104A200004EAAA744A4DDFF82CE144EAD87452EA49
:104A3000000B04D00CE0BDE8F04DFFF7BBBE002C2E
:104A400014BF012CBDE8F08D022C30D0032C32D0E5
:104A500056EA0C0B0AD0BE4220D1BA4209D126F048
:104A6000804622F080423346114617E000291ADBC7
:104A700025E0DFF8E4B0FB44002C04BFDBE90001D3
:104A8000BDE8F08D012C02BFDBE9000181F000419F
:104A9000BDE8F08D022C0AD0032C0CD0BA4212D102
:104AA000B8F1000F0BDA2A482C49BDE8F08D2846F2
:104AB0002B49BDE8F08D28467146BDE8F08D2448AD
:104AC0002849BDE8F08D921B12153C2AC4BF204F27
:104AD000244E10DCBAF1000FBEBF12F13C0F0027CC
:104AE0003E4608DB6246FBF76BFD21F00041FFF715
:104AF00061FE07460E4694B1012C08BF86F00046C1
:104B00000DD0194A194B022C3846314615D0FBF707
:104B1000DFFC2A46BDE8F04D114BFBF7D9BC002263
:104B2000134638463146FBF705FE04BF0220FFF767
:104B3000E9F938463146BDE8F08DFBF7C9FC2A4655
:104B4000BDE8F04D064BFBF7C6BC00000000F07F4F
:104B5000182D4454FB2109C026120000FB21F9BF87
:104B6000FB210940FB21F93F075C143326A6A13C39
:104B700030B583B00446FFF7AFF905460020CDE914
:104B80000000024621466846FBF7B7FE2846FFF7BD
:104B9000B9F9DDE9000103B030BD00001CB506A382
:104BA0000844D3E90023CDE9002380B26A460821F6
:104BB000FEF76EFB1CBD0000FFFFFFFFFFFFFFFDC8
:104BC00000218165416541648164C164016570476C
:104BD00010B5044690F84000012806D0022807D0FE
:104BE00003280FD0042808D110E02088002102E01B
:104BF00020884FF48071FFF7D1FF2046BDE81040B8
:104C0000FFF7DEBF20884FF40071F4E720884FF4EF
:104C10004071F0E790F8401001290BD002290CD028
:104C200003290ED0042910D100884FF4407100BF31
:104C300000F080B800880021FAE700884FF4807106
:104C4000F6E700884FF40071F2E7704770B504464C
:104C500008780D4600F00F00606008781023000906
:104C6000A060B1F8010040BAE060C9782A79090172
:104C700041EA121121612A79697902F00F0241EAB1
:104C800002216161D4F8B42082F0004100F062FB9F
:104C90002062D4F8B8200C2382F00041206900F093
:104CA00059FB6062D4F8BC200C2382F0004160699B
:104CB00000F050FBA062A879FBF7FAFCA063E8794A
:104CC000FBF7F6FCE06370BD70B5164C00254FF4A1
:104CD0008A7600BF05EB850000EB851004EB8000B1
:104CE0003146FBF738FA6D1C0A2DF3DB012024F85E
:104CF000020B002124F83E1B0B4A207704F8740BAA
:104D00000A4B0B4D2CC40226A4F85460A4F856108C
:104D100084F8B00084F8940004F5847484E82C00CE
:104D200070BD000010020020000048410000F0416A
:104D3000000020411CB506A30844D3E90023CDE9B7
:104D4000002380B26A460821FEF7A2FA1CBD0000CB
:104D5000FFFFFFFFFFFFFFFC2DE9F04107461D4667
:104D60000C461046FBF791FA06460120A840401E6B
:104D7000FBF795FC054621463846FBF786FA29469F
:104D8000FBF789FA3146FBF7B8FABDE8F041FBF7CB
:104D9000A5BC00B50346C0B2FEF724FE184600BD10
:104DA0008CB0FCF70DFFFE49486820F0E06040F051
:104DB00000704860FEF72CFEFEF766F9FEF742F938
:104DC000FEF704FAFEF7CEF9FEF77AFBFEF7D7F806
:104DD000FEF7F0FDFEF718FAFFF776FFF148FDF752
:104DE00081FAF24CF0484FF0010BE064A0F800B0FB
:104DF000002680F840B006624662866200F58A703E
:104E000002222065028080F840B006624662DFF828
:104E1000A083E84F4FF0804A04F1C80586622078ED
:104E20000028E06C05D0FFF7F5FE206DFFF7F2FEDD
:104E300004E0FFF7CDFE206DFFF7CAFE207810B129
:104E4000FEF76CF801E0FEF761F802210020FDF7A3
:104E500089FF10B1207830B12670FEF789FA3878D2
:104E600001280BD00DE0D1488830FEF720FDCF4857
:104E7000C830FEF71CFD84F800B0EEE7CC48FCF724
:104E8000EFF8D8F8001051451AD1CB49D8F80800EE
:104E9000FBF733FA2860C949D8F80C00FBF72DFA64
:104EA000A065D8F8040020F00042C548824205DC25
:104EB000D8F8101021F00041814209DD267007E08A
:104EC000C04A914204D1D8F80400FBF707FCA06166
:104ED000A06900287ED0012810D1206D006AFBF760
:104EE00016FC81460191E06C006AFBF710FC02465B
:104EF0000B46B5A0CDF80090FEF742FFA06902284E
:104F000010D1206D406AFBF702FC81460191E06CF4
:104F1000406AFBF7FCFB02460B46ABA0CDF80090C5
:104F2000FEF72EFFA069032810D1206D806AFBF7E1
:104F3000EEFB81460191E06C806AFBF7E8FB0246DC
:104F40000B46A1A0CDF80090FEF71AFFA069042837
:104F500013D1E06FFBF7DBFB81460391A06FFBF7FA
:104F6000D6FBCDE90001606FFBF7D1FB02460B4693
:104F700099A0CDF80890FEF703FFA069052831D16C
:104F8000DFF8289209F18809D9F80400FBF7BFFB84
:104F9000CDE90601D9F80000FBF7B9FBCDE9040122
:104FA000D9F81800616CFBF776F9FBF7B0FBCDE997
:104FB0000201D9F82410D9F81400FBF76CF9FBF7BB
:104FC000A6FBCDE90001D9F81C10D9F81000FBF7B9
:104FD00062F900E034E0FBF79AFB02460B4682A040
:104FE000FEF7CEFEA06906282AD16868FBF78FFB82
:104FF00006910A902868FBF78AFBCDE90401A869AD
:10500000A16CFBF748F9FBF782FBCDE90201696A65
:105010006869FBF740F9FBF77AFB01918146E96982
:105020002869FBF738F9FBF772FB0246069B0A98E2
:10503000CDE90603CDF800900B466BA0FEF7A0FE6D
:10504000E06C006AFBF763FBCDE9000100216CA373
:1050500006220846FEF782FAE06C406AFBF757FB2F
:10506000CDE9000169A3062208210020FEF776FAA7
:10507000E06C806AFBF74BFBCDE9000166A30622DA
:1050800010210020FEF76AFA206D006AFBF73FFB53
:10509000CDE900015AA3062220210020FEF75EFA86
:1050A000206D406AFBF733FBCDE9000157A30622D0
:1050B00028210020FEF752FA206D806AFBF727FBBB
:1050C000CDE9000154A3062230210020FEF746FA64
:1050D000606FFBF71CFBCDE9000152A30622002103
:1050E0004020FEF73BFAA06FFBF711FBCDE9000172
:1050F0004FA3062208214020FEF730FAE06FFBF7AD
:1051000006FBCDE900014DA3062210214020FEF749
:1051100025FAB4F9080000904BA306222021402074
:10512000FEF71CFAB4F90A00009047A306222821D2
:105130004020FEF713FAB4F90C00009042A30622B7
:1051400030214020FEF70AFAB4F90E0000903EA389
:10515000062220216020FEF701FAB4F91000009029
:1051600039A3062228216020FEF7F8F9B4F91200CD
:10517000009035A3062230216020FEF7EFF9387841
:10518000009033A3062238210020FEF7E7F92868B3
:10519000FBF7BDFA0622CDE900012FA338215FE01D
:1051A00000000140800100201002002000000020CB
:1051B00044010020340100200000A041000048C24A
:1051C0000000BE42000040405B706C6F742C25668E
:1051D0002C25665D000000005B706C6F742C2566EA
:1051E0002C25662C25665D005B706C6F742C256623
:1051F0002C25662C25662C25662C25665D00000076
:10520000503A2530352E326672000000563A25306D
:10521000352E3266722F7300543A2530352E3266A1
:105220004E6D000041613A2530352E326600000097
:1052300041673A2530352E326600000041663A2536
:1052400030352E3266000000253035640000000045
:1052500025303164000000002530322E3266000017
:105260004020FEF77BF9A06DFBF751FAAFF218036F
:10527000CDE90001062238216020FEF76FF9FEF724
:10528000C5FACCE52DE9FC5F04461646DDE90DA51F
:1052900054F8B42F9B468846DDF8309082F00041E8
:1052A00010233046FFF758FD6268074682F0004140
:1052B0000C235846FFF750FDA268064682F00041D5
:1052C0000C232846FFF748FD05460C23154A00210C
:1052D0004846FFF741FD04460C23134A002150467F
:1052E000FFF73AFD390A8DF800108DF80170310989
:1052F0008DF80210310141EA14218DF803108DF868
:10530000044001098DF80510010141EA15208DF8CE
:1053100006008DF807506A4608214046FDF7B8FFA1
:10532000BDE8FC9F0000FA430000A04008B508A2B9
:10533000C0F30221126800928DF800008DF8011070
:105340006A46042140F2FF70FDF7A2FF08BD00008D
:105350000000CC002DE9F04107461D460C461046E2
:10536000FAF793FF06460120A840401EFBF797F985
:1053700005463846FBF793F93146FAF78CFF294684
:10538000FAF7BBFF2146BDE8F041FAF72CBF010256
:1053900002030405060708090A0B0C0D0E0F101076
:1053A00000000000000000000102030406070809D5
:1053B00000000000010203040000000000000000E3
:1053C0000000000000000000000000F800000000E5
:1053D000000000333000000000160E00160E000022
:1053E000000000000000000040C07840C07840008D
:1053F000043F04043F040400007088FC08300000EF
:10540000001820FF211E0000F008F000E018000046
:1054100000211C031E211E0000F0088870000000FF
:105420001E21232419272110000000160E00000061
:105430000000000000000000000000E0180402006E
:10544000000000071820400000020418E0000000DF
:105450000040201807000000404080F080404000DD
:105460000202010F01020200000000F00000000033
:105470000101011F01010100000000000000000007
:1054800000B07000000000000000000000000000FC
:105490000001010101010101000000000000000005
:1054A00000303000000000000000000080601804A0
:1054B000006018060100000000E010080810E0007D
:1054C000000F102020100F00001010F80000000046
:1054D0000020203F2020000000700808088870008D
:1054E000003028242221300000300888884830000D
:1054F0000018202020110E000000C02010F800002D
:1055000000070424243F240000F8088888080800C5
:105510000019212020110E0000E0108888180000DA
:10552000000F112020110E0000380808C8380800AC
:105530000000003F0000000000708808088870002C
:10554000001C222121221C0000E010080810E000AD
:105550000000312222110F00000000C0C000000036
:105560000000003030000000000000C0C00000005B
:10557000000080B070000000000080402010080093
:10558000000102040810200040404040404040001C
:1055900004040404040404000008102040800000F7
:1055A0000020100804020100007048080808F000FC
:1055B0000000003036010000C030C828E810E000CC
:1055C0000718272423140B000000C038E000000057
:1055D000203C23020227382008F8888888700000C1
:1055E000203F202020110E00C03008080808380095
:1055F000071820202010080008F808080810E0000C
:10560000203F202020100F0008F88888E8081000AC
:10561000203F20202320180008F88888E808100080
:10562000203F200003000000C030080808380000B8
:1056300007182020221E020008F808000008F808B9
:10564000203F210101213F20000808F80808000040
:105650000020203F2020000000000808F808080073
:10566000C08080807F00000008F888C028180800EB
:10567000203F20012638200008F808000000000024
:10568000203F20202020300008F8F800F8F808001B
:10569000203F003F003F200008F830C00008F80815
:1056A000203F200007183F00E01008080810E00025
:1056B0000F10202020100F0008F808080808F0003C
:1056C000203F210101010000E01008080810E0005F
:1056D0000F18242438504F0008F8888888887000F4
:1056E000203F2000030C3020007088080808380094
:1056F0000038202121221C00180808F8080818008A
:105700000000203F2000000008F808000008F8080A
:10571000001F202020201F000878880000C83808BB
:10572000000007380E010000F80800F80008F80033
:10573000033C0700073C03000818688080681808CD
:1057400020302C03032C30200838C800C83808004B
:105750000000203F2000000010080808C83808009A
:105760002038262120201800000000FE020202003E
:105770000000007F40404000000C30C000000000EE
:10578000000000010638C00000020202FE00000016
:10579000004040407F000000002010080408102056
:1057A00000000000000000000000000000000000F9
:1057B00080808080808080800002040800000000DB
:1057C00000000000000000000000808080800000D9
:1057D0000019242222223F2008F8008080000000C7
:1057E000003F112020110E0000000080808000008A
:1057F000000E112020201100000000808088F80099
:10580000000E112020103F200000808080800000CA
:10581000001F222222221300008080F0888888182E
:105820000020203F20200000000080808080800039
:10583000006B94949493600008F8008080800000CE
:10584000203F210000203F200080989800000000A9
:105850000020203F202000000000008098980000D9
:1058600000C08080807F000008F8000080808000F9
:10587000203F24022D302000000808F8000000001E
:105880000020203F202000008080808080808000D9
:10589000203F20003F20003F0080800080800000EB
:1058A00000203F2100203F200000808080800000F9
:1058B000001F202020201F0080800080800000002A
:1058C00080FFA12020110E00000000808080800059
:1058D000000E112020A0FF8080808000808080004A
:1058E00020203F2120000100000080808080800077
:1058F0000033242424241900008080E080800000EC
:105900000000001F20200000808000000080800038
:10591000001F202020103F20808080000080808099
:1059200000010E3008060100808000800080808029
:105930000F300C030C300F0000808000808080004E
:105940000020312E0E312000808080000080808079
:1059500080818E7018060100008080808080800029
:105960000021302C2221300000000000807C020247
:1059700000000000003F404000000000FF00000069
:1059800000000000FF0000000002027C8000000018
:105990000040403F00000000008040408000008048
:1059A00000000000000101000000000000000000F5
:1059B000002F000000000700070000147F147F1470
:1059C00000242A7F2A1200231308646200364955F6
:1059D000225000000007000000001C2241000000CF
:1059E00041221C000014083E08140008083E080864
:1059F000000000A0600000080808080800006060BF
:105A00000000002010080402003E5149453E0000FD
:105A1000427F4000004261514946002141454B31DF
:105A2000001814127F10002745454539003C4A49AB
:105A3000493000017109050300364949493600061D
:105A40004949291E00003636000000005636000085
:105A50000008142241000014141414140000412200
:105A60001408000201510906003E4955592E007CD8
:105A70001211127C007F49494936003E41414122C2
:105A8000007F4141221C007F49494941007F0909AB
:105A90000901003E4149497A007F0808087F00005B
:105AA000417F4100002040413F01007F0814224116
:105AB000007F40404040007F020C027F007F0408CE
:105AC000107F003E4141413E007F09090906003E2A
:105AD0004151215E007F0919294600464949493153
