:020000040800F2
:1000000070070020F1170008290300082B030008DF
:100010002F03000833030008370300080000000026
:100020000000000000000000000000003B0300088A
:100030003D030008000000003F03000841030008E2
:100040000B1800080B1800080B1800080B18000804
:100050000B1800080B1800080B1800080B180008F4
:100060000B1800080B1800080B1800080B180008E4
:100070000B1800080B1800080B1800080B180008D4
:100080000B1800080B1800080B1800080B180008C4
:100090000B1800080B1800080B1800080B180008B4
:1000A0000B1800080B1800080B1800080B180008A4
:1000B0000B1800080B1800080B1800080B18000894
:1000C0000B1800080B1800080B1800080B18000884
:1000D0000B180008651700080B1800080B1800081B
:1000E0000B1800080B1800080B18000800F002F8A5
:1000F00000F03FF80AA090E8000C82448344AAF183
:100100000107DA4501D100F034F8AFF2090EBAE880
:100110000F0013F0010F18BFFB1A43F0010318473B
:100120002841000048410000103A24BF78C878C137
:10013000FAD8520724BF30C830C144BF04680C60ED
:10014000704700000023002400250026103A28BF35
:1001500078C1FBD8520728BF30C148BF0B60704739
:10016000782902F0A181002070471FB51FBD10B58E
:1001700010BD02F0F3FA1146FFF7F7FF00F008F8A0
:1001800002F011FB03B4FFF7F2FF03BC01F090FA99
:1001900086B0002401F022FA4FF4165001F096FACE
:1001A00000F0C0F900F0C5FD4FF478404A490880DE
:1001B0004A4882884AA103A802F03AF98BE00C2C45
:1001C00041D2DFE804F0060B0F13181D22272C3153
:1001D000363B4FF6FF7000F08AFD34E0002000F05F
:1001E00086FD30E01F2000F082FD2CE04FF47840C7
:1001F00000F07DFD27E04FF61F0000F078FD22E0C3
:100200004FF4FC6000F073FD1DE047F6FF7000F056
:100210006EFD18E04FF6E07000F069FD13E04FF658
:10022000074000F064FD0EE048F2304000F05FFD52
:1002300009E04CF2186000F05AFD04E04BF6404033
:1002400000F055FD00BF00BF4FF478402249088000
:1002500026A018210B46C822CDE9001028211E2017
:1002600001F07DF925A010210B46C822CDE9001030
:1002700046211E2001F073F923A010210B46C8224D
:10028000CDE900105A211E2001F069F903A81021C0
:100290000B46C822CDE900106E211E2001F05FF947
:1002A0001DA00C210B46C822CDE9001082211E2082
:1002B00001F055F9601CC4B20C2C00D1002419487F
:1002C000006808B9012000E00020164908604FF4DA
:1002D0007A7001F0C0F972E71400002038000020A5
:1002E0004C43442049443A25303458004D696E69E6
:1002F0002053544D3332205E5F5E00005446544C10
:10030000434420544553540041544F4D40414C49BF
:10031000454E54454B000000323031342F332F37D7
:1003200000000000A0012142704700BFFEE700BFAF
:10033000FEE700BFFEE700BFFEE77047704770476B
:10034000704700000CB50020019000906C480068D8
:1003500040F480306A49086000BF6948006800F4D2
:10036000003000900198401C0190009818B9019845
:10037000B0F5A06FF1D16248006800F4003010B110
:100380000120009001E0002000900098012843D156
:100390005C48006840F010005A4908600846006850
:1003A00020F0030008600846006840F00200086082
:1003B00053484068524948600846406848600846CB
:1003C000406840F4806048600846406820F47C1033
:1003D00048600846406840F4E810486008460068F5
:1003E00040F08070086000BF4548006800F0007071
:1003F0000028F9D04248406820F003004049486096
:100400000846406840F00200486000BF3C48406831
:1004100000F00C000828F9D10CBD10B5FFF792FFD1
:1004200010BD10B53648006840F00100344908603E
:100430000846406834490840314948600846006829
:10044000324908402E4908600846006820F48020A0
:1004500008600846406820F4FE0048604FF41F0022
:100460008860FFF7DAFF4FF000602949086010BD8F
:1004700010B5002100200022214B5B6803F00C0125
:1004800021B1042906D0082928D107E0214B224CAC
:10049000236027E01F4B204C236023E0184B5B6850
:1004A00003F47010164B5B6803F48032022303EBF5
:1004B000904022B9194B4343174C23600DE0104B79
:1004C0005B6803F4003323B1144B4343124C2360A5
:1004D00003E0104B4343104C236003E00D4B0E4CE4
:1004E000236000BF00BF064B5B68C3F303130C4CD3
:1004F000E15C094B1B68CB40074C236010BD00003A
:1005000000100240002002400000FFF8FFFFF6FE4E
:1005100008ED00E000127A000000002000093D0014
:100520000400002008B50121242001F09DFC4FF4B7
:100530008070ADF8000010208DF8030003208DF8C6
:1005400002006946094801F0D3F94FF48071074869
:1005500001F07BFA0420ADF800006946044801F080
:10056000C7F90421024801F070FA08BD00080140F3
:10057000001401404FF48071FA4A116008211160A3
:10058000F949086080211160121F11600821116073
:1005900070474FF48071F34A121F11600821121D39
:1005A0001160F149086080211160121F116008215B
:1005B0001160704700BF011EA0F10102D0B2FAD154
:1005C000704700B54FF08830E7490C390860091DC5
:1005D00008600020E44908608815E249091F0860A6
:1005E0000820091D0860402008600220FFF7E2FF94
:1005F000DD48001F006883B24020DA49091F086007
:10060000082008604FF03330D7490C390860091DC5
:1006100008604FF6FF70D4490860184600BD10B559
:1006200004460B462046FFF7A5FF4FF48070CD49E6
:10063000091F08600820091D0860CB48036080205E
:100640000860091F08600820086010BD10B5044646
:100650002046FFF78FFFFFF7B4FF10BD00B5C34979
:100660000889FFF787FF00BD4FF48071BD4A121F54
:1006700011600821121D1160BB49086080211160C2
:10068000121F116008211160704730B5014601F05A
:100690001F04C1F34513CA0AE50205EB43151544CF
:1006A000A8B230BD10B503460C46B0494889FFF7E3
:1006B00061FF4FF48070AB49091F08600820091DD5
:1006C00008601812A84908608020A6490860091F20
:1006D000086008200860400108600820091D0860C3
:1006E000D8B2A149086080209E490860091F0860AF
:1006F000082008609D498889FFF73CFF4FF480700F
:100700009849091F08600820091D086020129649B1
:100710000860802093490860091F0860082008606D
:10072000400108600820091D0860E0B28E49086099
:1007300080208C490860091F08600820086010BDEF
:100740002DE9F04104460D4688480088A04203DDAB
:1007500086484088A84202DC0020BDE8F081294696
:100760002046FFF79FFF2E20FFF704FFFFF729FF2A
:100770000646FFF726FF0646FFF723FF8046F7B23F
:100780004FF6FF7000EA0727F012C002B91240EAE4
:10079000411040EAE820E0E700B52920FFF7EAFE33
:1007A00000BD00B52820FFF7E5FE00BDF0B5064608
:1007B00000240027082E1CD2DFE806F00406090CEE
:1007C0000F12151800BF14E044F0800411E044F04B
:1007D00040040EE044F0C0040BE044F0200408E0C4
:1007E00044F0600405E044F0A00402E044F0E004BA
:1007F00000BF00BF362744F0080421463846FFF703
:100800000EFF04F0200068B1584800885749498815
:10081000884214DA554805884088544908800846BB
:1008200045800CE05148008850494988884206DDDF
:100830004E48058840884D490880084645804B4908
:100840004889FFF797FE4FF480704649091F0860FA
:100850000820091D086000204349086080204149A4
:100860000860091F0860082008604001086008202F
:10087000091D086000203C49086080203949086053
:10088000091F086008200860400108600820091D51
:10089000086036480088401E0012334908608020F6
:1008A00030490860091F086008200860400108609E
:1008B0000820091D08602D480078401EC0B22A4952
:1008C0000860802027490860091F08600820086028
:1008D00026498889FFF74EFE4FF480702149091F91
:1008E00008600820091D086000201F49086080205A
:1008F0001C490860091F0860082008604001086062
:100900000820091D0860002017490860802015494B
:100910000860091F0860082008604001086008207E
:10092000091D086011484088401E00120E490860E9
:1009300080200C490860091F0860082008604001F9
:1009400008600820091D086008488078401EC0B271
:1009500005490860802003490860091F08600820D5
:100960000860F0BD140801400C0C01403800002064
:1009700030B504460D4629462046FFF793FEFFF7A3
:100980006DFE4FF48070FE4908600820091D086064
:10099000FC480088FC4908608020F949091D08606E
:1009A000091F08600820086030BD30B503460C46BA
:1009B0001546F6494889FFF7DDFD4FF48070F04990
:1009C00008600820091D08601812EF49086080209F
:1009D000EB49091D0860091F0860082008604001F4
:1009E00008600820091D0860D8B2E7490860802027
:1009F000E349091D0860091F086008200860E349F1
:100A00008889FFF7B7FD4FF48070DD490860082042
:100A1000091D08602012DC4908608020D849091DA2
:100A20000860091F0860082008604001086008206D
:100A3000091D0860E0B2D44908608020D049091D32
:100A40000860091F0860082008604001091D08604F
:100A500008200860CD480089CB4908608020C8493B
:100A6000091D0860091F086008200860400108602F
:100A70000820091D0860C448056080200860091F1F
:100A800008600820086030BD2DE9F0410446BE2012
:100A9000FFF770FD4FF48070B94908600820091D08
:100AA00008600520B84908608020B549091D086024
:100AB000091F086008200860400108600820091D1F
:100AC0000860204601F0B1FE05464FF06632B04B9B
:100AD00001F0BEFE074601F07BFEAB4908608020B6
:100AE000A749091D0860091F086008200860400127
:100AF00008600820091D08600120A34908608020C3
:100B00009F49091D0860091F08600820086040010E
:100B100008600820091D0860FF209B4908608020AC
:100B20009749091D0860091F0860082008604001F6
:100B300008600820091D0860002093490860802093
:100B40008F49091D0860091F0860082008604001DE
:100B500008600820091D086000208B49086080207B
:100B60008749091D0860091F086008200860BDE862
:100B7000F08110B504468548847164B9F02083493A
:100B800008804FF4A07048802C2008812A204881DA
:100B90002B2088810BE04FF4A0707C490880F02066
:100BA00048802C2008812A2048812B208881002021
:100BB000FFF7FCFD10BD2DE9F04104460D46164639
:100BC000A019401E87B2E818401E1FFA80F86F492E
:100BD0004889FFF7CFFC4FF480706949086008200E
:100BE000091D086020126849086080206449091DB9
:100BF0000860091F0860082008604001086008209C
:100C0000091D0860E0B26049086080205C49091D48
:100C10000860091F0860082008604001086008207B
:100C2000091D086038125849086080205449091D80
:100C30000860091F0860082008604001086008205B
:100C4000091D0860F8B25049086080204C49091D10
:100C50000860091F0860082008604C498889FFF770
:100C600089FC4FF48070464908600820091D08601F
:100C700028124549086080204149091D0860091F64
:100C8000086008200860400108600820091D08600D
:100C9000E8B23D49086080203949091D0860091FF4
:100CA000086008200860400108600820091D0860ED
:100CB0004FEA28203449086080203149091D086026
:100CC000091F086008200860400108600820091D0D
:100CD000086008F0FF002C49086080202849091DA1
:100CE0000860091F086008200860BDE8F08170B541
:100CF00004460026254805884088454300210846CB
:100D0000FFF7D0FCFFF7AAFC00BF0FE04FF48070A4
:100D10001B4908600820091D08601B4804608020EA
:100D20000860091F086008200860761CAE42EDD3F9
:100D300070BD08B501210D2001F096F8012115487C
:100D400000F0A7FE4FF4FC70ADF8000010208DF805
:100D5000030003208DF8020069460948103800F0AE
:100D6000C7FD4FF4FC710648103800F06EFE4FF6D8
:100D7000FF70ADF80000694603480C380CE0000035
:100D800010080140140000200C0C01403800002025
:100D9000666604400002300000F0AAFD4FF6FF71C5
:100DA000F74800F052FE0020F6490860782000F075
:100DB00052FC0120F449C1F89401322000F04BFCB0
:100DC00001210020FFF72BFC322000F044FCD3204F
:100DD000FFF7D0FBFFF7F5FBEC498880FFF7F1FB4D
:100DE000EA498880FFF7EDFBE8498880084680885B
:100DF0004FF6FF7101EA0020E4498880FFF7E1FB2C
:100E0000E24989880843E149888008468188E0A052
:100E100001F002FBCF20FFF7ADFB0020FFF7B9FB8D
:100E2000C120FFF7B6FB3020FFF7B3FBED20FFF743
:100E3000A1FB6420FFF7ADFB0320FFF7AAFB122004
:100E4000FFF7A7FB8120FFF7A4FBE820FFF792FB49
:100E50008520FFF79EFB1020FFF79BFB7A20FFF712
:100E600098FBCB20FFF786FB3920FFF792FB2C2065
:100E7000FFF78FFB0020FFF78CFB3420FFF789FB87
:100E80000220FFF786FBF720FFF774FB2020FFF717
:100E900080FBEA20FFF76EFB0020FFF77AFB0020C3
:100EA000FFF777FBC020FFF765FB1B20FFF771FB07
:100EB000C120FFF75FFB0120FFF76BFBC520FFF7A9
:100EC00059FB3020FFF765FB3020FFF762FBC7209E
:100ED000FFF750FBB720FFF75CFB3620FFF74AFB1C
:100EE0004820FFF756FB3A20FFF744FB5520FFF759
:100EF00050FBB120FFF73EFB0020FFF74AFB1A2012
:100F0000FFF747FBB620FFF735FB0A20FFF741FB51
:100F1000A220FFF73EFBF220FFF72CFB0020FFF79B
:100F200038FB2620FFF726FB0120FFF732FBE020ED
:100F3000FFF720FB0F20FFF72CFB2A20FFF729FBF0
:100F40002820FFF726FB0820FFF723FB0E20FFF7E2
:100F500020FB0820FFF71DFB5420FFF71AFBA920F8
:100F6000FFF717FB4320FFF714FB0A20FFF711FBE5
:100F70000F20FFF70EFB0020FFF70BFB0020FFF711
:100F800008FB0020FFF705FB0020FFF702FBE12034
:100F9000FFF7F0FA0020FFF7FCFA1520FFF7F9FA47
:100FA0001720FFF7F6FA0720FFF7F3FA1120FFF7F3
:100FB000F0FA0620FFF7EDFA2B20FFF7EAFA5620A9
:100FC000FFF7E7FA3C20FFF7E4FA0520FFF7E1FA24
:100FD0001020FFF7DEFA0F20FFF7DBFA3F20FFF7C4
:100FE000D8FA3F20FFF7D5FA0F20FFF7D2FA2B20CF
:100FF000FFF7C0FA0020FFF7CCFA0020FFF7C9FA8C
:101000000120FFF7C6FA3F20FFF7C3FA2A20FFF7B7
:10101000B1FA0020FFF7BDFA0020FFF7BAFA00206E
:10102000FFF7B7FAEF20FFF7B4FA1120FFF7A2FAA3
:10103000782000F010FB2920FFF79CFA0020FFF732
:1010400098FD01204F49091F08604FF6FF70FFF718
:101050004EFE08BD2DE9F04F05460E461746984650
:10106000DDF824A04FF0000B781B401C1FFA80FB1A
:10107000344621E021462846FFF714FBFFF7EEFA3D
:101080004FF0000914E04FF48070454908600820D3
:10109000091D08603A480C30C0F800A080200860A4
:1010A000091F08600820086009F101001FFA80F993
:1010B000D945E8DB601C84B24445DBDDBDE8F08F38
:1010C0002DE9F84F07460D4690469946DDF828B0C1
:1010D000A8EB0700401C1FFA80FAA9EB0500401C92
:1010E00080B20090002424E0281981B23846FFF72E
:1010F000D9FAFFF7B3FA002617E04FF480702849B9
:1011000008600820091D086004FB0A603BF8100015
:101110001B490C31086080202149091D0860091F06
:10112000086008200860701C86B25645E5DB601C2C
:1011300084B200988442D7DBBDE8F88F2DE9FF4FD9
:1011400084B081468A460020039002900698A0EB66
:1011500009050798A0EB0A06CDF80490CDF800A089
:10116000002D01DD012705E00DB9002702E04FF059
:10117000FF376D42002E15DD4FF0010819E0000029
:10118000000C01409401214200002142380000205F
:10119000204C43442049443A25780D0A00000000C1
:1011A0001008014016B94FF0000802E04FF0FF3878
:1011B0007642B54201DD2C4600E034464FF0000B8C
:1011C00021E0009A91B2019A90B2FFF7D1FB039807
:1011D000284403900298304402900398A04205DD11
:1011E0000398001B03900198384401900298A04294
:1011F00005DD0298001B02900098404400900BF11E
:1012000001001FFA80FB601C8345DADD08B0BDE8F1
:10121000F08FF0B504460D4616461F462B46324663
:1012200029462046FFF78AFF3B46224629462046AC
:10123000FFF784FF3B46324639462046FFF77EFFE4
:101240003B46324629463046FFF778FFF0BD2DE990
:10125000F04306460F469046002445460320A0EB87
:1012600048093CE07A1B91B2321990B2FFF780FB3B
:101270003A1B91B2721990B2FFF77AFB3A1991B208
:10128000721990B2FFF774FB7A1991B2321990B2C9
:10129000FFF76EFB7A1991B2321B90B2FFF768FB31
:1012A0003A1991B2721B90B2FFF762FB7A1B91B2AE
:1012B000321B90B2FFF75CFB3A1B91B2721B90B2EB
:1012C000FFF756FB641CB9F1000F03DAA000801D84
:1012D000814404E0601B80000A3081446D1EAC42F2
:1012E000C0DDBDE8F0832DE9F84F80460E46174675
:1012F0001C46B3462046E31704EB5373DB1021462C
:101300004FEAE47C04EB5C7C4FEAEC0CA4EBCC0CE5
:10131000BCF1000F02D04FF0010C01E04FF0000CC7
:101320006344224604EBD27C4FEA6C0C03FB0CF3C3
:10133000DBB20093A7F12000C7B2002556E00C2CC9
:1013400007D107EB47009F4901EB800010F805909B
:1013500013E0102C05D19C4800EB071010F8059005
:101360000BE0182C07D107EBC700984901EB800070
:1013700010F8059001E0BDE8F88F4FF0000A2FE06B
:1013800009F0800030B19248028831464046FFF7AC
:101390000CFB07E00A9828B98E480288314640467F
:1013A000FFF703FB4FEA49604FEA1069701C86B2F1
:1013B00089484088B04200DCDDE7A6EB0B00A04284
:1013C0000AD15E4608F101001FFA80F882480088C1
:1013D000404500DCCFE706E00AF1010000F0FF0A1B
:1013E000BAF1080FCCDB00BF681CC5B2009885427B
:1013F000A5DB00BFBFE710B50246012000E0504367
:101400000B1EA1F10104E1B2F9D110BD2DE9FF4F8E
:1014100081B0074691461E460E9D4FF0000A0024FB
:1014200039E0301B401EC1B20A20FFF7E4FFB9FBD0
:10143000F0F00A21B0FBF1F201FB1208BAF1000F43
:1014400016D1701EA04213DDB8F1000F0ED100209E
:10145000AB4605EBDB71491001FB0471009088B2CB
:101460002B4620220299FFF73EFF12E04FF0010ABF
:101470000020AB4605EBDB71491001FB04710090C5
:1014800088B208F13001CAB22B460299FFF72BFF50
:1014900000BF601CC4B2B442C3DB05B0BDE8F08F2E
:1014A0002DE9FF4F82B0064692461F46DDE90F4800
:1014B0000020019000254DE0781B401EC1B20A209B
:1014C000FFF799FFBAFBF0F00A21B0FBF1F201FB44
:1014D0001209019850BB781EA84227DDB9F1000F10
:1014E00022D108F0800078B108F00100A34604EB97
:1014F000DB71491001FB0561009088B22346302260
:101500000399FFF7F0FE0EE008F00100A34604EB9C
:10151000DB71491001FB0561009088B2234620224F
:101520000399FFF7E0FE13E00120019008F00100AD
:10153000A34604EBDB71491001FB0561009088B202
:1015400009F13001CAB223460399FFF7CCFE00BF70
:10155000681CC5B2BD42AFDB06B0BDE8F08F2DE917
:10156000F84704460D4690469946DDE9096704F0C0
:10157000FF0A08EB04001FFA80F809EB05001FFAC8
:1015800080F916E0444502DB5446A81985B24D4562
:1015900000DB14E0002000903A78334629462046CC
:1015A000FFF7A1FE304606EBD07104EB61018CB26F
:1015B0007F1C38787E2802DC38782028E2DA00BFE9
:1015C000BDE8F8874C2A0008C02E0008B034000897
:1015D00014000020160000203800002010B56FF025
:1015E000040000F0F8FE2E4800682E49B0FBF1F030
:1015F0002D4908700846007800EB4001C1EBC0108F
:101600004FF6FF7101EAC0002849088010BD01466D
:10161000254A12784A434FF0E0235A6100229A612A
:101620001A46126942F001021A6100BF4FF0E0222F
:10163000106900F001021AB100F48032002AF5D0DE
:101640004FF0E022126922F001024FF0E0231A610C
:1016500000229A6170470146144A12884A434FF0AB
:10166000E0235A6100229A611A46126942F001028F
:101670001A6100BF4FF0E022106900F001021AB1B8
:1016800000F48032002AF5D04FF0E022126922F0F7
:1016900001024FF0E0231A6100229A6170470000B6
:1016A0000000002000127A00180000201A0000201C
:1016B00000BF704700BF4A4A128802F04002002A69
:1016C000F9D0C2B2464B1B1D1A80704710B586B0C8
:1016D0000446012144F2040000F0C6FB4FF4007000
:1016E000ADF8140003208DF8160018208DF81700AF
:1016F00005A93C4800F0FCF84FF48060ADF81400F8
:1017000004208DF8170005A9364800F0F1F82520CF
:101710008DF8000003208DF801008DF802000120F3
:101720008DF80300684600F00CFE01940020ADF82F
:101730000800ADF80A00ADF80C00ADF810000C2060
:10174000ADF80E0001A9264800F035FC012240F258
:101750002551234800F0C7FC0121214800F0B7FCC7
:1017600006B010BD10B540F225511D4800F0A0FD97
:1017700010B31B4800F01CFDC4B21B48008800F4E5
:101780000040C8B91848008800F4804060B10A2CB5
:1017900003D000201449088020E01348008840F45A
:1017A00000401149088019E00D2C06D10E48008830
:1017B00040F480400C49088010E00B480088C0F3DA
:1017C0000D000A490C5408480088401C064908804E
:1017D00008460088C72801DD0020088010BD0000F1
:1017E0000038014000080140200000204600002091
:1017F0000948804709480047FEE7FEE7FEE7FEE7A5
:10180000FEE7FEE7FEE7FEE7FEE7FEE704480549E0
:10181000054A064B7047000023040008ED0000084D
:10182000700100207007002070030020700300206A
:1018300010B50446CC48844208D10121042000F0B0
:101840002DFB0021042000F029FB46E0C74884421C
:1018500008D10121082000F021FB0021082000F020
:101860001DFB3AE0C248844208D10121102000F05B
:1018700015FB0021102000F011FB2EE0BD48844232
:1018800008D10121202000F009FB0021202000F0D8
:1018900005FB22E0B848844208D10121402000F035
:1018A000FDFA0021402000F0F9FA16E0B348844226
:1018B00008D10121802000F0F1FA0021802000F001
:1018C000EDFA0AE0AE48844207D10121801500F00C
:1018D000E5FA0021A01500F0E1FA10BD10B50121D4
:1018E000084600F0DBFA0021012000F0D7FA10BD15
:1018F0002DE9F041024600250026002000230024A7
:10190000002791F803C00CF00F0591F803C00CF00C
:10191000100CBCF1000F03D091F802C04CEA050591
:1019200091F800C0BCF1000F31D0146800202BE00A
:101930004FF0010C0CFA00F3B1F800C00CEA0306FA
:101940009E4220D183004FF00F0C0CFA03F7BC43EA
:1019500005FA03FC4CEA040491F803C0BCF1280F1B
:1019600006D14FF0010C0CFA00FCC2F814C00AE0DA
:1019700091F803C0BCF1480F05D14FF0010C0CFAEF
:1019800000FCC2F810C0401C0828D1D31460B1F884
:1019900000C0BCF1FF0F34DD546800202EE000F1E0
:1019A000080C4FF0010808FA0CF3B1F800C00CEA7B
:1019B00003069E4221D183004FF00F0C0CFA03F76F
:1019C000BC4305FA03FC4CEA040491F803C0BCF1E3
:1019D000280F05D100F1080C08FA0CF8C2F81480A1
:1019E00091F803C0BCF1480F07D100F1080C4FF08B
:1019F000010808FA0CF8C2F81080401C0828CED361
:101A00005460BDE8F0814FF6FF71018002218170C2
:101A10000421C17070470246002093680B400BB14F
:101A2000012000E0002070470146886880B27047BE
:101A300002460020D3680B400BB1012000E00020DB
:101A400070470146C86880B27047016170474161C4
:101A500070470AB1016100E041617047C1607047A1
:101A60004FF480320A4382618161826182698269B6
:101A7000704702460020434B18684FF680731840A9
:101A800040EA021008433F4B186070473E49C86166
:101A90007047F0B50A46002300240021002500F01D
:101AA0000046B6F1004F02D1364EF16901E0354EE5
:101AB0007168C0F3034583B200F44016B6F5401FC9
:101AC00008D121F070612F4E766826F070662D4F98
:101AD0007E6012E000F48016B6F5801F06D1032662
:101AE00006FA05F4A14341F0706106E0460D3601A7
:101AF00003FA06F6B14341F0706122B1460D36019A
:101B000003FA06F6314300F00046B6F1004F02D169
:101B10001C4EF16101E01B4E7160F0BD30B500223A
:101B20008B071C0F0F2303FA04F2164B08338C109B
:101B300053F824309343134C08348D1044F8253067
:101B400023468C1053F824308C07240F00FA04F439
:101B500023430C4C08348D1044F8253030BD0A491D
:101B6000DC3108607047000000080140000C0140B3
:101B7000001001400014014000180140001C014009
:101B8000002001400000014000002042DF480068C2
:101B900040F00100DD49086008464068DC49084023
:101BA000DA49486008460068DA490840D7490860C1
:101BB0000846006820F4802008600846406820F449
:101BC000FE0048604FF41F0088607047CF490968E5
:101BD00021F48031CD4A11601146096821F4802139
:101BE0001160B0F5803F03D0B0F5802F0ED106E034
:101BF000C649096841F48031C44A116007E0C3490D
:101C0000096841F4A021C14A116000E000BF00BF93
:101C1000704710B501460022002300204A11012A16
:101C200002D1BA4C236806E0022A02D1B74C236ADB
:101C300001E0B64C636A01F01F02012494401C408D
:101C40000CB1012000E0002010BD38B5002000904C
:101C50000024002500BF3120FFF7DBFF0546009878
:101C6000401C00900098B0F5A06F01D0002DF2D07C
:101C70003120FFF7CEFF08B1012400E00024204608
:101C800038BD01460020A14A106820F0F80040EA63
:101C9000C10010607047A0490860704702460020EC
:101CA0009A4B586820F47C1042EA01031843974B82
:101CB0005860704798490866704701460020934A6B
:101CC000506820F003000843506070478F48406818
:101CD00000F00C007047014600208C4A506820F04C
:101CE000F00008435060704701460020874A506862
:101CF00020F4E06008435060704701460020834AAA
:101D0000506820F4605040EAC1005060704729B12B
:101D10007E4A527A02437D4B5A7204E07B4A527AE1
:101D200082437A4B5A7270477B49D83108607047BA
:101D300001460020754A506820F440400843506036
:101D400070470021714A20321170704A82F82010C9
:101D5000012802D004280AD104E001216B4A203274
:101D6000117005E00521694A2032117000E000BFC2
:101D700000BF70476949086070476449096A0143B8
:101D8000624A11627047654944390860704730B54E
:101D900000210022002400235C4D6D6805F00C0139
:101DA00021B1042905D0082923D105E05C4D056047
:101DB00022E05B4D05601FE0544D6D6805F4701224
:101DC000524D6D6805F48034022505EB92421CB932
:101DD000544D554305600BE04C4D6D6805F40035DE
:101DE0001DB1504D5543056002E04D4D5543056012
:101DF00002E04B4D056000BF00BF444D6D6805F02B
:101E0000F0010909484D6B5C0568DD4045603F4DB8
:101E10006D6805F4E061090A434D6B5C4568DD407F
:101E200085603A4D6D6805F46051C90A3E4D6B5CA2
:101E30004568DD40C560354D6D6805F44041890B4E
:101E40003A4D6B5CC568B5FBF3F5056130BD29B152
:101E50002E4A526902432D4B5A6104E02B4A5269C3
:101E600082432A4B5A61704729B1284A926902433A
:101E7000264B9A6104E0254A92698243234B9A617A
:101E8000704729B1214AD2690243204BDA6104E04C
:101E90001E4AD26982431D4BDA61704729B11B4A41
:101EA000D2680243194BDA6004E0184AD2688243D0
:101EB000164BDA60704729B1144A12690243134B7A
:101EC0001A6104E0114A12698243104B1A6170478B
:101ED00012494039086070470F49C86470470B4980
:101EE000C87170470948406A40F0807007494862ED
:101EF000704701460020054A92680A400AB1012055
:101F000000E00020704701498872704700100240CD
:101F10000000FFF8FFFFF6FE00004242800442424C
:101F200000127A0000093D0022000020320000204B
:101F300010B50446FB48844209D101218803FFF70C
:101F4000ADFF00214FF48040FFF7A8FF32E0F648D4
:101F5000844209D101214804FFF7ADFF00214FF46D
:101F60000030FFF7A8FF25E0F048844209D10121A5
:101F70008804FFF7A0FF00214FF48020FFF79BFFAC
:101F800018E0EB48844209D10121C804FFF793FF10
:101F900000214FF40020FFF78EFF0BE0E54884425C
:101FA00008D101210805FFF786FF00214FF48010BA
:101FB000FFF781FF10BD2DE9F04786B005460E46BC
:101FC0000024A24600BFA1460027B08900B100BF8F
:101FD0002F462C8A4CF6FF700440F08804432C8274
:101FE000AC894EF6F3100440B088318908437189FA
:101FF00008430443AC81AC8A4FF6FF400440B089EB
:102000000443AC8201A8FFF7C2FEC648874202D152
:10201000DDF810A001E0DDF80CA0A88900F4004074
:1020200040B10AEBCA0000EB0A1031684900B0FB6E
:10203000F1F807E00AEBCA0000EB0A1031688900EA
:10204000B0FBF1F86420B8FBF0F004012009642132
:1020500001FB1089A88900F4004040B1322000EB58
:10206000C900B0FBF1F000F00700044308E03220A3
:1020700000EB09106421B0FBF1F000F00F00044305
:102080002C8106B0BDE8F0874FF4165101600021A5
:102090008180C18001810C214181002181817047B3
:1020A00010B502460020108A4FF2FF0318400B883B
:1020B0004C8823438C882343CC88234318431082C5
:1020C00010BD0021018041808180C180704721B115
:1020D000828942F40052828104E082894DF6FF73C6
:1020E0001A4082817047F0B503460024002600257F
:1020F000002040F66A17B94200D100BF1846C1F36C
:10210000421401F01F06012707FA06F5012C01D140
:102110000C3004E0022C01D1103000E014301AB170
:1021200007682F43076002E00768AF430760F0BD10
:102130001AB1838A0B43838202E0838A8B438382B2
:102140007047028A4FF6F0731A400282028A0A43ED
:102150000282704782894FF2FF731A40828182891E
:102160000A438281704721B1828942F00202828152
:1021700004E082894FF6FD731A4082817047028A1B
:102180004FF6DF731A400282028A0A4302827047C6
:1021900021B1028A42F48042028204E0028A4BF6B4
:1021A000FF731A4002827047C1F3080282807047B1
:1021B00001468888C0F308007047818941F0010119
:1021C00081817047028BD2B20283028B42EA0122E4
:1021D00002837047028B02F47F420283028B0A4320
:1021E0000283704721B1828A42F02002828204E099
:1021F000828A4FF6DF731A408282704721B1828A49
:1022000042F01002828204E0828A4FF6EF731A4095
:102210008282704721B1828A42F00802828204E001
:10222000828A4FF6F7731A408282704721B1828901
:1022300042F40042828103E08289C2F30E0282816D
:10224000704721B1828A42F40062828204E0828A6D
:102250004FF2FF731A4082827047828A4FF6FB73F7
:102260001A408282828A0A438282704721B1828A1E
:1022700042F00202828204E0828A4FF6FD731A4025
:102280008282704702460020B1F5007F00D100BF76
:1022900013880B400BB1012000E00020704701F4CF
:1022A0000072B2F5007F00D100BFCA4302807047C0
:1022B00070B50246002400230025002040F66A166F
:1022C000B14200D100BFC1F3421501F01F03012646
:1022D00006FA03F3012D02D19689334006E0022D60
:1022E00002D1168A334001E0968A33400C1201264F
:1022F00006FA04F41688344013B10CB1012000E052
:10230000002070BD10B50022002340F66A14A142DF
:1023100000D100BF0A1201249440A3B2DC43048020
:1023200010BD00000038014000440040004800405B
:10233000004C00400050004031490143314A1160D7
:10234000704770B5002100230F22C47804B32D4CD0
:10235000246804F4E064C4F5E064210AC1F10403D4
:10236000CA40447804FA03F18478144021430901F7
:10237000254C0678A155047804F01F050124AC40D3
:1023800005786D11AD0005F1E025C5F8004109E0C3
:10239000047804F01F050124AC401C4D067876112A
:1023A00045F8264070BD1A4A0A400243154B1B1FD0
:1023B0001A60704739B1134A121D12680243114B5B
:1023C0001B1D1A6006E00F4A121D126882430D4B56
:1023D0001B1D1A607047042808D14FF0E0210969DD
:1023E00041F004014FF0E022116107E04FF0E021DD
:1023F000096921F004014FF0E022116170470000EB
:102400000000FA050CED00E000E400E080E100E0EF
:1024100080FFFF1F704700000FB4044910B503AAE6
:10242000029800F085F910BC5DF814FB1C00002038
:102430000FB41CB5074B06AA7B446946009005986B
:1024400000F05DF90020694600F06CF91CBC5DF8F5
:1024500014FB0000E902000070B5044685690068BD
:10246000C10601D5302600E02026C00707D070BD88
:10247000D4E9012130469047206A401C20626D1E3D
:10248000F6D570BD70B5044685690078C00707D1E0
:1024900070BDD4E9012120209047206A401C2062B1
:1024A0006D1EF6D570BD000070B504460D46214680
:1024B0001068AFF300802188090502D50F4A7A44DD
:1024C00002E00E4A7A440E32002104F1240305E0B2
:1024D00000F00F060009965D5E54491C0028F7D1F4
:1024E00020780023000704D5702D02D009B1022303
:1024F00011322046BDE8704000F0A2B84A1D00002D
:102500002DE9F05F894604464FF0000ADFF824B158
:10251000FB44C0F820A02046E168884700287DD011
:10252000252806D0D4E901219047206A401C20626A
:10253000F1E700255F462046E168884720280646E7
:1025400007DB312E05D2B81910F8200C08B105436D
:10255000F1E7A80701D525F00405C4F81CA0002761
:10256000C4F818A02A2E09D0304600F029F938B353
:1025700004EB8708303EC8F8186019E059F8041BCE
:10258000204604EB87029161E1688847012F0646E7
:1025900018D1E069002820DA25F020051DE0D8F8E0
:1025A000180000EB800006EB40003038C8F8180037
:1025B0002046E1688847064600F002F90028EED17F
:1025C000012F0AD02E2E08D12046E16888477F1CB3
:1025D0000646022F45F02005C4DBA069002803DA77
:1025E000404245F00105A061E80701D025F0100543
:1025F000A6B1A6F14100192802D8203645F400659D
:102600004A463146204625604D46FDF7A9FD60B19A
:10261000012807D0ED1D25F0070000E007E000F1DC
:10262000080978E705F1040975E730467AE7206A7A
:10263000BDE8F09F201D000070477047704770474D
:102640002DE9F0470D4699469246044600F12408CC
:102650000168880604D5E06921F01001216000E0DE
:102660000120A84201DD471B00E00027A1697A197B
:1026700002EB0900081AA0612078C00602D42046A7
:10268000FFF7EAFE002608E0D4E901211AF8060067
:102690009047206A401C761C20624E45F4DB20786F
:1026A000C0060AD52046FFF7D7FE06E0D4E901218F
:1026B00030209047206A401C2062381EA7F1010795
:1026C000F4DC07E0D4E9012118F805009047206AFE
:1026D000401C2062281EA5F10105F3DC2046FFF70F
:1026E000D1FE2078000602D50220BDE8F087012047
:1026F000FBE7000001694A1C02610878704700B5D9
:102700008FB0CDE901310021059105497944CDE92A
:10271000031011466846FFF7F3FE0FB000BD00003E
:10272000E5FFFFFF0A6802F8010B0A60704700002E
:10273000074B70B50D467B44FFF7E1FF0446284682
:1027400000F008F810B14FF0FF3070BD204670BDAA
:102750007BEFFFFF007B00F080007047754600F0C4
:102760002BF8AE4605006946534620F00700854623
:1027700018B020B5FFF74AF8BDE820404FF000063A
:102780004FF000074FF000084FF0000B21F0070159
:10279000AC46ACE8C009ACE8C009ACE8C009ACE89C
:1027A000C0098D46704710B50446AFF3008020463F
:1027B000BDE81040FDF7E6BC00487047100100205E
:1027C00030380A2801D201207047002070470000ED
:1027D0004FEA1153A3F58063D3F11E03A8BFD3F1D1
:1027E000200C08DB4FF0004242EAC12252EA50526C
:1027F00032FA03F0704709420BD4102BC4BF0020FB
:10280000704703F5787CBCF1FF3F05D04FF0FF30F7
:1028100070474FF00000704770B500F0C3F800BF7C
:102820004992248000207047F0E7B0FA80F310FA54
:1028300003F10AD0C3F11D0303F580634FEA415051
:102840004FEA035202EBD12170474FF0000070476E
:10285000DFF848C170B51CEA111E1EBF1CEA131533
:102860009EEA0C0F95EA0C0F00F06F8081EA0304DA
:1028700023EA4C134EEAD47E21EA4C1141F4801134
:1028800043F48013AE44A1FB024CA0FB0365AEF100
:102890007F7E361955EB0C05A1FB034C4CF1000370
:1028A000A0FB021C16EB0C06654153F10003094224
:1028B00018BF46F0010613F4007F0BD14FEA033135
:1028C0004FEA0530340341EA155140EA16506FF0E3
:1028D00003020AE04FEAC3214FEAC520F40241EAAD
:1028E000555140EA56506FF0020202EB2E4201EBC6
:1028F000025585EACE710AD05FEA440C18BF24F075
:10290000004450F1000041F1000120EAD47040F28F
:10291000FE7C624500D270BDA84214BF4FF08044D7
:102920004FF04044002E08BF0024BEF1806FA8BFC6
:10293000A1F1C041BDE8704080F282804FF00000FC
:1029400001F1C04101F0004170479EEA0C0F0CEA12
:10295000131518BF95EA0C0F06D04FF0000081EA5E
:10296000030E0EF0004170BD00F01CF88900013E1E
:1029700000F007B800F009B84FEA430C5FEA5C5C6E
:1029800008D081EA030100F05BB84FEA410C5FEA2E
:102990005C5CF6D14FF00000014970470000FF0772
:1029A0000000F87F0EF1020E2EF0030E5EF8046BAD
:1029B000364205D4012A43EB030515F5001F12D852
:1029C000012841EB010C1CF5001F0CD80ED14FEA79
:1029D000D17C15F5001F0CEB4C0C0CF1020C08BF60
:1029E0004CEBD37C04E04FF0080C01E04FEAD37CC1
:1029F0000CEB4C0526FA05F606F00706B6F1040CBA
:102A000006D20EEB860CBDE870404CF0010C60471E
:102A1000DFE80CF0090B02024FF000414FF000001C
:102A2000A1F5002170BD19461046012851EB0104A3
:102A300018BFD4F5001484BF002001F0004170BD20
:102A40000808A0F500114FEA3101704700000000AE
:102A50000000000000000000000000003F400000F7
:102A60000000000000003000400030004000000086
:102A700009000BC03D000BC03D00090018C02440F8
:102A80007FE0224031800000180024C01B000D8030
:102A90003240018003801C4027401C8007400040DA
:102AA00010006000000000000000000000000000B6
:102AB00000001F80204040200000402020401F8058
:102AC00000000000090006001F8006000900000049
:102AD000040004003F8004000400000000100060B7
:102AE00000000000000000000400040004000400D6
:102AF0000400000000000040000000000000000092
:102B0000002001C006003800400000001F80204067
:102B1000204020401F800000000010403FC00040C7
:102B20000000000018C0214022402440184000004E
:102B300010802040244024401B80000002000D0033
:102B400011003FC0014000003C802440244024404C
:102B5000238000001F802440244034400380000074
:102B60003000200027C03800200000001B802440D7
:102B7000244024401B8000001C0022C02240224030
:102B80001F8000000000000008400000000000005E
:102B900000000000046000000000000000000400CD
:102BA0000A001100208040400900090009000900C6
:102BB0000900000000004040208011000A000400CD
:102BC0001800200023402400180000001F8020402F
:102BD000274029401F400000004007C039000F0077
:102BE00001C0004020403FC0244024401B80000022
:102BF0001F802040204020403080000020403FC007
:102C0000204020401F80000020403FC024402E4034
:102C100030C0000020403FC024402E0030000000A3
:102C20000F001080204022403380020020403FC02F
:102C3000040004003FC02040204020403FC020400E
:102C4000204000000060202020203FC02000200005
:102C500020403FC024400B0030C0204020403FC0F7
:102C600020400040004000C03FC03C0003C03C008A
:102C70003FC0000020403FC00C4023003FC0200068
:102C80001F802040204020401F80000020403FC087
:102C900024402400180000001F802140214020E033
:102CA0001FA0000020403FC02440260019C0004063
:102CB00018C02440244022403180000030002040D1
:102CC0003FC020403000000020003F800040004016
:102CD0003F80200020003E0001C007003800200097
:102CE000380007C03C0007C038000000204039C051
:102CF000060039C0204000002000384007C038409E
:102D000020000000304021C02640384020C0000094
:102D1000000000007FE04020402000000000700024
:102D20000C000380004000000000402040207FE0B5
:102D30000000000000002000400020000000000013
:102D40000010001000100010001000100000000023
:102D50004000000000000000000002800540054027
:102D600003C0004020003FC0044004400380000036
:102D7000000003800440044006400000000003807F
:102D8000044024403FC0004000000380054005404F
:102D900003400000000004401FC0244024402000E5
:102DA000000002E0055005500650042020403FC0BE
:102DB0000440040003C000400000044027C000405D
:102DC0000000000000100010041027E000000000C8
:102DD00020403FC00140070004C004402040204084
:102DE0003FC000400040000007C0040007C00400CE
:102DF00003C00000044007C00440040003C00040BA
:102E0000000003800440044003800000041007F029
:102E1000045004400380000000000380044004507C
:102E200007F00010044007C0024004000400000046
:102E3000000006400540054004C0000000000400FA
:102E40001F80044000400000040007800040044050
:102E500007C000400400070004C001800600040011
:102E6000060001C0070001C006000000044006C0C3
:102E7000010006C0044000000410071004E00180B7
:102E8000060004000000044005C0064004400000A5
:102E90000000000004007BE0402000000000000073
:102EA0000000FFF000000000000040207BE0040074
:102EB0000000000040008000400020002000400092
:102EC0000000000000000000000000000000000002
:102ED0000000000000001FCC000C000000000000FB
:102EE00000000800300060000800300060000000B2
:102EF000022003FC1E20022003FC1E2002200000F2
:102F000000000E1811043FFF10840C780000000030
:102F10000F0010840F3800C0077818840078000074
:102F200000780F8410C411240E9800E40084000877
:102F300008006800700000000000000000000000B1
:102F400000000000000007E0181820044002000004
:102F5000000040022004181807E0000000000000F4
:102F60000240024001800FF0018002400240000058
:102F70000080008000800FF800800080008000004A
:102F80000001000D000E0000000000000000000025
:102F900000000080008000800080008000800080B1
:102FA0000000000C000C0000000000000000000009
:102FB00000000006001800600180060018002000D4
:102FC000000007F0080810041004080807F00000CB
:102FD0000000080408041FFC0004000400000000B6
:102FE00000000E0C10141024104411840E0C00006C
:102FF00000000C1810041104110412880C70000059
:10300000000000E00320042408241FFC002400002A
:1030100000001F9810841104110410881070000023
:10302000000007F0088811041104188800700000DF
:1030300000001C00100010FC13001C001000000019
:1030400000000E3811441084108411440E38000022
:1030500000000700088C10441044088807F00000A6
:10306000000000000000030C030C00000000000042
:103070000000000000010106000000000000000048
:103080000000008001400220041008081004000025
:103090000220022002200220022002200220000042
:1030A0000000100408080410022001400080000005
:1030B00000000E001200100C106C10800F000000B9
:1030C00003E00C1813E4142417C4082807D00000E8
:1030D0000004003C03C41C40074000E4001C000442
:1030E00010041FFC1104110411040E88007000006C
:1030F00003E00C1810041004100410081C10000049
:1031000010041FFC100410041004080807F000004D
:1031100010041FFC1104110417C410040818000047
:1031200010041FFC1104110017C01000080000005B
:1031300003E00C181004100410441C780040000038
:1031400010041FFC10840080008010841FFC1004F9
:103150000000100410041FFC100410040000000004
:1031600000030001100110011FFE100010000000FC
:1031700010041FFC110403801464181C10040000C8
:1031800010041FFC1004000400040004000C0000E4
:1031900010041FFC1F0000FC1F001FFC1004000097
:1031A00010041FFC0C04030000E010181FFC1000AA
:1031B00007F00808100410041004080807F00000C5
:1031C00010041FFC10841080108010800F0000007D
:1031D00007F0081810241024101C080A07F2000039
:1031E00010041FFC1104110011C011300E0C00045A
:1031F00000000E1C11041084108410441C380000C0
:103200001800100010041FFC10041000180000002B
:1032100010001FF810040004000410041FF8100030
:1032200010001E0011E0001C007013801C00100034
:103230001FC0103C00E01F0000E0103C1FC0000059
:103240001004180C163401C001C01634180C1004F8
:1032500010001C00130400FC13041C0010000000EC
:103260000804101C1064108413041C0410180000BF
:103270000000000000007FFE40024002400200000B
:10328000000030000C0003800060001C0003000000
:1032900000004002400240027FFE000000000000EB
:1032A000000000002000400040004000200000001E
:1032B0000001000100010001000100010001000106
:1032C000000040004000200000000000000000005E
:1032D00000000098012401440144014400FC000462
:1032E00010001FFC00880104010400880070000029
:1032F000000000700088010401040104008800003F
:103300000000007000880104010411081FFC000483
:10331000000000F8014401440144014400C80000D9
:103320000000010401040FFC110411041100180035
:10333000000000D601290129012901C90106000068
:1033400010041FFC008401000100010400FC0004C3
:1033500000000104190419FC00040004000000002E
:103360000000000300010101190119FE0000000026
:1033700010041FFC0024004001B4010C01040000F3
:103380000000100410041FFC0004000400000000F2
:10339000010401FC0104010001FC0104010000FC26
:1033A000010401FC008401000100010400FC000490
:1033B000000000F8010401040104010400F8000009
:1033C000010101FF00850104010400880070000074
:1033D00000000070008801040104010501FF0001E4
:1033E0000104010401FC00840104010001800000CB
:1033F000000000CC012401240124012401980000D4
:1034000000000100010007F80104010400000000B1
:10341000010001F8000400040004010801FC00049C
:10342000010001800170000C0010016001800100AA
:1034300001F0010C003001C00030010C01F001006E
:1034400000000104018C00740170018C0104000073
:10345000010101810171000E00180160018001006D
:1034600000000184010C013401440184010C0000BE
:10347000000000000000000001003EFC400240028D
:103480000000000000000000FFFF0000000000003E
:103490000000400240023EFC01000000000000006D
:1034A00000006000800080004000400020002000FC
:1034B000000000000000000000000000000000000C
:1034C00000000000000000000000000000000000FC
:1034D00000000000000000000000000000000000EC
:1034E0000000000F80380FFE380F80380000000009
:1034F00000000000000000000000000000000100CB
:10350000000600000C00003800003100000600003A
:103510000C00003800003000000000000000000037
:1035200061800067F807F9800061800061800061B8
:10353000800061800067F807F9800061800000006A
:1035400000000000000001C0E003E0F006300804C5
:1035500018081FFFFE040E080787F00381E0000033
:103560000000000001F000060C00040408060C70C6
:1035700001F9C0000E00003BE000EC180708080449
:103580000C180003E00000000001E00007F003F861
:1035900018041C0804170807E1D003C0E00023B09A
:1035A000003C08002008000010000000000000019E
:1035B00000003100003200001C000000000000008C
:1035C00000000000000000000000000000000000FB
:1035D00000000000000000000000000000000000EB
:1035E0007F0001FFC00780F00C00181000042000CD
:1035F000020000000000002000021000040C00186F
:103600000780F001FFC0007F000000000000000004
:103610000000000000000000000000004200006602
:1036200000006600003C0000180003FFC000180006
:10363000003C000066000066000042000000000040
:10364000080000080000080000080000080001FF52
:10365000C000080000080000080000080000080082
:1036600000000000000100003100003200001C00DA
:10367000000000000000000000000000000000004A
:103680000000000000000000080000080000080022
:103690000008000008000008000008000008000002
:1036A000080000080000000000000000000000000A
:1036B0003800003800003800000000000000000062
:1036C00000000000000000000000000000000000FA
:1036D000000600001C000070000180000E00003891
:1036E0000000C0000700001C0000300000000000C7
:1036F000000000007F8001FFE003807006001804D6
:10370000000804000806001803807001FFE0007F35
:103710008000000000000000000001000801000817
:1037200001000803FFF807FFF80000080000080088
:10373000000800000000000000000001C03802C0C6
:1037400058040098040118040218040418061C18F0
:1037500003F81801E0F8000000000000000000017C
:10376000C0E003C0F00400080408080408080618B4
:103770000803F41801E7F00001E000000000000079
:10378000000000000300000D0000110000610000B7
:10379000810803010807FFF80FFFF8000108000186
:1037A000080000000000000000E007FCD006080848
:1037B000061008061008061008061838060FF0064E
:1037C00007C0000000000000000000003F8001FF73
:1037D000E0038430020818041008041008041008DC
:1037E000071810030FF00007C000000000000000E1
:1037F000000003C0000700000600000600F80607EE
:10380000F806180006E000070000060000000000AF
:1038100000000001E1E003F7F0063410041808048A
:103820001808040C08040C0806161803F3F001C16C
:10383000E000000000000000F80003FC3003063840
:103840000402080402080402080404100308F0013A
:10385000FFC0007F0000000000000000000000002A
:103860000000000000000000703800703800703860
:103870000000000000000000000000000000000048
:10388000000000000000000000000000301A0030BE
:103890001C0000000000000000000000000000000C
:1038A00000000000000000080000140000220000DA
:1038B0004100008080010040020020040010080048
:1038C000080000000000000021000021000021008D
:1038D0000021000021000021000021000021000043
:1038E000210000210000000000000000000008008E
:1038F0000804001002002001004000808000410008
:103900000022000014000008000000000000000376
:10391000C00004C000040000080038080F38080880
:10392000380810000C300007E00003C00000000061
:10393000000000003F8000FFE0038070020F1006CF
:10394000708804C088048308047F8802C090030143
:103950002000FE400000080000180001F8003E08AA
:1039600001C20007020007E20000FE00001FC800BD
:1039700001F800003800000804000807FFF807FFFE
:10398000F8040808040808040808040808061808C9
:1039900003F41801E7F00001E0000000000000005F
:1039A0003F8001FFE003807002001804000804005B
:1039B000080400080400100600200780C000000072
:1039C00004000807FFF807FFF804000804000804D3
:1039D000000804001802001003807001FFE0007F5F
:1039E0008000000004000807FFF807FFF80408083B
:1039F000040808040808040808043E08040008062F
:103A0000001801006000000004000807FFF807FF2D
:103A1000F8040808040800040800040800043E0034
:103A20000600000600000180000000000000000009
:103A30003F8001FFE00380700600180400080402C4
:103A4000080402080203F00783F0000200000200ED
:103A500004000807FFF807FFF80408080008000042
:103A6000080000080000080004080807FFF807FF26
:103A7000F80400080000000000000400080400082A
:103A800004000807FFF807FFF80400080400080412
:103A90000008000000000000000000000006000018
:103AA0000700000104000104000104000307FFFEF9
:103AB00007FFFC04000004000004000004000807E5
:103AC000FFF807FFF8040C08001800003E0004C7C8
:103AD000800503C80600F804003804001800000838
:103AE00004000807FFF807FFF804000800000800BA
:103AF000000800000800000800000800001800008E
:103B00006000000004000807FFF807800807FC00B9
:103B1000007FC00003F80007C00078000780080796
:103B2000FFF807FFF804000804000807FFF8070083
:103B30000803C00000E000003800001E000007007D
:103B40000001C00400F007FFF804000000000000BE
:103B50007F8001FFE0038070060018040008040065
:103B60000806001803003001FFE0007F800000001D
:103B700004000807FFF807FFF80404080404000421
:103B80000400040400040400060C0003F80001F023
:103B900000000000000000007F8001FFE003807053
:103BA0000600880400880400C806003C03003E01AB
:103BB000FFE6007F8400000004000807FFF807FF0D
:103BC000F8040808040800040C00040F00040BC0EB
:103BD0000610F003F03801E00800000800000001C2
:103BE000E0F803F030063010041808041808040C3C
:103BF00008040C080206180207F00781E000000024
:103C00000180000600000400000400000400080712
:103C1000FFF807FFF8040008040000040000060095
:103C20000001800004000007FFE007FFF004001817
:103C30000000080000080000080000080000080458
:103C4000001007FFE004000004000006000007E089
:103C50000007FE00041FE00001F80000380001E04A
:103C6000043E0007C0000600000400000400000736
:103C7000E00007FFC0041FF80007C007F80007FFB7
:103C800080043FF80007C004F800070000040000AB
:103C900000000004000806001807C07805F1C800FD
:103CA0003E00001F800463E80780F8060018040047
:103CB0000800000004000006000007800007E0087C
:103CC000047C08001FF80007F800180804E0080743
:103CD00000000600000400000000000100080600CB
:103CE000380400F80403E8040F08047C0805F00811
:103CF00007C0080700180400600000000000000072
:103D000000000000000000000000003FFFFE200057
:103D10000220000220000220000220000200000019
:103D200000000000000008000007000000C00000C4
:103D300038000006000001C000003000000E000046
:103D4000010000000000000000002000022000022E
:103D50002000022000022000023FFFFE00000000C1
:103D60000000000000000000000000000000000053
:103D700000080000100000300000200000300000AB
:103D8000100000080000000000000000000001001A
:103D9000000100000100000100000100000100001E
:103DA000010000010000010000010000010000010D
:103DB00000000000000000000020000020000010B3
:103DC00000001000000000000000000000000000E3
:103DD000000000000000000000F00019F8001B18AF
:103DE000002208002608002408002410003FF800E4
:103DF0001FF800000800001800000004000007FF82
:103E0000F80FFFF000181800100800200800200824
:103E1000003018001FF0000FC0000000000000007C
:103E200007C0001FF0001830002008002008002004
:103E300008003C08001C10000060000000000000AA
:103E40000000000007C0001FF00038180020080024
:103E5000200800200804101007FFF80FFFF00000F2
:103E6000100000000000000000000007C0001FF06C
:103E70000012300022180022080022080032080038
:103E80001E10000E20000000000000002000002096
:103E90000800200801FFF803FFF8062008042008A6
:103EA00004200807200003000000000000000000BC
:103EB000000E000E6E001FF30031B10020B1002093
:103EC000B1003191001F13002E1E00200E003000A3
:103ED00000000004000807FFF80FFFF800100800BA
:103EE0002000002000002008003FF8001FF800001C
:103EF000080000000000000000000020080020086A
:103F0000002008063FF8063FF800000800000800FF
:103F10000008000000000000000000000000000099
:103F200003000003002001002001002003063FFEE3
:103F3000063FFC000000000000000000000000043C
:103F4000000807FFF80FFFF8000188000300002FAA
:103F5000C00038F8002038002008000008000000E9
:103F60000000000000000400080400080400080726
:103F7000FFF80FFFF800000800000800000800002C
:103F800000000000002008003FF8003FF800100883
:103F9000002000003FF8003FF8001008002000005B
:103FA0003FF8003FF8000008000000002008003F34
:103FB000F8003FF800100800100000200000200862
:103FC000003FF8001FF8000008000000000000009B
:103FD00007C0000FF0001830003008002008002053
:103FE00008003008001830000FF00007C000000083
:103FF000000000002001003FFF003FFF0010110003
:104000002009002008002008003038001FF0000FB1
:10401000C00000000000000007C0001FF0003818BA
:10402000002008002008002009001011001FFF00D8
:104030003FFF0000010000000020080020080020D1
:1040400008003FF8003FF8000808001008002008AA
:1040500000200000300000300000000000000000E0
:104060000000000C78001E1800330800230800210F
:10407000080021880021980030F00038600000001E
:1040800000000000200000200000200000FFF003DE
:10409000FFF8002008002008002008000030000081
:1040A00000000000000000002000003FF0007FF84A
:1040B000000018000008000008002010003FF80071
:1040C0007FF0000010000000000000002000003021
:1040D00000003C00003F800023F0000078000070EA
:1040E000002380003C000030000020000020000081
:1040F0003C00003FE00023F80000E0002700003E05
:1041000000003FE00021F80001E0003E0000200038
:10411000000000002008002008003838003E680039
:1041200027800003C8002CF8003838002018002031
:1041300008000000000000002000003003003C01E7
:10414000003F830023EC000070002380003C00004F
:1041500020000020000000000000000000000038E7
:10416000080020380020F80023E8002F88003E08CF
:104170000038080020180000700000000000000057
:104180000000000000000000000000000800001413
:10419000001FF7FC300006200002000000000000B5
:1041A000000000000000000000000000000000000F
:1041B0000000FFFFFF000000000000000000000002
:1041C0000000000000000000000020000230000697
:1041D0001FF7FC00140000080000000000000000B1
:1041E0000000000000000000000000180000600057
:1041F0000040000040000020000010000008000007
:104200000400000400000C000010000030313233C4
:1042100034353637383941424344454640305800FA
:10422000303132333435363738396162636465662C
:104230004030780004000008000000000000000288
:10424000000100001000000068420008000000208B
:104250003800000028010008A042000838000020B3
:10426000380700004401000800A24A0400000000D2
:104270000000000001020304060708090000FFFF18
:10428000000000000000000000000000000001022B
:1042900003040102030406070809020406080000DB
:04000005080000ED02
:00000001FF
