:020000040800F2
:1000000078070020CD010008B33500081904000866
:10001000B13500087D020008153A00080000000014
:100020000000000000000000000000003137000860
:100030007F020008000000002D3600080538000887
:10004000E7010008E7010008E7010008E7010008F0
:10005000E7010008E7010008E7010008E7010008E0
:10006000E7010008E7010008E7010008E7010008D0
:10007000E7010008E7010008E7010008E7010008C0
:10008000E7010008E7010008E7010008E7010008B0
:10009000E7010008E7010008E7010008E7010008A0
:1000A000E7010008E7010008E7010008E701000890
:1000B000E7010008E7010008E7010008E701000880
:1000C000E7010008E7010008E7010008E701000870
:1000D000E701000859380008E7010008E7010008B7
:1000E000E7010008E7010008E7010008E701000850
:1000F000E7010008E7010008E7010008E701000840
:10010000E7010008E7010008E7010008E70100082F
:10011000E7010008E7010008E7010008E70100081F
:10012000E7010008E7010008E7010008E70100080F
:1001300000F002F800F03AF80AA090E8000C8244BF
:100140008344AAF10107DA4501D100F02FF8AFF29C
:10015000090EBAE80F0013F0010F18BFFB1A43F0A5
:1001600001031847A0550000C0550000103A24BFF5
:1001700078C878C1FAD8520724BF30C830C144BF0C
:1001800004680C607047000000230024002500264E
:10019000103A28BF78C1FBD8520728BF30C148BFEA
:1001A0000B6070471FB51FBD10B510BD00F033F8D0
:1001B0001146FFF7F7FF03F081FC00F051F803B49C
:1001C000FFF7F2FF03BC03F026FC0000094880475C
:1001D00009480047FEE7FEE7FEE7FEE7FEE7FEE729
:1001E000FEE7FEE7FEE7FEE704480549054A064B41
:1001F000704700000938000831010008780100202C
:1002000078070020780300207803002070477047AB
:10021000704770477047754600F02CF8AE460500F1
:100220006946534620F00700854618B020B5FFF711
:10023000DBFFBDE820404FF000064FF000074FF015
:1002400000084FF0000B21F00701AC46ACE8C009F4
:10025000ACE8C009ACE8C009ACE8C0098D467047FD
:1002600010B50446AFF300802046BDE81040FFF70C
:10027000A6BF00000048704718010020FEE7704745
:100280008000A0F1C040002904D0016841F00101C4
:10029000016070470168024A114001607047000028
:1002A000FEFF0F0010B5D0E901121143D0E903237E
:1002B0001A4311434269114382691143C2691143D0
:1002C000026A1143426A1143826A1143C26A1143AE
:1002D000026B114302689200A2F1C0421160816872
:1002E000082907D101688900A1F1C0410A6842F0DC
:1002F00040020A60416BD1E9002342EA03128B6895
:100300008C891B0243EA04431A430B8A42EA0352D4
:100310000B7D896942EA03620A430168491C89002E
:10032000A1F1C0410A60C16AB1F5804F08D00068F0
:100330006FF070418000A0F1C040C0F8041110BD02
:10034000816BD1E9002342EA03128B680C8A1B02FD
:1003500043EA04531A430B7D896942EA0362006849
:100360000A438000A0F1C040C0F8042110BD2DE96F
:10037000F0410022CC7804F00F03E40601D58C781C
:1003800023430C784FF00F0714F0FF0F4FF0010CD0
:100390001CD005680CFA02F40E882640A64211D142
:1003A000960007FA06F825EA080503FA06F848EA6F
:1003B0000505CE78282E02D0482E02D002E04461F6
:1003C00000E00461521C082AE4D305600A88FF2A71
:1003D0001ED94568002202F108060CFA06F40E88C0
:1003E0002640A64210D1960007FA06F825EA08052D
:1003F00003FA06F848EA0505CE78282E00D14461B4
:10040000CE78482E00D10461521C082AE3D34560FF
:10041000BDE8F08101617047FEE7002904D0018842
:1004200041F4806101807047018821F4806101807E
:100430007047034600209A8A1B8B1B041A4322F044
:100440007F42914300D101207047002904D00188E8
:1004500041F0010101807047018821F00101018014
:100460007047002904D0018841F4807101807047F1
:10047000018821F4807101807047002904D001882F
:1004800041F4007101807047018821F400710180FE
:100490007047000070B586B004460D46A08820F075
:1004A0003F0601A803F0EEF803982849B0FBF1F1EC
:1004B00089B20E43A680228822F001022280244BBA
:1004C0002A689A4209D85200B0FBF2F080B20428A0
:1004D00000D20420491C218423E0EB88A3F53F4689
:1004E000FF3E0BD002EBC20303EB0212B0FBF2F0B3
:1004F00080B240F48040020506D007E002EB4202E1
:10050000B0FBF2F080B2F6E740F0010040F40040AA
:100510004FF4967251434FF47A72B1FBF2F1491CD9
:100520002184A083208840F00100208020884FF69D
:10053000F5310840A9886A89114301432180A889BF
:1005400029890843208106B070BD000040420F0099
:10055000A0860100008AC0B27047002A02D041F094
:10056000010101E001F0FE01018270470182704744
:1005700070B505460024084908884E884643002186
:10058000084602F0BFFC02F0ABFE044901E00D801A
:10059000641CB442FBD370BD400000200000026028
:1005A0002DE9F04F304B987119462C272B252A2620
:1005B00089884FF430584FF428594FF4487441F665
:1005C000631A4FF0F00B45F2105E4FF4A07C4FF42D
:1005D000F07200280ED0A3F800C0A3F802B0714555
:1005E0002BD1A3F80880A3F80A90280298811C80D8
:1005F0005A802DE0A3F800B0A3F802C0714509D1DC
:10060000A3F80880A3F80A904FF42C5098811A8020
:100610005C800AE0514505D11F815D819E811A8071
:100620005C8002E01F815E819D81A1F5A6401038AB
:1006300015D1A3F800C05A8011E0514505D11F81A2
:100640005E819D811C805A8002E01F815E819D81B8
:10065000A1F5A640103802D11A80A3F802C0BDE867
:10066000F04F002002F076BB40000020F0B50346BA
:100670000C46344D260A2846A9881F0A4089A1F550
:10068000A04CBCF5A26C1BD0A1F5C85CBCF1630CFE
:1006900032D002F01FFE384602F016FED8B202F049
:1006A00013FEA88902F016FE304602F00DFEE0B2FD
:1006B00002F00AFE244928890880881C0280F0BDC7
:1006C00002F008FE384602F0FFFD6889401C80B247
:1006D00002F000FED8B202F0F7FDA88902F0FAFDA0
:1006E000304602F0F1FDA889401C80B202F0F2FD14
:1006F000E0B202F0E9FDDDE7A97919B92988C91A44
:10070000491E8BB202F0E6FD1F0A384602F0DCFDFE
:10071000D8B202F0D9FD384602F0D6FDD8B202F0C8
:10072000D3FDA88902F0D6FD304602F0CDFDE0B23F
:1007300002F0CAFD304602F0C7FDE0B202F0C4FD8F
:10074000B8E7000040000020FEFF01602DE9F04FF7
:100750009FB00121080202F06BFF0121642002F02A
:1007600083FF4FF48070ADF8780010248DF87B4043
:1007700003208DF87A001EA9FE48FFF7F8FD8020BF
:10078000ADF8780018208DF87B0003208DF87A00F2
:100790001EA9F948FFF7EBFD4CF20370ADF87800A5
:1007A0001EA9F548FFF7E3FD4FF68070ADF878001D
:1007B0001EA9F248FFF7DBFD4FF40360ADF87800A7
:1007C0001EA9ED48FFF7D3FD4FF0010BCDF820B087
:1007D000002009900F210A910B900C900D900E9023
:1007E00001900290032103910490059006900790D8
:1007F0000F901090119012941390159014901690E1
:10080000179021021891199089001A911B9008A83D
:100810001C9001A81D900FA8FFF744FD01210020A6
:10082000FFF72EFD322003F015F9D32002F052FD20
:1008300002F060FAD24CA08002F05CFAA08002F0D4
:1008400059FA4FF6FF7606EA0020A08002F052FA2D
:10085000A1880843A08049F2413747F2897545F2E3
:10086000103845F2105941F6631AB84276D0042088
:1008700002F030FD02F03EFAA08002F03BFAA080C8
:1008800002F038FA06EA0020A08002F033FAA188CC
:100890000843A080A0F50541523900D1A580A08869
:1008A000A8425BD0D42002F015FD02F023FAA0800C
:1008B00002F020FAA08002F01DFA06EA0020A080D3
:1008C00002F018FAA1880843A080404546D055217F
:1008D0004FF4704002F00EFDAA214FF2010002F029
:1008E00009FD52214FF2020002F004FD08214FF2EF
:1008F000030002F0FFFC01214FF2040002F0FAFCB9
:100900004FF4454002F0E6FC02F0F4F906EA00205C
:10091000A0804CF2015002F0DDFC02F0EBF9A1885E
:100920000843A080052003F095F8A088484515D01D
:10093000A12002F0CFFC02F0DDF9A08002F0DAF98C
:1009400006EA0020A08002F0D5F9A1880843A08023
:10095000A0F5AE41613901D1A4F804A0A088B84245
:100960007ED1CF2002F0B6FC002002F0ADFCC12009
:1009700002F0AAFC302002F0A7FCED2002F0AAFC55
:10098000642002F0A1FC032002F09EFC122002F081
:100990009BFC812002F098FCE82002F09BFC852063
:1009A00002F092FC102002F08FFC7A2002F08CFC06
:1009B000CB2002F08FFC392002F086FC2C2002F0C4
:1009C00083FC002002F080FC342002F07DFC022039
:1009D00002F07AFCF72002F07DFC202002F074FC8B
:1009E000EA2002F077FC002002F06EFC002002F00A
:1009F0006BFCC02002F06EFC1B2002F065FCC120E5
:100A000002F068FC012002F05FFCC52002F062FCED
:100A1000302002F059FC302002F056FCC72002F0D2
:100A200059FCB72002F050FC362002F053FC48205D
:100A300002F04AFC3A2002F04DFC552002F044FC42
:100A4000B12002F047FC002002F03EFC1A2002F028
:100A50003BFCB62002F03EFC0A2002F035FC00E030
:100A6000A0E0A22002F030FCF22002F033FC0020D3
:100A700002F02AFC262002F02DFC012002F024FCCA
:100A8000E02002F027FC0F2002F01EFC2A2002F0DA
:100A90001BFC282002F018FC082002F015FC0E2098
:100AA00002F012FC082002F00FFC542002F00CFCB3
:100AB000A92002F009FC432002F006FC0A2002F003
:100AC00003FC0F2002F000FC002002F0FDFB0020E0
:100AD00002F0FAFB002002F0F7FB002002F0F4FB2A
:100AE000E12002F0F7FB002002F0EEFB152002F0FF
:100AF000EBFB172002F0E8FB072002F0E5FB1120DA
:100B000002F0E2FB062002F0DFFB2B2002F0DCFB10
:100B1000562002F0D9FB3C2002F0D6FB052002F063
:100B2000D3FB102002F0D0FB0F2002F0CDFB3F20C2
:100B300002F0CAFB3F2002F0C7FB0F2002F0C4FB0B
:100B40002B2002F0C7FB002002F0BEFB002002F0C9
:100B5000BBFB012002F0B8FB3F2002F0B5FB2A20CE
:100B600002F0B8FB002002F0AFFB002002F0ACFB6B
:100B7000002007E000080140001401400018014077
:100B80004000002002F0A0FBEF2002F09DFB1120AE
:100B900002F0A0FB782002F05DFF292002F09AFB12
:100BA00002F092B8A8427CD1112002F093FB782089
:100BB00002F050FF362002F08DFB002002F084FB93
:100BC0003A2002F087FB052002F07EFBB22002F003
:100BD00081FB0C2002F078FB0C2002F075FB00205A
:100BE00002F072FB332002F06FFB332002F06CFB4B
:100BF000B72002F06FFB352002F066FBBB2002F04D
:100C000069FB322002F060FBC02002F063FB0C2085
:100C100002F05AFBC22002F05DFB012002F054FBFF
:100C2000C32002F057FB102002F04EFBC42002F05C
:100C300051FB202002F048FBC62002F04BFB0F20A6
:100C400002F042FBD02002F045FBA42002F03CFB66
:100C5000A12002F039FBE02002F03CFBD02002F0A2
:100C600033FB002002F030FB022002F02DFB0720B6
:100C700002F02AFB0A2002F027FB282002F024FBC6
:100C8000322002F021FB442002F01EFB422002F041
:100C90001BFB062002F018FB0E2002F015FB1220B1
:100CA00000E056E002F010FB142002F00DFB1720CC
:100CB00002F00AFBE12002F00DFBD02002F004FB61
:100CC000002002F001FB022002F0FEFA072002F0F1
:100CD000FBFA0A2002F0F8FA282002F0F5FA312097
:100CE00002F0F2FA542002F0EFFA472002F0ECFA98
:100CF0000E2002F0E9FA1C2002F0E6FA172002F0BA
:100D0000E3FA1B2002F0E0FA1E2002F0DDFA2A20AE
:100D100002F0E0FA002002F0D7FA002002F0D4FA44
:100D2000002002F0D1FAEF2002F0CEFA2B2002F0E0
:100D3000D1FA002002F0C8FA002002F0C5FA012022
:100D400002F0C2FA3F2002F0BFFA292002F0C2FAF4
:100D500026E740457ED1ED2002F0BCFA012002F0EA
:100D6000B3FAFE2002F0B0FAEE2002F0B3FADE2071
:100D700002F0AAFA212002F0A7FAF12002F0AAFA62
:100D8000012002F0A1FADF2002F0A4FA102002F004
:100D90009BFAC42002F09EFA8F2002F095FAC6203A
:100DA00002F098FA002002F08FFAE22002F08CFAAA
:100DB000E22002F089FAE22002F086FABF2002F077
:100DC00089FAAA2002F080FAB02002F083FA0D20FE
:100DD00002F07AFA002002F077FA0D2002F074FA9D
:100DE000002002F071FA112002F06EFA002002F0E9
:100DF0006BFA192002F068FA002002F065FA21204F
:100E000002F062FA002002F05FFA2D2002F05CFA94
:100E1000002002F059FA3D2002F056FA002002F0BC
:100E200053FA5D2002F050FA002002F04DFA5D20E6
:100E300002F04AFA002002F047FAB12002F04AFA22
:100E4000802002F041FA002002F03EFA8B2002F0EE
:100E50003BFA00E0FDE3002002F036FA962002F0B3
:100E600033FA002002F030FAB22002F033FA002008
:100E700002F02AFA002002F027FA022002F024FAF7
:100E8000002002F021FA032002F01EFA002002F0F6
:100E90001BFAB32002F01EFA002002F015FA00201F
:100EA00002F012FA002002F00FFA002002F00CFA11
:100EB000002002F009FA002002F006FA002002F0F9
:100EC00003FA002002F000FA002002F0FDF90020F1
:100ED00002F0FAF9002002F0F7F9002002F0F4F92C
:100EE000002002F0F1F9002002F0EEF9002002F0FB
:100EF000EBF9002002F0E8F9002002F0E5F900200B
:100F000002F0E2F9002002F0DFF9002002F0DCF943
:100F1000002002F0D9F9002002F0D6F9002002F0FA
:100F2000D3F9002002F0D0F9B42002F0D3F98B20DD
:100F300002F0CAF9002002F0C7F9962002F0C4F9C5
:100F4000002002F0C1F9A12002F0BEF9002002F059
:100F5000BBF9B52002F0BEF9022002F0B5F900207D
:100F600002F0B2F9032002F0AFF9002002F0ACF970
:100F7000042002F0A9F9002002F0A6F9B62002F040
:100F8000A9F9002002F0A0F9002002F09DF9B72095
:100F900002F0A0F9002002F097F9002002F094F985
:100FA0003F2002F091F9002002F08EF95E2002F05D
:100FB0008BF9002002F088F9642002F085F9002006
:100FC00002F082F98C2002F07FF9002002F07CF917
:100FD000AC2002F079F9002002F076F9DC2002F072
:100FE00073F9002002F070F9702002F06DF9002012
:100FF00002F06AF9902002F067F9002002F064F92B
:10100000EB2002F061F9002002F05EF9DC2002F032
:101010005BF9002002F058F9B82002F05BF90020DB
:1010200002F052F9002002F04FF9002002F04CF9D2
:10103000002002F049F9002002F046F9002002F0F9
:1010400043F9002002F040F9002002F03DF9BA20F7
:1010500002F040F9242002F037F9002002F034F9C0
:10106000002002F031F9002002F02EF9C12002F038
:1010700031F9202002F028F9002002F025F954204F
:1010800002F022F9002002F01FF9FF2002F01CF903
:10109000002002F019F9C22002F01CF90A2002F027
:1010A00013F9002002F010F9042002F00DF90020DD
:1010B00002F00AF9C32002F00DF93C2002F004F915
:1010C000002002F001F93A2002F0FEF8002002F0C0
:1010D000FBF8392002F0F8F8002002F0F5F837208C
:1010E00002F0F2F8002002F0EFF83C2002F0ECF8F9
:1010F000002002F0E9F8362002F0E6F8002002F0C5
:10110000E3F8322002F0E0F8002002F0DDF82F20B2
:1011100002F0DAF8002002F0D7F82C2002F0D4F820
:10112000002002F0D1F8292002F0CEF8002002F0D1
:10113000CBF8262002F0C8F8002002F0C5F82420E1
:1011400002F0C2F8002002F0BFF8242002F0BCF840
:10115000002002F0B9F8232002F0B6F8002002F0D7
:10116000B3F83C2002F0B0F8002002F0ADF83620D1
:1011700002F0AAF8002002F0A7F8322002F0A4F84A
:10118000002002F0A1F82F2002F09EF8002002F0CB
:101190009BF82C2002F098F8002002F095F8292006
:1011A00002F092F8002002F08FF8262002F08CF86E
:1011B000002002F089F8242002F086F8002002F0D6
:1011C00083F8242002F080F8002002F07DF823202C
:1011D00002F07AF8002002F077F8C42002F07AF8E2
:1011E000622002F071F8002002F06EF8052002F093
:1011F0006BF8002002F068F8842002F065F8002007
:1012000002F062F8F02002F05FF8002002F05CF8D3
:10121000182002F059F8002002F056F8A42002F03D
:1012200053F8002002F050F8182002F04DF800208A
:1012300002F04AF8502002F047F8002002F044F88B
:101240000C2002F041F8002002F03EF8172002F0D6
:101250003BF8002002F038F8952002F035F8002025
:1012600002F032F8F32002F02FF8002002F02CF800
:10127000E62002F029F8002002F026F8C52002F04E
:1012800029F8322002F020F8002002F01DF8442056
:1012900002F01AF8002002F017F8652002F014F8A6
:1012A000002002F011F8762002F00EF8002002F083
:1012B0000BF8882002F008F8002002F005F8C6209C
:1012C00002F008F8202001F0FFFF002001F0FCFFF1
:1012D000172001F0F9FF002001F0F6FF012001F0D6
:1012E000F3FF002001F0F0FFC72001F0F3FF002022
:1012F00001F0EAFF002001F0E7FF002001F0E4FF29
:10130000002001F0E1FFC82001F0E4FF002001F01F
:10131000DBFF002001F0D8FF002001F0D5FF002006
:1013200001F0D2FFC92001F0D5FF002001F0CCFF71
:10133000002001F0C9FF002001F0C6FF002001F0ED
:10134000C3FF002001F0C0FF002001F0BDFF00201E
:1013500001F0BAFF002001F0B7FF002001F0B4FF58
:10136000002001F0B1FF002001F0AEFF002001F0ED
:10137000ABFF002001F0A8FF002001F0A5FF002036
:1013800001F0A2FF002001F09FFFE02001F0A2FF8A
:10139000162001F099FF002001F096FF1C2001F0BB
:1013A00093FF002001F090FF212001F08DFF00202D
:1013B00001F08AFF362001F087FF002001F084FF52
:1013C000462001F081FF002001F07EFF522001F055
:1013D0007BFF002001F078FF642001F075FF002002
:1013E00001F072FF7A2001F06FFF002001F06CFF26
:1013F0008B2001F069FF002001F066FF992001F0C9
:1014000063FF002001F060FFA82001F05DFF0020D5
:1014100001F05AFFB92001F057FF002001F054FFFE
:10142000C42001F051FF002001F04EFFCA2001F05E
:101430004BFF002001F048FFD22001F045FF0020C3
:1014400001F042FFD92001F03FFF002001F03CFFF6
:10145000E02001F039FF002001F036FFF32001F019
:1014600033FF002001F030FFE12001F033FF1620B0
:1014700001F02AFF002001F027FF1C2001F024FFCB
:10148000002001F021FF222001F01EFF002001F0CA
:101490001BFF362001F018FF002001F015FF45204A
:1014A00001F012FF002001F00FFF522001F00CFFAD
:1014B000002001F009FF642001F006FF002001F088
:1014C00003FF7A2001F000FF002001F0FDFE8B20D9
:1014D00001F0FAFE002001F0F7FE992001F0F4FE81
:1014E000002001F0F1FEA82001F0EEFE002001F046
:1014F000EBFEB92001F0E8FE002001F0E5FEC4207B
:1015000001F0E2FE002001F0DFFECA2001F0DCFE67
:10151000002001F0D9FED22001F0D6FE002001F01B
:10152000D3FED82001F0D0FE002001F0CDFEE02057
:1015300001F0CAFE002001F0C7FEF32001F0C4FE56
:10154000002001F0C1FEE22001F0C4FE052001F000
:10155000BBFE002001F0B8FE0B2001F0B5FE00201C
:1015600001F0B2FE1B2001F0AFFE002001F0ACFE46
:10157000342001F0A9FE002001F0A6FE442001F075
:10158000A3FE002001F0A0FE4F2001F09DFE0020F0
:1015900001F09AFE612001F097FE002001F094FE18
:1015A000792001F091FE002001F08EFE882001F0EC
:1015B0008BFE002001F088FE972001F085FE0020C0
:1015C00001F082FEA62001F07FFE002001F07CFEEB
:1015D000B72001F079FE002001F076FEC22001F074
:1015E00073FE002001F070FEC72001F06DFE0020A8
:1015F00001F06AFED12001F067FE002001F064FED8
:10160000D62001F061FE002001F05EFEDD2001F039
:101610005BFE002001F058FEF32001F055FE002093
:1016200001F052FEE32001F055FE052001F04CFED2
:10163000002001F049FE0A2001F046FE002001F0E2
:1016400043FE1C2001F040FE002001F03DFE33204F
:1016500000E0FCE201F038FE002001F035FE4420FD
:1016600001F032FE002001F02FFE502001F02CFE90
:10167000002001F029FE622001F026FE002001F08A
:1016800023FE782001F020FE002001F01DFE8820BE
:1016900001F01AFE002001F017FE972001F014FE61
:1016A000002001F011FEA62001F00EFE002001F046
:1016B0000BFEB72001F008FE002001F005FEC2205D
:1016C00001F002FE002001F0FFFDC72001F0FCFD4B
:1016D000002001F0F9FDD12001F0F6FD002001F01D
:1016E000F3FDD52001F0F0FD002001F0EDFDDD203F
:1016F00001F0EAFD002001F0E7FDF32001F0E4FD38
:10170000002001F0E1FDE42001F0E4FD012001F002
:10171000DBFD002001F0D8FD012001F0D5FD002007
:1017200001F0D2FD022001F0CFFD002001F0CCFD40
:101730002A2001F0C9FD002001F0C6FD3C2001F087
:10174000C3FD002001F0C0FD4B2001F0BDFD0020D5
:1017500001F0BAFD5D2001F0B7FD002001F0B4FDFD
:10176000742001F0B1FD002001F0AEFD842001F0F5
:10177000ABFD002001F0A8FD932001F0A5FD0020A5
:1017800001F0A2FDA22001F09FFD002001F09CFDD0
:10179000B32001F099FD002001F096FDBE2001F07C
:1017A00093FD002001F090FDC42001F08DFD00208C
:1017B00001F08AFDCD2001F087FD002001F084FDBD
:1017C000D32001F081FD002001F07EFDDD2001F03D
:1017D0007BFD002001F078FDF32001F075FD002075
:1017E00001F072FDE52001F075FD002001F06CFDB7
:1017F000002001F069FD002001F066FD002001F0ED
:1018000063FD022001F060FD002001F05DFD292054
:1018100001F05AFD002001F057FD3C2001F054FD7D
:10182000002001F051FD4B2001F04EFD002001F0A1
:101830004BFD5D2001F048FD002001F045FD7420C6
:1018400001F042FD002001F03FFD842001F03CFD4D
:10185000002001F039FD932001F036FD002001F059
:1018600033FDA22001F030FD002001F02DFDB3205A
:1018700001F02AFD002001F027FDBE2001F024FD2B
:10188000002001F021FDC42001F01EFD002001F028
:101890001BFDCD2001F018FD002001F015FDD32027
:1018A00001F012FD002001F00FFDDC2001F00CFD25
:1018B000002001F009FDF32001F006FD002001F0F9
:1018C00003FDE62001F006FD112001F0FDFC0020E3
:1018D00001F0FAFC342001F0F7FC002001F0F4FCE8
:1018E000562001F0F1FC002001F0EEFC762001F022
:1018F000EBFC002001F0E8FC772001F0E5FC002083
:1019000001F0E2FC662001F0DFFC002001F0DCFCCD
:10191000882001F0D9FC002001F0D6FC992001F0CC
:10192000D3FC002001F0D0FCBB2001F0CDFC002056
:1019300001F0CAFC992001F0C7FC002001F0C4FCB2
:10194000662001F0C1FC002001F0BEFC552001F032
:10195000BBFC002001F0B8FC552001F0B5FC0020D4
:1019600001F0B2FC452001F0AFFC002001F0ACFC1E
:10197000432001F0A9FC002001F0A6FC442001F066
:10198000A3FC002001F0A0FCE72001F0A3FC322022
:1019900001F09AFC002001F097FC552001F094FC26
:1019A000002001F091FC762001F08EFC002001F077
:1019B0008BFC662001F088FC002001F085FC67208C
:1019C00001F082FC002001F07FFC672001F07CFC2C
:1019D000002001F079FC872001F076FC002001F066
:1019E00073FC992001F070FC002001F06DFCBB201D
:1019F00001F06AFC002001F067FC992001F064FC12
:101A0000002001F061FC772001F05EFC002001F075
:101A10005BFC442001F058FC002001F055FC5620EE
:101A200001F052FC002001F04FFC232001F04CFC9F
:101A3000002001F049FC332001F046FC002001F0B9
:101A400043FC452001F040FC002001F03DFCE82073
:101A500001F040FC002001F037FC002001F034FCD4
:101A6000992001F031FC002001F02EFC872001F0CC
:101A70002BFC002001F028FC882001F025FC002030
:101A800001F022FC772001F01FFC002001F01CFC7B
:101A9000662001F019FC002001F016FC882001F0FE
:101AA00013FC002001F010FCAA2001F00DFC002026
:101AB00001F00AFCBB2001F007FC002001F004FC4F
:101AC000992001F001FC002001F0FEFB662001F0EE
:101AD000FBFB002001F0F8FB552001F0F5FB002096
:101AE00001F0F2FB552001F0EFFB002001F0ECFBD0
:101AF000442001F0E9FB002001F0E6FB442001F066
:101B0000E3FB002001F0E0FB552001F0DDFB0020AD
:101B100001F0DAFBE92001F0DDFBAA2001F0D4FBA3
:101B2000002001F0D1FB002001F0CEFB002001F0ED
:101B3000CBFB002001F0CEFBAA2001F0C5FBCF209B
:101B400001F0C8FB002001F0BFFB002001F0BCFB4E
:101B5000002001F0B9FB002001F0B6FB002001F0ED
:101B6000B3FB002001F0B0FB002001F0ADFB002032
:101B700001F0AAFB002001F0A7FB002001F0A4FB6C
:101B8000002001F0A1FB002001F09EFB002001F0ED
:101B90009BFB002001F098FB002001F095FB00204A
:101BA00001F092FB002001F08FFBF02001F092FB8E
:101BB000002001F089FB502001F086FB002001F09D
:101BC00083FB002001F080FB002001F07DFBF3206F
:101BD00001F080FB002001F077FBF92001F07AFB97
:101BE000062001F071FB102001F06EFB292001F0AE
:101BF0006BFB002001F068FB3A2001F06BFB5520E5
:101C000001F062FB112001F065FB642001F022FF6E
:101C1000292001F05FFB352001F05CFB002001F082
:101C200053FB512001F056FBFF2001F04DFB5320E8
:101C300001F050FB2C2001F047FB552001F04AFB3E
:101C4000822001F041FB2C2001F044FBFEE34845DB
:101C50007ED14FF470435521184601F04BFB4FF2F3
:101C60000104AA21204601F045FB651C52212846AB
:101C700001F040FBA71C0821384601F03BFB4FF266
:101C800004080121404601F035FB0D214FF430409E
:101C900001F030FB0D214BF2010001F02BFB0D2177
:101CA0004BF2020001F026FB4FF43649342148463E
:101CB00001F020FB34214BF2016001F01BFB3421C9
:101CC0004BF2026001F016FB4FF4314A0D215046F1
:101CD00001F010FB0D214BF2011001F00BFB0D2167
:101CE0004BF2021001F006FB34214FF4374001F0B3
:101CF00001FB34214BF2017001F0FCFA34214BF26C
:101D0000027001F0F7FA00214FF4324001F0F2FACC
:101D100000214BF2012001F0EDFA00214BF20220EC
:101D200001F0E8FA24214FF4384001F0E3FA2421CD
:101D30004BF6010001F0DEFA24214BF6020001F01F
:101D4000D9FA01214FF43F4001F0D4FA0F2100E00D
:101D5000FEE34FF4334001F0CDFA0F214BF2013096
:101D600001F0C8FA0F214BF2023001F0C3FA34211E
:101D70004FF4394001F0BEFA34214BF6011001F066
:101D8000B9FA34214BF6021001F0B4FA08214FF4ED
:101D9000354001F0AFFA08214BF2015001F0AAFAE8
:101DA00008214BF2025001F0A5FA03214FF4424002
:101DB00001F0A0FA24214FF43A4001F09BFA2421CB
:101DC0004BF6012001F096FA24214BF6022001F097
:101DD00091FA00214FF43C4001F08CFA78214BF647
:101DE000014001F087FA00214BF6024001F082FA2F
:101DF00000214FF43D4001F07DFA78214BF601506F
:101E000001F078FA00214BF6025001F073FA00213C
:101E10004FF43E4001F06EFA64214BF6016001F090
:101E200069FA00214FF4514001F064FA33214DF278
:101E3000011001F05FFA00214DF2021001F05AFA90
:101E400034214DF2031001F055FA00214DF2041037
:101E500001F050FA3A214DF2051001F04BFA002141
:101E60004DF2061001F046FA4A214DF2071001F03A
:101E700041FA00214DF2081001F03CFA5C214DF2CC
:101E8000091001F037FA00214DF20A1001F032FA80
:101E900081214DF20B1001F02DFA00214DF20C10B2
:101EA00001F028FAA6214DF20D1001F023FA0021CD
:101EB0004DF20E1001F01EFAE5214DF20F1001F067
:101EC00019FA01214DF2101001F014FA13214DF20C
:101ED000111001F00FFA01214DF2121001F00AFA6F
:101EE00054214DF2131001F005FA01214DF21410A6
:101EF00001F000FA82214DF2151001F0FBF90121E9
:101F00004DF2161001F0F6F9CA214DF2171001F04A
:101F1000F1F902214DF2181001F0ECF900214DF217
:101F2000191001F0E7F902214DF21A1001F0E2F95F
:101F300001214DF21B1001F0DDF902214DF21C10C0
:101F400001F0D8F934214DF21D1001F0D3F902212E
:101F50004DF21E1001F0CEF967214DF21F1001F075
:101F6000C9F902214DF2201001F0C4F984214DF28B
:101F7000211001F0BFF902214DF2221001F0BAF94F
:101F8000A4214DF2231001F0B5F902214DF22410E5
:101F900001F0B0F9B7214DF2251001F0ABF90221A3
:101FA0004DF2261001F0A6F9CF214DF2271001F0D5
:101FB000A1F902214DF2281001F09CF9DE214DF229
:101FC000291001F097F902214DF22A1001F092F93F
:101FD000F2214DF22B1001F08DF902214DF22C105F
:101FE00001F088F9FE214DF22D1001F083F9032153
:101FF0004DF22E1001F07EF910214DF22F1001F05C
:1020000079F903214DF2301001F074F933214DF2CA
:10201000311001F06FF903214DF2321001F06AF92D
:102020006D214DF2331001F065F900214FF452405B
:1020300001F060F933214DF2012001F05BF900213C
:102040004DF2022001F056F934214DF2032001F047
:1020500051F900214DF2042001F04CF93A214DF2E2
:10206000052001F047F900214DF2062001F042F968
:102070004A214DF2072001F03DF900214DF20820E0
:1020800001F038F95C214DF2092001F033F900210B
:102090004DF20A2001F02EF981214DF20B2001F0C2
:1020A00029F900214DF20C2001F024F9A6214DF26E
:1020B0000D2001F01FF900214DF20E2001F01AF958
:1020C000E5214DF20F2001F015F901214DF210200C
:1020D00001F010F913214DF2112001F00BF901214B
:1020E0004DF2122001F006F954214DF2132001F0B7
:1020F00001F901214DF2142001F0FCF882214DF28A
:10210000152001F0F7F801214DF2162001F0F2F848
:10211000CA214DF2172001F0EDF802214DF21820EE
:1021200001F0E8F800214DF2192001F0E3F8022156
:102130004DF21A2001F0DEF801214DF21B2001F0D2
:10214000D9F802214DF21C2001F0D4F834214DF2CF
:102150001D2001F0CFF802214DF21E2001F0CAF837
:1021600067214DF21F2001F0C5F802214DF2202019
:1021700001F0C0F884214DF2212001F0BBF80221CA
:102180004DF2222001F0B6F8A4214DF2232001F0F7
:10219000B1F802214DF2242001F0ACF8B7214DF244
:1021A000252001F0A7F802214DF2262001F0A2F827
:1021B000CF214DF2272001F09DF802214DF2282079
:1021C00001F098F8DE214DF2292001F093F8022168
:1021D0004DF22A2001F08EF8F2214DF22B2001F071
:1021E00089F802214DF22C2001F084F8FE214DF2F5
:1021F0002D2001F07FF803214DF22E2001F07AF816
:1022000010214DF22F2001F075F803214DF23020FE
:1022100001F070F833214DF2312001F06BF8032109
:102220004DF2322001F066F86D214DF2332001F0BD
:1022300061F800214FF4534001F05CF833214DF276
:10224000013001F057F800214DF2023001F052F850
:1022500034214DF2033001F04DF800214DF20430ED
:1022600001F048F83A214DF2053001F043F8002121
:102270004DF2063001F03EF84A214DF2073001F0F0
:1022800039F800214DF2083001F034F85C214DF2AC
:10229000093001F02FF800214DF20A3001F02AF840
:1022A00081214DF20B3001F025F800214DF20C3068
:1022B00001F020F8A6214DF20D3001F01BF80021AD
:1022C0004DF20E3001F016F8E5214DF20F3001F01D
:1022D00011F801214DF2103001F00CF813214DF2EC
:1022E000113001F007F801214DF2123001F002F82F
:1022F00054214DF2133000F0FDFF01214DF2143056
:1023000000F0F8FF82214DF2153000F0F3FF0121BB
:102310004DF2163000F0EEFFCA214DF2173000F0FA
:10232000E9FF02214DF2183000F0E4FF00214DF2E8
:10233000193000F0DFFF02214DF21A3000F0DAFF11
:1023400001214DF21B3000F0D5FF02214DF21C306F
:1023500000F0D0FF34214DF21D3000F0CBFF022100
:102360004DF21E3000F0C6FF67214DF21F3000F025
:10237000C1FF02214DF2203000F0BCFF84214DF25C
:10238000213000F0B7FF02214DF2223000F0B2FF01
:10239000A4214DF2233000F0ADFF02214DF2243094
:1023A00000F0A8FFB7214DF2253000F0A3FF022175
:1023B0004DF2263000F09EFFCF214DF2273000F085
:1023C00099FF02214DF2283000F094FFDE214DF2FA
:1023D000293000F08FFF02214DF22A3000F08AFFF1
:1023E000F2214DF22B3000F085FF02214DF22C300E
:1023F00000F080FFFE214DF22D3000F07BFF032125
:102400004DF22E3000F076FF10214DF22F3000F00B
:1024100071FF03214DF2303000F06CFF33214DF29B
:10242000313000F067FF03214DF2323000F062FFDF
:102430006D214DF2333000F05DFF00214FF4544028
:1024400000F058FF33214DF2014000E081E300F03D
:1024500051FF00214DF2024000F04CFF34214DF2BB
:10246000034000F047FF00214DF2044000F042FF1E
:102470003A214DF2054000F03DFF00214DF20640AB
:1024800000F038FF4A214DF2074000F033FF0021F1
:102490004DF2084000F02EFF5C214DF2094000F0A3
:1024A00029FF00214DF20A4000F024FF81214DF266
:1024B0000B4000F01FFF00214DF20C4000F01AFF0E
:1024C000A6214DF20D4000F015FF00214DF20E4007
:1024D00000F010FFE5214DF20F4000F00BFF01214D
:1024E0004DF2104000F006FF13214DF2114000F0B4
:1024F00001FF01214DF2124000F0FCFE54214DF28B
:10250000134000F0F7FE01214DF2144000F0F2FEFE
:1025100082214DF2154000F0EDFE01214DF21640F2
:1025200000F0E8FECA214DF2174000F0E3FE022160
:102530004DF2184000F0DEFE00214DF2194000F08F
:10254000D9FE02214DF21A4000F0D4FE012100E034
:1025500000E34DF21B4000F0CDFE02214DF21C4085
:1025600000F0C8FE34214DF21D4000F0C3FE0221F0
:102570004DF21E4000F0BEFE67214DF21F4000F0FC
:10258000B9FE02214DF2204000F0B4FE84214DF24C
:10259000214000F0AFFE02214DF2224000F0AAFEE1
:1025A000A4214DF2234000F0A5FE02214DF224406B
:1025B00000F0A0FEB7214DF2254000F09BFE022165
:1025C0004DF2264000F096FECF214DF2274000F05C
:1025D00091FE02214DF2284000F08CFEDE214DF2EA
:1025E000294000F087FE02214DF22A4000F082FED1
:1025F000F2214DF22B4000F07DFE02214DF22C40E5
:1026000000F078FEFE214DF22D4000F073FE032114
:102610004DF22E4000F06EFE10214DF22F4000F0E2
:1026200069FE03214DF2304000F064FE33214DF28B
:10263000314000F05FFE03214DF2324000F05AFEBF
:102640006D214DF2334000F055FE00214FF455400E
:1026500000F050FE33214DF2015000F04BFE0021FE
:102660004DF2025000F046FE34214DF2035000F0CE
:1026700041FE00214DF2045000F03CFE3A214DF2A3
:10268000055000F037FE00214DF2065000F032FEFA
:102690004A214DF2075000F02DFE00214DF2085066
:1026A00000F028FE5C214DF2095000F023FE0021CD
:1026B0004DF20A5000F01EFE81214DF20B5000F049
:1026C00019FE00214DF20C5000F014FEA6214DF22F
:1026D0000D5000F00FFE00214DF20E5000F00AFEEA
:1026E000E5214DF20F5000F005FE01214DF2105092
:1026F00000F000FE13214DF2115000F0FBFD01210E
:102700004DF2125000F0F6FD54214DF2135000F03E
:10271000F1FD01214DF2145000F0ECFD82214DF24B
:10272000155000F0E7FD01214DF2165000F0E2FDDA
:10273000CA214DF2175000F0DDFD02214DF2185074
:1027400000F0D8FD00214DF2195000F0D3FD022118
:102750004DF21A5000F0CEFD01214DF21B5000F059
:10276000C9FD02214DF21C5000F0C4FD34214DF290
:102770001D5000F0BFFD02214DF21E5000F0BAFDC9
:1027800067214DF21F5000F0B5FD02214DF220509F
:1027900000F0B0FD84214DF2215000F0ABFD02218C
:1027A0004DF2225000F0A6FDA4214DF2235000F07E
:1027B000A1FD02214DF2245000F09CFDB7214DF205
:1027C000255000F097FD02214DF2265000F092FDB9
:1027D000CF214DF2275000F08DFD02214DF22850FF
:1027E00000F088FDDE214DF2295000F083FD02212A
:1027F0004DF22A5000F07EFDF2214DF22B5000F0F8
:1028000079FD02214DF22C5000F074FDFE214DF2B5
:102810002D5000F06FFD03214DF22E5000F06AFDA7
:1028200010214DF22F5000F065FD03214DF2305084
:1028300000F060FD33214DF2315000F05BFD0321CB
:102840004DF2325000F056FD6D214DF2335000F044
:1028500051FD00214FF4564000F04CFD33214DF264
:10286000016000F047FD00214DF2026000F042FDE2
:1028700034214DF2036000F03DFD00214DF2046073
:1028800000F038FD3A214DF2056000F033FD0021E3
:102890004DF2066000F02EFD4A214DF2076000F077
:1028A00029FD00214DF2086000F024FD5C214DF26D
:1028B000096000F01FFD00214DF20A6000F01AFDD2
:1028C00081214DF20B6000F015FD00214DF20C60EE
:1028D00000F010FDA6214DF20D6000F00BFD00216F
:1028E0004DF20E6000F006FDE5214DF20F6000F0A4
:1028F00001FD01214DF2106000F0FCFC13214DF2AE
:10290000116000F0F7FC01214DF2126000F0F2FCC2
:1029100054214DF2136000F0EDFC01214DF21460E2
:1029200000F0E8FC82214DF2156000F0E3FC01218B
:102930004DF2166000F0DEFCCA214DF2176000F087
:10294000D9FC02214DF2186000F0D4FC00214DF2B8
:10295000196000F0CFFC02214DF21A6000F0CAFCB1
:1029600001214DF21B6000F0C5FC02214DF21C60FC
:1029700000F0C0FC34214DF21D6000F0BBFC0221D0
:102980004DF21E6000F0B6FC67214DF21F6000F0B2
:10299000B1FC02214DF2206000F0ACFC84214DF22C
:1029A000216000F0A7FC02214DF2226000F0A2FCA1
:1029B000A4214DF2236000F09DFC02214DF2246021
:1029C00000F098FCB7214DF2256000F093FC022145
:1029D0004DF2266000F08EFCCF214DF2276000F012
:1029E00089FC02214DF2286000F084FCDE214DF2CA
:1029F000296000F07FFC02214DF22A6000F07AFC91
:102A0000F2214DF22B6000F075FC02214DF22C609A
:102A100000F070FCFE214DF22D6000F06BFC0321F4
:102A20004DF22E6000F066FC10214DF22F6000F098
:102A300061FC03214DF2306000F05CFC33214DF26B
:102A4000316000F057FC03214DF2326000F052FC7F
:102A50006D214DF2336000F04DFC5521184600F019
:102A600049FCAA21204600F045FC5221284600F0EE
:102A700041FC0821384600F03DFC0021404600F0B2
:102A800039FCCC21504600F035FC00214BF20110FE
:102A900000F030FC0521484600F02CFC70214FF47A
:102AA000374000F027FC70214BF2017000F022FC4F
:102AB00001214FF4384000F01DFC03214BF60100CA
:102AC00000F018FC03214BF6020000F013FC032178
:102AD0004BF6030000F00EFC02214FF43C4000F0E6
:102AE00009FC00214BF6014000F004FC00214BF6EC
:102AF000024000F0FFFBD0214FF4494000F0FAFB08
:102B000002214CF6011000F0F5FB50214CF60210AA
:102B100000F0F0FB50214CF6031000F0EBFB5021CD
:102B20004CF6041000F0E6FB00214FF4545000F086
:102B3000E1FB55214FF4685000F0DCFB4FF4885066
:102B400000F0C8FB782000F09FFF4FF4245000F005
:102B5000C1FBB9E05045FCD1E22000F0BBFB1D20D9
:102B600000F0B2FB022000F0AFFB042000F0ACFB51
:102B7000642000F089FFE02000F0ACFB012000F0B1
:102B8000A3FB0A2000F066FFE02000F0A3FB032077
:102B900000F09AFB0C2000F05DFF012000F09AFB92
:102BA0000A2000F057FFE62000F094FB2F2000F0F1
:102BB0008BFBFF2000F088FBFF2000F085FBB0209E
:102BC00000F088FB202000F07FFB002000F07CFB61
:102BD000032000F079FB40F21F3000F075FB01206C
:102BE00000F072FB40F2DF1000F06EFB002000F0FE
:102BF0006BFBB42000F06EFB042000F065FB40F29C
:102C00001F4000F061FB002000F05EFB2E2000F072
:102C10005BFB002000F058FB002000F055FB00207B
:102C200000F052FB002000F04FFBB62000F052FBFA
:102C3000022000F049FB4FF4037000F045FB002038
:102C400000F042FB172000F03FFB152000F03CFB9A
:102C5000002000F039FB002000F036FBF02000F0EF
:102C600039FB032000F030FB292000F033FBD0209B
:102C700000F030FB002000F027FBBE2000F02AFB14
:102C8000052000F021FBFE2000F01EFB012000F0DB
:102C90001BFB002000F018FB002000F015FB0020BB
:102CA00000F012FBB82000F015FB032000F00CFB35
:102CB000012000F009FBBA2000F00CFB012000F01D
:102CC00003FB642000F020F80020FDF769FC0448B5
:102CD000C0F8A0B13046FDF74BFC1FB0BDE8F08F47
:102CE000000021420346012000E05843491EC9B2BA
:102CF000FBD2704708B5034800880090BDF800007B
:102D000008BD00000000026010B50246BE2000F0C1
:102D1000E1FA052000F0D8FA104601F002F84FF071
:102D200066320B4B01F010F800F0CEFF80B200F0DD
:102D3000CBFA012000F0C8FAFF2000F0C5FA00200D
:102D400000F0C2FABDE81040002000F0BDBA00005B
:102D50006666044070B50023694C41F6631621464F
:102D6000A2798988012A01D1B14202D1C2B9B14206
:102D700016D1082814D2DFE800F00406080A0C0E69
:102D8000101206200CE007200AE0042008E00520CD
:102D900006E0012004E0002002E0032000E0022021
:102DA000082812D2DFE800F0110406080A0C0E1001
:102DB00080230AE0402308E0C02306E0202304E04B
:102DC000602302E0A02300E0E02345F21055A94271
:102DD00002D14FF4585000E03620A1F51342413A99
:102DE00003D0A1F5EE42893A01D143F00803194618
:102DF00000F080FAA288B2420ED0980606D520884C
:102E00006188884208D22180608005E0218860883E
:102E1000814201D920806180AA4247D1608900F0B7
:102E200059FA002000F050FA6089401C80B200F08E
:102E300051FA002000F048FA6089801C80B200F04E
:102E400049FA2088401EC0F30F2000F03DFA608947
:102E5000C01C80B200F03EFA2078401EC0B200F0E4
:102E600033FAA08900F036FA002000F02DFAA0898C
:102E7000401C80B200F02EFA002000F025FAA08954
:102E8000801C80B200F026FA6088401EC0F30F203C
:102E900000F01AFAA089C01C80B200F01BFAA078DA
:102EA000BDE87040401EC0B200F00EBA608900F06C
:102EB00011FA002000F008FA002000F005FA20883E
:102EC000401EC0F30F2000F0FFF92078401EC0B272
:102ED00000F0FAF9A08900F0FDF9002000F0F4F903
:102EE000002000F0F1F96088401EC0F30F2000F0D0
:102EF000EBF9A078BDE87040401EC0B200F0E4B924
:102F000040000020F0B502460B463E4C1D0A20460C
:102F1000A188160A4089A1F5C857633F16D0A1F5CC
:102F2000AA47103F50D000F0D5F9304600F0CCF958
:102F3000D0B200F0C9F9A08900F0CCF9284600F021
:102F4000C3F9BDE8F040D8B200F0BEB9A17941B3F1
:102F500000F0C0F9304600F0B7F9D0B200F0B4F993
:102F60002088401EC0F30F2000F0AEF92078401EEC
:102F7000C0B200F0A9F9A08900F0ACF9284600F031
:102F8000A3F9D8B200F0A0F96088401EC0F30F206A
:102F900000F09AF9A078BDE8F040401EC0B200F001
:102FA00093B92188891A491E8AB200F093F900204A
:102FB00000F08AF9002000F087F9100A00F084F987
:102FC000D0B200F081F9D6E700F084F9304600F085
:102FD0007BF96089401C80B200F07CF9D0B200F02F
:102FE00073F9A08900F076F9284600F06DF9A08900
:102FF000401C80B200F06EF9BDE8F040D8B200F09D
:1030000063B90000400000202DE9F84F82460C46CD
:103010001F46A346780701D0012000E0002000EB06
:10302000D70079084843C0B20090203A02F0FF0967
:10303000002649E00C2F14D0102F19D0182F46D19C
:10304000244909EBC90001EB8000855D4FF00008C1
:10305000280612D52048214602885046FDF706FB77
:1030600013E01E4909EB490001EB8000855DEDE7A7
:103070001B4800EB0910855DE8E70A9828B9164857
:10308000214642885046FDF7F1FA6806050E641C99
:10309000A4B214484088A04219D9A4EB0B00B8424E
:1030A00009D15C460AF1010A1FFA8AFA0D48008824
:1030B00050450CD906E008F1010808F0FF08B8F106
:1030C000080FC5D3761CF6B200988642B2D3BDE88D
:1030D000F88F0000A849000828000020443F00089D
:1030E000B8430008400000202DE9FF4F81B0804622
:1030F0000F9893461D464FEAD01A4FF00009082D4D
:1031000000D90825002400F001060E98470836E093
:10311000281B401E80002BFA00F000F00F0059EA37
:10312000000102D1691E8C4211D14FF001090A2819
:1031300002D23030C2B201E03730C2B207FB0480A5
:1031400080B200960E9B0299FFF75EFF15E0BAF180
:10315000000F09D007FB048080B2009630220E9B3E
:103160000299FFF751FF08E007FB048080B2009648
:1031700020220E9B0299FFF747FF641CE4B2AC4289
:10318000C6D305B0BDE8F08F2DE9FC470746DDE961
:103190000A898A461D460024002A02DA0124564282
:1031A00000E016466CB109F00100009043462D2264
:1031B00051463846FFF728FF07EB580087B26D1ECF
:1031C000EDB22B46324651463846CDE9008900F033
:1031D0002CF8BDE8FC872DE9F84F0446DDE90A76B6
:1031E0000D4604F0FF0810191FFA80F958191FFA4C
:1031F00080FA4FF0000B11E04C4502D34446E81929
:1032000085B255450FD23B4629462046CDF800B041
:10321000FFF7FAFE04EB570084B2761C3278A2F175
:1032200020005E28E8D9BDE8F88F2DE9FF4F81B076
:103230008046DDF83CA093461F464FF0000900246D
:103240000E980AF00105460821E0381B401EC1B265
:103250000A20FFF747FDBBFBF0F00A21B0FBF1F2BB
:1032600001FB1200B9F1000F05D1791E8C4202DA80
:1032700090B14FF001093030C2B206FB048080B239
:1032800000950E9B0299FFF7BFFE641CE4B2BC429E
:10329000DBD305B0BDE8F08F5FEA0A6009D506FB15
:1032A000048080B2009530220E9B0299FFF7ACFE9D
:1032B000EBE706FB048080B2009520220E9B02996A
:1032C000FFF7A2FEE1E70000014908807047000017
:1032D000000002600149088070470000FEFF0160A5
:1032E0000248034900890880704700004000002020
:1032F000FEFF0160024A1080901C018070470000B0
:10330000FEFF016038B50121482000F0ADF920240E
:10331000ADF8004010208DF8030003208DF8020066
:103320000A4D69462846FDF722F820212846FDF778
:1033300071F8ADF80040064C69462046FDF717F8D5
:1033400020212046FDF766F838BD0000000C014042
:10335000001801402DE9F0478246DDE908658946FD
:1033600090461F463B2000F093F804463C2000F0B6
:103370008FF840EA0420AAF800003D2000F088F809
:1033800004463E2000F084F840EA0420A9F800003A
:103390003F2000F07DF80446402000F079F840EA34
:1033A0000420A8F80000432000F072F804464420EE
:1033B00000F06EF840EA04203880452000F068F8FC
:1033C0000446462000F064F840EA0420308047209C
:1033D00000F05EF80446482000F05AF840EA042065
:1033E0002880BDE8F087752000F052B810B586B08F
:1033F0000121880500F02AF90121082000F034F9A4
:103400001C208DF817004FF44060ADF81400032025
:103410008DF8160005A91C48FCF7A9FF0020ADF89F
:1034200008004CF2503101914BF6FF71ADF80A10D3
:103430004FF48061ADF80E100901ADF81010ADF831
:103440000C00124C01A92046FDF724F8012120466A
:10345000FCF7FBFF01216B2000F076F800216C20C7
:1034600000F072F80921192000F06EF806211A20E8
:1034700000F06AF818211B2000F066F818211C20C3
:1034800000F062F806B010BD000C0140005800408A
:1034900070B50646214C01212046FCF7E2FF204D85
:1034A0002046294600F040F80022D0212046FDF7B2
:1034B00054F81C49204600F037F831462046FDF705
:1034C00055F818492046891C00F02EF801212046A5
:1034D000FCF7C7FF2946204600F026F80122D0213C
:1034E0002046FDF73AF8691C204600F01DF800213F
:1034F0002046FCF792FF01212046FCF7BEFF084959
:1035000020463F3100F010F82046FDF723F805462D
:1035100001212046FCF781FF284670BD005800407D
:10352000010003008200070070B505460E4642F216
:10353000107402E0641E002C05D031462846FCF7CA
:1035400078FF0128F6D170BD70B506460D46154CC2
:1035500001212046FCF785FF13492046FFF7E4FFD1
:103560000022D0212046FCF7F8FF10492046FFF743
:10357000DBFF31462046FCF7F9FF0C492046891E47
:10358000FFF7D2FF29462046FCF7F0FF0749204607
:10359000891CFFF7C9FF2046BDE870400121FCF7F8
:1035A0006CBF0000005800400100030082000700CB
:1035B000FEE7704770B50F23C27801260178002A14
:1035C0001ED0144A126802F4E062C2F5E062120AE8
:1035D000C2F10404D3404578A54082781A402A43BA
:1035E000120101F1E02181F80024007800F01F01B0
:1035F0008E404009800000F1E020C0F8006170BDFD
:1036000001F01F0086404809800000F1E020C0F86A
:10361000806170BD0CED00E002490843024908607A
:10362000704700000000FA050CED00E07047000054
:10363000054A002903D0516901435161704751691E
:10364000814351617047000000100240054A002983
:1036500003D0D1690143D1617047D1698143D16100
:103660007047000000100240054A002903D091690C
:1036700001439161704791698143916170470000F6
:103680000010024010B5264A516801F00C01254B8C
:10369000002927D0042927D0082927D003605168A2
:1036A00001F0F0010909204B5C5C0168E1404160D8
:1036B000546804F4E064240A1C5D21FA04F4846074
:1036C000546804F46054E40A1B5DD940C160526838
:1036D00002F44042920B144B1B1F9A5CB1FBF2F1B7
:1036E000016110BD0360DAE70360D8E7516801F4B7
:1036F0007011536803F48033022404EB914133B119
:1037000053689B0307D5094B59430160C7E7074B33
:1037100059430160C3E7034B59430160BFE7000011
:103720000010024000127A001800002000093D003D
:10373000704700F001B800000CB500220192009221
:103740002748016841F4803101604FF4A0630168AB
:1037500001F4003100910199491C0191009911B9BE
:1037600001999942F3D10168890302D501210091A1
:1037700000E000920099012930D11A490A6842F00C
:1037800010020A600A6822F003020A600A6842F026
:1037900002020A604168416041684160416841F449
:1037A00080614160416821F47C114160416841F4CD
:1037B000E8114160016841F0807101600168890190
:1037C000FCD5416821F003014160416841F00201EC
:1037D00041604168C1F381010229FAD10CBD0000AA
:1037E00000100240002002404FF0E021042804D0E5
:1037F000086920F0040008617047086940F004007F
:10380000086170477047000010B50F48016841F02B
:103810000101016041680D4A1140416001680C4A94
:1038200011400160016821F480210160416821F4A8
:10383000FE0141604FF41F018160FFF77AFF0549E7
:103840004FF00060086010BD001002400000FFF85B
:10385000FFFFF6FE08ED00E070B5164C40F2255172
:10386000204600F039F800280ED0204600F0CEF8AF
:10387000C1B2114A1088030406D444044FF0000377
:1038800007D50A2901D0138070BD40F40040108094
:1038900070BD0D290AD0094DC0F30D042955401CF7
:1038A00080B21080C728F3D9138070BD40F48040E7
:1038B000108070BD00380140300000204E00002014
:1038C000002904D0818941F40051818170478189A8
:1038D00021F400518181704770B5002440F66A12CE
:1038E000C1F3421301F01F05012606FA05F2012B70
:1038F0000CD0022B0DD0838A1340090A8E40008819
:1039000030400BB100B10124204670BD83891340C3
:10391000F3E7038A1340F0E710B540F66A13C1F3EA
:10392000421301F01F040121A140012B07D0022BFB
:1039300007D014303AB102680A43026010BD0C305F
:10394000F8E71030F6E702688A43026010BD000015
:1039500030B585B004460D46208A4CF6FF7108400C
:10396000E98801432182A0894EF6F3110840A98815
:103970002A8911436A8902431143A181A08A4FF623
:10398000FF410840A9890143A1826846FFF77AFEFA
:103990001D48844201D1039800E00298A1890904DE
:1039A00008D500EBC00101EB001029684900B0FB0D
:1039B000F1F007E000EBC00101EB0010296889007D
:1039C000B0FBF1F06422B0FBF2F109010B096FF0DA
:1039D00018056B4300EB8300A3891D044FF03203ED
:1039E00007D503EBC000B0FBF2F000F0070008437E
:1039F00006E003EB0010B0FBF2F000F00F0008430C
:103A0000208105B030BD0000003801408088C0F33F
:103A100008007047FEE7704710B56FF00400FFF72D
:103A2000E3FE094809490068B0FBF1F00849C0B25B
:103A3000087000EB4002C2EBC0104FF6FF7202EAC2
:103A4000C000488010BD00000000002000127A0075
:103A50002C0000200B49498848434FF0E021486181
:103A600000238B61086940F0010008610869C20702
:103A700001D0C003FAD5086920F0010008618B610C
:103A8000704700002C0000200B49097848434FF094
:103A9000E021486100238B61086940F00100086162
:103AA0000869C20701D0C003FAD5086920F00100F7
:103AB00008618B61704700002C0000201CB5FFF7E7
:103AC000ABFF4FF4A060FFF7A7FD4FF4E13000F02B
:103AD000ABF8FFF717FCFCF739FEFFF787FC484906
:103AE0004FF4784008800320FFF734F9182445A0EC
:103AF000CDE90040142123463C220846FFF76BFB2A
:103B0000FFF771FC404D28708021CDE9004102464D
:103B1000022314215020FFF7E7FA3CA0CDE9004032
:103B20001422182364211046FFF755FB38A0CDE975
:103B30000040142218238C211046FFF74CFB35A0BF
:103B4000CDE9004014221823B4211046FFF743FBAF
:103B500031A0CDE900403C21182364220846FFF73C
:103B60003AFB2FA0CDE90040182350223C21A02091
:103B7000FFF731FB002605F10C0705F10A08224B7F
:103B8000CDE9008708339A1E911E881EFFF7E2FBDD
:103B9000CDE900460623B5F9022064213C20FFF759
:103BA000F3FACDE900460623B5F904208C213C2028
:103BB000FFF7EAFACDE900460623B5F90620B4215D
:103BC0003C20FFF7E1FACDE900460623B5F90820CD
:103BD0006421A020FFF7D8FACDE900460623B5F905
:103BE0000A208C21A020FFF7CFFACDE9004606235A
:103BF000B5F90C20B421A020FFF7C6FABFE70000FA
:103C00002800002049443A003200002058000000FB
:103C1000590000005A000000414343454C00000099
:103C20004759524F0000000070B586B0054601218B
:103C300044F20400FFF718FD4FF40070ADF81400D3
:103C400003248DF8164018218DF817101C4E05A975
:103C50003046FCF78CFB3115ADF8141004218DF8BB
:103C6000171005A93046FCF782FB25208DF80000CF
:103C70008DF801408DF8024001208DF80300684660
:103C8000FFF798FC01950020ADF80800ADF80A0098
:103C9000ADF80C00ADF810000C20ADF80E00094C8A
:103CA00001A92046FFF754FE012240F2255120468B
:103CB000FFF732FE01212046FFF702FE06B070BD7D
:103CC00000080140003801404FEA1153A3F580631A
:103CD000D3F11E03A8BFD3F1200C08DB4FF0004244
:103CE00042EAC12252EA505232FA03F070470942C6
:103CF0000BD4102BC4BF0020704703F5787CBCF1B7
:103D0000FF3F05D04FF0FF3070474FF00000704785
:103D100070B500F0C3F800BF4992248000207047BE
:103D2000F0E7B0FA80F310FA03F10AD0C3F11D03F3
:103D300003F580634FEA41504FEA035202EBD12171
:103D400070474FF000007047DFF848C170B51CEABB
:103D5000111E1EBF1CEA13159EEA0C0F95EA0C0FEC
:103D600000F06F8081EA030423EA4C134EEAD47E0C
:103D700021EA4C1141F4801143F48013AE44A1FBBD
:103D8000024CA0FB0365AEF17F7E361955EB0C05A6
:103D9000A1FB034C4CF10003A0FB021C16EB0C062C
:103DA000654153F10003094218BF46F0010613F4C0
:103DB000007F0BD14FEA03314FEA0530340341EA6B
:103DC000155140EA16506FF003020AE04FEAC32192
:103DD0004FEAC520F40241EA555140EA56506FF0CF
:103DE000020202EB2E4201EB025585EACE710AD0A7
:103DF0005FEA440C18BF24F0004450F1000041F188
:103E0000000120EAD47040F2FE7C624500D270BD11
:103E1000A84214BF4FF080444FF04044002E08BF2A
:103E20000024BEF1806FA8BFA1F1C041BDE8704081
:103E300080F282804FF0000001F1C04101F00041AA
:103E400070479EEA0C0F0CEA131518BF95EA0C0F89
:103E500006D04FF0000081EA030E0EF0004170BD65
:103E600000F01CF88900013E00F007B800F009B826
:103E70004FEA430C5FEA5C5C08D081EA030100F082
:103E80005BB84FEA410C5FEA5C5CF6D14FF0000092
:103E9000014970470000FF070000F87F0EF1020E95
:103EA0002EF0030E5EF8046B364205D4012A43EB74
:103EB000030515F5001F12D8012841EB010C1CF574
:103EC000001F0CD80ED14FEAD17C15F5001F0CEB6A
:103ED0004C0C0CF1020C08BF4CEBD37C04E04FF00F
:103EE000080C01E04FEAD37C0CEB4C0526FA05F6F2
:103EF00006F00706B6F1040C06D20EEB860CBDE800
:103F000070404CF0010C6047DFE80CF0090B020236
:103F10004FF000414FF00000A1F5002170BD19469F
:103F20001046012851EB010418BFD4F5001484BFDA
:103F3000002001F0004170BD0808A0F500114FEA13
:103F40003101704700000000000000000000000088
:103F5000000000003F4000000000000000003000B2
:103F6000400030004000000009000BC03D000BC0C5
:103F70003D00090018C024407FE02240318000004D
:103F8000180024C01B000D803240018003801C40BB
:103F900027401C8007400040100060000000000027
:103FA000000000000000000000001F8020404020B2
:103FB0000000402020401F80000000000900060093
:103FC0001F80060009000000040004003F80040078
:103FD000040000000010006000000000000000006D
:103FE000040004000400040004000000000000407D
:103FF0000000000000000000002001C006003800A2
:10400000400000001F802040204020401F80000012
:10401000000010403FC000400000000018C02140D8
:1040200022402440184000001080204024402440BA
:104030001B80000002000D0011003FC00140000085
:104040003C80244024402440238000001F802440E2
:1040500024403440038000003000200027C0380096
:10406000200000001B802440244024401B800000CE
:104070001C0022C0224022401F80000000000000DF
:104080000840000000000000000000000460000084
:1040900000000000000004000A00110020804040E1
:1040A0000900090009000900090000000000404063
:1040B000208011000A000400180020002340240082
:1040C000180000001F802040274029401F400000AA
:1040D000004007C039000F0001C0004020403FC031
:1040E000244024401B8000001F80204020402040AE
:1040F0003080000020403FC0204020401F80000052
:1041000020403FC024402E4030C0000020403FC02F
:1041100024402E00300000000F001080204022407C
:104120003380020020403FC0040004003FC0204014
:10413000204020403FC02040204000000060202060
:1041400020203FC02000200020403FC024400B0022
:1041500030C0204020403FC020400040004000C010
:104160003FC03C0003C03C003FC0000020403FC0B7
:104170000C4023003FC020001F80204020402040F2
:104180001F80000020403FC0244024001800000091
:104190001F802140214020E01FA0000020403FC0A0
:1041A0002440260019C0004018C02440244022406A
:1041B00031800000300020403FC02040300000002F
:1041C00020003F80004000403F80200020003E0053
:1041D00001C0070038002000380007C03C0007C0BD
:1041E00038000000204039C0060039C020400000DF
:1041F0002000384007C0384020000000304021C077
:104200002640384020C00000000000007FE0402031
:1042100040200000000070000C00038000400000FF
:104220000000402040207FE000000000000020004F
:1042300040002000000000000010001000100010DE
:10424000001000100000000040000000000000000E
:10425000000002800540054003C0004020003FC030
:104260000440044003800000000003800440044038
:104270000640000000000380044024403FC000408E
:10428000000003800540054003400000000004409A
:104290001FC0244024402000000002E005500550CB
:1042A0000650042020403FC00440040003C00040EA
:1042B0000000044027C00040000000000010001073
:1042C000041027E00000000020403FC0014007002C
:1042D00004C00440204020403FC000400040000097
:1042E00007C0040007C0040003C00000044007C06A
:1042F0000440040003C00040000003800440044068
:1043000003800000041007F0045004400380000004
:10431000000003800440045007F00010044007C070
:104320000240040004000000000006400540054073
:1043300004C00000000004001F8004400040000092
:10434000040007800040044007C00040040007004C
:1043500004C0018006000400060001C0070001C07F
:1043600006000000044006C0010006C00440000032
:104370000410071004E0018006000400000004405F
:1043800005C00640044000000000000004007BE07F
:1043900040200000000000000000FFF000000000CE
:1043A000000040207BE0040000000000400080008E
:1043B000400020002000400000000000000000003D
:1043C00000000000000000000000000000001FCC02
:1043D000000C000000000000000008003000600039
:1043E0000800300060000000022003FC1E200220B4
:1043F00003FC1E200220000000000E1811043FFFE5
:1044000010840C78000000000F0010840F3800C0EA
:10441000077818840078000000780F8410C41124F5
:104420000E9800E400840008080068007000000096
:10443000000000000000000000000000000007E095
:104440001818200440020000000040022004181840
:1044500007E00000000000000240024001800FF071
:1044600001800240024000000080008000800FF8C0
:1044700000800080008000000001000D000E0000A0
:1044800000000000000000000000008000800080AC
:1044900000800080008000800000000C000C000004
:1044A000000000000000000000000006001800608E
:1044B0000180060018002000000007F00808100422
:1044C0001004080807F000000000080408041FFC9E
:1044D000000400040000000000000E0C1014102462
:1044E000104411840E0C000000000C18100411047C
:1044F000110412880C700000000000E00320042466
:1045000008241FFC0024000000001F9810841104E0
:104510001104108810700000000007F008881104D2
:10452000110418880070000000001C00100010FC2E
:1045300013001C001000000000000E38114410840D
:10454000108411440E38000000000700088C10444D
:104550001044088807F00000000000000000030C71
:10456000030C000000000000000000000001010634
:104570000000000000000000000000800140022058
:10458000041008081004000002200220022002206B
:10459000022002200220000000001004080804107D
:1045A000022001400080000000000E001200100CEC
:1045B000106C10800F00000003E00C1813E41424AA
:1045C00017C4082807D000000004003C03C41C40A6
:1045D000074000E4001C000410041FFC1104110437
:1045E00011040E880070000003E00C181004100481
:1045F000100410081C10000010041FFC100410040C
:104600001004080807F0000010041FFC1104110436
:1046100017C410040818000010041FFC1104110036
:1046200017C010000800000003E00C18100410046C
:1046300010441C780040000010041FFC108400800F
:10464000008010841FFC10040000100410041FFCE4
:10465000100410040000000000030001100110010C
:104660001FFE10001000000010041FFC1104038046
:104670001464181C1004000010041FFC1004000433
:1046800000040004000C000010041FFC1F0000FCCC
:104690001F001FFC1004000010041FFC0C0403008A
:1046A00000E010181FFC100007F0080810041004A8
:1046B0001004080807F0000010041FFC108410808C
:1046C000108010800F00000007F00818102410243C
:1046D000101C080A07F2000010041FFC110411004E
:1046E00011C011300E0C000400000E1C11041084C7
:1046F000108410441C3800001800100010041FFC27
:10470000100410001800000010001FF8100400042E
:10471000000410041FF8100010001E0011E0001C1F
:10472000007013801C0010001FC0103C00E01F0030
:1047300000E0103C1FC000001004180C163401C02B
:1047400001C01634180C100410001C00130400FCE7
:1047500013041C00100000000804101C10641084D6
:1047600013041C04101800000000000000007FFE6D
:104770004002400240020000000030000C000380B4
:104780000060001C000300000000400240024002E4
:104790007FFE00000000000000000000200040003C
:1047A0004000400020000000000100010001000165
:1047B0000001000100010001000040004000200055
:1047C00000000000000000000000009801240144E7
:1047D0000144014400FC000410001FFC0088010497
:1047E00001040088007000000000007000880104CF
:1047F000010401040088000000000070008801042A
:10480000010411081FFC0004000000F801440144E9
:104810000144014400C800000000010401040FFC31
:104820001104110411001800000000D6012901290B
:10483000012901C90106000010041FFC00840100C9
:104840000100010400FC000400000104190419FC2B
:10485000000400040000000000000003000101014A
:10486000190119FE0000000010041FFC0024004084
:1048700001B4010C010400000000100410041FFC2E
:104880000004000400000000010401FC0104010018
:1048900001FC0104010000FC010401FC0084010092
:1048A0000100010400FC0004000000F80104010400
:1048B0000104010400F80000010101FF008501046A
:1048C00001040088007000000000007000880104EE
:1048D0000104010501FF00010104010401FC008441
:1048E0000104010001800000000000CC012401242B
:1048F000012401240198000000000100010007F8D4
:104900000104010400000000010001F8000400049B
:104910000004010801FC0004010001800170000C8A
:10492000001001600180010001F0010C003001C0A5
:104930000030010C01F0010000000104018C007442
:104940000170018C01040000010101810171000E60
:10495000001801600180010000000184010C013495
:1049600001440184010C0000000000000000000070
:1049700001003EFC40024002000000000000000078
:10498000FFFF0000000000000000400240023EFC6B
:1049900001000000000000000000600080008000B6
:1049A0004000400020002000000000000000000047
:1049B00000000000000000000000000000000000F7
:1049C00000000000000000000000000000000000E7
:1049D00000000000000000000000000F80380FFE03
:1049E000380F8038000000000000000000000000C8
:1049F0000000000000000100000600000C0000386C
:104A000000003100000600000C00003800003000FB
:104A1000000000000000000061800067F807F980D6
:104A20000061800061800061800061800067F8079C
:104A3000F98000618000000000000000000001C05B
:104A4000E003E0F00630080418081FFFFE040E081B
:104A50000787F00381E000000000000001F000067D
:104A60000C00040408060C7001F9C0000E00003BA5
:104A7000E000EC18070808040C180003E000000030
:104A80000001E00007F003F818041C0804170807E9
:104A9000E1D003C0E00023B0003C08002008000083
:104AA0001000000000000001000031000032000092
:104AB0001C000000000000000000000000000000DA
:104AC00000000000000000000000000000000000E6
:104AD00000000000000000007F0001FFC00780F020
:104AE0000C0018100004200002000000000000204C
:104AF00000021000040C00180780F001FFC0007FC6
:104B000000000000000000000000000000000000A5
:104B1000000000004200006600006600003C00004B
:104B2000180003FFC0001800003C0000660000668B
:104B3000000042000000000008000008000008001B
:104B400000080000080001FFC00008000008000085
:104B5000080000080000080000000000000100003C
:104B60003100003200001C000000000000000000C6
:104B70000000000000000000000000000000000035
:104B800008000008000008000008000008000008F5
:104B900000000800000800000800000800000000F5
:104BA000000000000000000038000038000038005D
:104BB00000000000000000000000000000000000F5
:104BC0000000000000000000000600001C00007053
:104BD000000180000E0000380000C0000700001C2B
:104BE0000000300000000000000000007F8001FF96
:104BF000E00380700600180400080400080600188E
:104C000003807001FFE0007F8000000000000000D2
:104C1000000001000801000801000803FFF807FF79
:104C2000F800000800000800000800000000000074
:104C300000000001C03802C05804009804011804A4
:104C40000218040418061C1803F81801E0F8000004
:104C50000000000000000001C0E003C0F0040008F4
:104C600004080804080806180803F41801E7F0000F
:104C700001E0000000000000000000000300000D43
:104C80000000110000610000810803010807FFF81F
:104C90000FFFF800010800010800000000000000FC
:104CA00000E007FCD00608080610080610080610E9
:104CB00008061838060FF00607C0000000000000C4
:104CC000000000003F8001FFE00384300208180468
:104CD0001008041008041008071810030FF000074C
:104CE000C000000000000000000003C0000700003A
:104CF0000600000600F80607F806180006E00007A0
:104D0000000006000000000000000001E1E003F7E1
:104D1000F0063410041808041808040C08040C08E1
:104D200006161803F3F001C1E000000000000000C7
:104D3000F80003FC300306380402080402080402E9
:104D4000080404100308F001FFC0007F0000000009
:104D50000000000000000000000000000000000053
:104D6000703800703800703800000000000000004B
:104D70000000000000000000000000000000000033
:104D800000000000301A00301C000000000000008D
:104D9000000000000000000000000000000000080B
:104DA000000014000022000041000080800100404B
:104DB00002002004001008000800000000000000AD
:104DC000210000210000210000210000210000211D
:104DD000000021000021000021000021000000004F
:104DE000000000000000080008040010020020017C
:104DF00000400080800041000022000014000008F4
:104E00000000000000000003C00004C00004000017
:104E1000080038080F380808380810000C30000760
:104E2000E00003C000000000000000003F8000FF21
:104E3000E0038070020F1006708804C088048308A5
:104E4000047F8802C09003012000FE40000008009B
:104E500000180001F8003E0801C20007020007E246
:104E60000000FE00001FC80001F800003800000824
:104E700004000807FFF807FFF804080804080804FE
:104E8000080804080806180803F41801E7F00001F0
:104E9000E0000000000000003F8001FFE0038070A0
:104EA00002001804000804000804000804001006AA
:104EB00000200780C000000004000807FFF807FF7B
:104EC000F804000804000804000804001802001098
:104ED00003807001FFE0007F8000000004000807ED
:104EE000FFF807FFF8040808040808040808040885
:104EF00008043E08040008060018010060000000D5
:104F000004000807FFF807FFF80408080408000475
:104F10000800040800043E000600000600000180AE
:104F200000000000000000003F8001FFE0038070EF
:104F30000600180400080402080402080203F0072F
:104F400083F000020000020004000807FFF807FFDA
:104F5000F804080800080000080000080000080025
:104F600004080807FFF807FFF80400080000000025
:104F7000000004000804000804000807FFF807FF09
:104F8000F804000804000804000800000000000005
:104F900000000000000600000700000104000104FA
:104FA000000104000307FFFE07FFFC0400000400EB
:104FB0000004000004000807FFF807FFF8040C08CD
:104FC000001800003E0004C7800503C80600F8046E
:104FD000003804001800000804000807FFF807FF65
:104FE000F80400080000080000080000080000089D
:104FF000000008000018000060000000040008071E
:10500000FFF807800807FC00007FC00003F80007D6
:10501000C000780007800807FFF807FFF8040008C1
:1050200004000807FFF807000803C00000E00000C4
:105030003800001E000007000001C00400F007FF58
:10504000F8040000000000007F8001FFE003807092
:1050500006001804000804000806001803003001C8
:10506000FFE0007F8000000004000807FFF807FF52
:10507000F804040804040004040004040004040008
:10508000060C0003F80001F0000000000000000022
:105090007F8001FFE0038070060088040088040020
:1050A000C806003C03003E01FFE6007F84000000CC
:1050B00004000807FFF807FFF804080804080004C4
:1050C0000C00040F00040BC00610F003F03801E0E0
:1050D0000800000800000001E0F803F0300630107E
:1050E000041808041808040C08040C080206180226
:1050F00007F00781E00000000180000600000400C6
:105100000004000004000807FFF807FFF804000887
:1051100004000004000006000001800004000007F5
:10512000FFE007FFF004001800000800000800007E
:105130000800000800000804001007FFE004000059
:1051400004000006000007E00007FE00041FE00066
:1051500001F80000380001E0043E0007C00006002E
:105160000004000004000007E00007FFC0041FF86F
:105170000007C007F80007FF80043FF80007C004DD
:10518000F80007000004000000000004000806000A
:105190001807C07805F1C8003E00001F800463E8CE
:1051A0000780F8060018040008000000040000064C
:1051B000000007800007E008047C08001FF80007D3
:1051C000F800180804E008070000060000040000CA
:1051D0000000000100080600380400F80403E80499
:1051E0000F08047C0805F00807C008070018040031
:1051F000600000000000000000000000000000004F
:105200000000003FFFFE20000220000220000220DC
:105210000002200002000000000000000000080062
:105220000007000000C0000038000006000001C0B8
:1052300000003000000E000001000000000000002F
:1052400000002000022000022000022000022000B6
:10525000023FFFFE00000000000000000000000010
:1052600000000000000000000008000010000030F6
:1052700000002000003000001000000800000000C6
:10528000000000000000010000010000010000011A
:105290000000010000010000010000010000010009
:1052A00000010000010000010000000000000000FB
:1052B000002000002000001000001000000000008E
:1052C00000000000000000000000000000000000DE
:1052D00000F00019F8001B1800220800260800241E
:1052E00008002410003FF8001FF800000800001814
:1052F00000000004000007FFF80FFFF0001818007E
:105300001008002008002008003018001FF0000FCF
:10531000C00000000000000007C0001FF0001830AF
:10532000002008002008002008003C08001C100095
:1053300000600000000000000000000007C0001F27
:10534000F000381800200800200800200804101081
:1053500007FFF80FFFF00000100000000000000041
:1053600000000007C0001FF00012300022180022C9
:1053700008002208003208001E10000E2000000065
:1053800000000000200000200800200801FFF803B2
:10539000FFF8062008042008042008072000030066
:1053A0000000000000000000000E000E6E001FF361
:1053B0000031B10020B10020B1003191001F130075
:1053C0002E1E00200E00300000000004000807FF21
:1053D000F80FFFF80010080020000020000020084F
:1053E000003FF8001FF80000080000000000000067
:1053F0000000002008002008002008063FF8063FB3
:10540000F80000080000080000080000000000008C
:105410000000000000000000030000030020010065
:105420002001002003063FFE063FFC0000000000B4
:105430000000000000000004000807FFF80FFFF85C
:10544000000188000300002FC00038F80020380059
:105450002008000008000000000000000000040018
:105460000804000804000807FFF80FFFF800000810
:1054700000000800000800000000000000200800F4
:105480003FF8003FF8001008002000003FF8003F00
:10549000F8001008002000003FF8003FF800000866
:1054A000000000002008003FF8003FF8001008004E
:1054B0001000002000002008003FF8001FF8000046
:1054C000080000000000000007C0000FF0001830C6
:1054D00000300800200800200800300800183000C4
:1054E0000FF00007C0000000000000002001003F96
:1054F000FF003FFF001011002009002008002008D5
:10550000003038001FF0000FC00000000000000055
:1055100007C0001FF00038180020080020080020F5
:1055200009001011001FFF003FFF000001000000F4
:10553000002008002008002008003FF8003FF80085
:10554000080800100800200800200000300000308B
:1055500000000000000000000000000C78001E1891
:10556000003308002308002108002188002198004A
:1055700030F0003860000000000000002000002033
:105580000000200000FFF003FFF8002008002008C2
:1055900000200800003000000000000000000000B3
:1055A0002000003FF0007FF8000018000008000015
:1055B00008002010003FF8007FF0000010000000FD
:1055C000000000002000003000003C00003F800090
:1055D00023F0000078000070002380003C000030C1
:1055E00000002000002000003C00003FE00023F805
:1055F0000000E0002700003E00003FE00021F8002E
:1056000001E0003E00002000000000002008002013
:1056100008003838003E680027800003C8002CF8D6
:1056200000383800201800200800000000000000AA
:105630002000003003003C01003F830023EC000009
:1056400070002380003C00002000002000000000CB
:105650000000000000000038080020380020F8009A
:1056600023E8002F88003E080038080020180000BA
:1056700070000000000000000000000000000000BA
:105680000000000008000014001FF7FC3000062096
:105690000002000000000000000000000000000008
:1056A00000000000000000000000FFFFFF000000FD
:1056B00000000000000000000000000000000000EA
:1056C00000002000023000061FF7FC001400000854
:1056D00000000000000000000000000000000000CA
:1056E00000000018000060000040000040000020A2
:1056F00000001000000800000400000400000C007E
:1057000000100000245700080000002040000000A6
:105710006C010008645700084000002038070000B2
:105720008801000800A24A040000000000000000F8
:10573000010203040607080902040608000000002D
:105740000102030401020304060708090000FFFF29
:105750000000000000000000000000000000000049
:045760000000000045
:0400000508000131BD
:00000001FF
